:020000040000FA
:10000000F80B00209106000035070000F1590000B0
:10001000115A0000315A0000715A0000515A000074
:10002000000000000000000000000000C12A0000E5
:10003000350700000000000035070000350700000C
:10004000000000000000000000000000033300007A
:100050000000000035070000000000000000000064
:1000600035070000350700003507000035070000A0
:1000700000000000350700003507000035070000CC
:1000800035070000350700000000000000000000F8
:1000900035070000350700000000000000000000E8
:1000A00035070000000000000000000035070000D8
:1000B0003507000035070000350700003507000050
:1000C0003507000035070000350700003507000040
:1000D00035070000000000003507000000000000A8
:1000E0003507000000000000350700000000000098
:1000F00035070000000000000000000000000000C4
:1001000000000000350700000000000000000000B3
:1001100000000000000000000000000000000000DF
:100120000000000035070000000000000000000093
:1001300000000000000000000000000000000000BF
:100140003507000000015F5F02000000FE0B0000A9
:10015000512B00008006000000000000000000009D
:100160000000000000000000000000000100FFC3CC
:10017000000000C4201200200000000001015F5FA9
:10018000030100001F010000B10400000000000096
:10019000000000000100000001000000000000005D
:1001A000000000000000000000000000000000004F
:1001B0000000000070000000905E00008000000061
:1001C000000F000001000000F102000001015F5F6C
:1001D000040100001F0100001F06000000000000D5
:1001E000000000000000000001000000000000000E
:1001F00000000000000000000000000000000000FF
:10020000000000009B5E00004000000005070000A9
:08021000010000000B050000D5
:1002200038B50025054C29462046D4F80024C4F8EA
:10023000045405F086FCC4F8005438BD200C00209E
:1002400037B511460022CDE9002242680346402A14
:10025000046845D1228D150A032D17D0012D37D002
:1002600022482468D0F80404AA1ECDE90040082AD8
:1002700039D8DFE802F0050B0F14191E23283000CF
:100280006A46184600F037F903B030BD184600F052
:1002900020F9F9E76A46184600F01EF9F4E76A46C5
:1002A000184600F013F9EFE76A46184600F017F910
:1002B000EAE76A46184600F015F9E5E76A46184687
:1002C00000F013F9E0E76A46184600F011F9DBE7A1
:1002D00000F014F9D8E76A46184600F013F9D3E79E
:1002E0006FF08000D0E76FF08500CDE7200C002094
:1002F0002DE9F04F05680446A3B0002D40F0B18011
:100300002022294602A805F01CFC12AF2022294613
:100310000AA805F016FC40222946384605F011FCD3
:10032000E26904F11C039846B2B10426E26A04F1C2
:100330002C03EAB10425EEB96FF08306304623B0F2
:10034000BDE8F08F002EF1D053F8041D3246013E77
:100350000029F7D01646E9E70326F5E7002DEAD095
:1003600053F8041D2A46013D0029F7D01546E2E75F
:100370000325F5E740233A460021606805F01EFC9E
:100380004028D9D1CDE902700127DFF8DCA00DF1BA
:10039000080904F1100BBE421FD10AAF38460021F4
:1003A000314A08EB8509D2F80034C84533D109B188
:1003B000C2F80034A3683146C2F8043402A82B46C0
:1003C0000AAAFFF73DFF4FF000080646454507F132
:1003D00008073DD1FFF724FFB0E75BF8043F1A1D83
:1003E00021D8DAF80004D91C21F00301C0F580629D
:1003F000914218D8014400EB0A02CAF80014606860
:100400003946019205F0DAFB019AC9F80C00013770
:1004100049F8082FBFE758F804EF1EF1040F07D979
:1004200009B1C2F80034FFF7FBFE6FF08C0685E7D8
:100430000EF1030C2CF0030CC3F5806AD44500F1D7
:100440000800EDD8D11840E9021E63440121ACE751
:10045000414657E90223606805F0C5FB08F1010831
:10046000B4E76FF0850669E7200C002008B5282264
:100470000021024805F065FB002008BD281000207F
:1004800010B5044C0F222046034905F035FB2046E9
:1004900010BD00BF511000202206000008B5012148
:1004A000024803F0C7FA002008BD00BF501000202A
:1004B00008B5FFF7DBFF40B9FFF7E2FFFFF7EEFFFC
:1004C00018B9BDE8084003F03FBB08BD6FF08500D8
:1004D00070476FF0850070476FF0850070476FF0D0
:1004E000850070476FF0850070476FF0850070479A
:1004F0006FF0850070476FF085007047D1E900010B
:1005000003F0E6BA6FF085007047F0B50368054662
:10051000B3F57D7FA7B007D040F2F532934207D004
:100520006FF0850027B0F0BD01F066FC0020F9E710
:1005300000243C22214607A8CDE90244CDE9044429
:10054000069405F0FEFA3C22214617A8169405F001
:10055000F8FAEA69019405F11C0302B30426EA6A79
:1005600005F12C033AB30424731E012B52D8012C3D
:1005700050D80423002168680DEB030205F01EFB30
:1005800004281AD06FF08000CCE7002EE7D053F893
:10059000041D3246013E0029F7D01646DFE7032648
:1005A000F5E7002CE0D053F8041D2246013C002959
:1005B000F7D01446D8E70324F5E7022E16D16E696A
:1005C000402E29D806AF33463A460121686805F027
:1005D000F5FA8642D6D1CDE9027602A944B922467F
:1005E000019801F013FE044620469BE70021F5E741
:1005F0002B6A402BC6D816AACDE90423019804AA79
:1006000001F004FEDDE9042304460021686805F0DA
:10061000EAFAE9E7012085E76FF0890082E7002028
:1006200070474D62656420544C5320332E362E3172
:1006300000000000000000000000000000000000BA
:10064000283000000100000049360000213600007B
:10065000407C00008010002047000000407C00002B
:10066000200C002000000000407C0000000C002056
:10067000000000009C110020C2050000200C00209A
:1006800018010000000C00200800000002F06CBC03
:1006900008B572B61E4A1F4B9A601F4B83F3098838
:1006A0001E4B83F30A8883F30B881D4B16A1D1E9F7
:1006B0000001C3E9000100F089F81A4B1A498B4286
:1006C00012D30020194B1A498B4218D302F0D0FFE5
:1006D000186850F82240586840F822400132986863
:1006E0008242F5D30C33EAE70022F8E71C6844F8AD
:1006F000220001325C68A242F8D30833E4E700220A
:10070000F8E700BFAFF30080A5EDF5FEA5EDF5FE1F
:100710000000000000ED00E0F80B002000040020C5
:10072000F80B00205006000074060000740600005C
:100730008C060000EFF30880EFF309812DE9F00F3C
:100740006B46724600F02CF908B0FFF79FFFFEE7FA
:1007500008B5EFF31083012B0C4A07D1126ABFF3DF
:100760004F8F511C4A424A41104608BD01F0B4FB6C
:1007700000B172B6126ABFF34F8F531C5A425A41EE
:1007800001F0AAFB0028EFD062B6EDE70080FF0081
:1007900008B5EFF31083012B0B4A06D1D269BFF3E2
:1007A0004F8F02F00102104608BD01F095FB00B129
:1007B00072B6D269BFF34F8F02F0010201F08CFBD9
:1007C0000028F0D062B6EEE70080FF00694A10B55D
:1007D000D2F8D03043F00203C2F8D03001F07CFBF5
:1007E00030B14FF050230022C3F81421C3F8182170
:1007F00001F081FB28B101225F4BC3F8382AC3F80E
:1008000078254FF47F02D2F83031D2F83421BFF38B
:100810004F8FC3F30B03092B05D1012A1EBF012201
:10082000554BC3F8782501F066FB18B10E22534BE7
:10083000C3F8E42E01F050FB30B100224E4BC3F858
:100840000C270122C3F810270022D30003F57F03F1
:10085000D3F80013BFF34F8F013108D0D3F8001342
:100860000132D3F80433B2F5807F0B60EDD1EFF3A2
:100870001084FFF78DFF00284DD0BFF34F8F404B02
:10088000D3F80024012AFBD1C3F80425D3F80024AF
:10089000012AFBD1012C03D001F01EFB00B172B67E
:1008A000FFF776FF58B1374AD36923F00103D361CC
:1008B000BFF34F8F324AD2F80034012BFBD1FFF740
:1008C00047FF68B12F4A136A23F0FF0343F0200368
:1008D0001362BFF34F8F2A4AD2F80034012BFBD1A9
:1008E000012C03D001F0F8FA00B162B60022244BCB
:1008F000C3F80425D3F80024012AFBD1BFF34F8F9E
:100900001C49214BCA6802F4E0621343CB60BFF379
:100910004F8F00BFFDE7FFF71BFF0028ADD1154A41
:10092000D2F88C3043F44063C2F88C304FF47F032C
:10093000D3F83021D3F83431BFF34F8FC2F30B0219
:10094000092A16D1013B022B02D8104AD35C83B18D
:100950000C480F4903680A4A8B420CBF5A230023F4
:10096000C2F8103EC36A8B420CBF5A230023C2F860
:10097000003E10BD00ED00E00040005000A003501C
:10098000009003500080FF000400FA05423300008D
:10099000FA50FA507C22014905F0AEB8BC1800208C
:1009A00038B51D46384B394C5B68C3F308032360E8
:1009B000EFF3038363655306C4E90120E16039D591
:1009C00002F00C020C2A08BF0846014620612022D2
:1009D0002F4805F091F825B1202229462D4805F031
:1009E0008BF8294B9A6AA265D96AE165986B2066F3
:1009F00002F400406066586BA06602F08000E0667A
:100A00009A62D962D3F8E42023482267D3F8E81029
:100A1000616702F04001A167C3F8E4200E2101F0F4
:100A20007CFA2268D31E042B22D8DFE803F00F15CE
:100A3000181B1E00EFF39483990704D5130702D502
:100A4000EFF38980C1E7EFF38880BEE70C211348FC
:100A5000BDE8384001F061BA12211148F8E70B21D6
:100A60001048F5E70D211048F2E70E210F48EFE797
:100A70000F2A98BF1421BDE8384089BF25210C48B2
:100A80000C48103A01F016BC00ED00E0BC18002044
:100A9000D0180020F0180020453300005333000028
:100AA0005F330000713300007C33000089330000A5
:100AB00097330000AB3300002DE9F34106460F46A3
:100AC0000C4DD5F82C80C04710F00104FBD13946FD
:100AD00030466B69984740B9C047C307FCD42B6ABE
:100AE000019302B0BDE8F0411847204602B0BDE8CE
:100AF000F08100BFD033000010B5094C0020A3687E
:100B000098472369022098474FF4E131A46A0120F5
:100B1000A04701211520A0470122024B1A6010BDF9
:100B2000D033000038190020064B82B0186800232B
:100B300082B262F30F03000C60F31F43184602B049
:100B4000704700BF18340000014B1869704700BFA0
:100B500080100020014B5869704700BF80100020B2
:100B600010B5044C204600F0E9FE002084F8200077
:100B700010BD00BF8010002038B50C4D0C4695F814
:100B8000203013B94FF0FF3038BD0A4601462846E1
:100B900000F066FF064B984205D00B3B9842F1D11E
:100BA00000206C61F0E76FF00100EDE7801000209D
:100BB0000B00AD0BF0B51B4E054696F820300C46E9
:100BC00091B01BB94FF0FF3011B0F0BD00F06043A1
:100BD000B3F1005F21D100230A460146304600F000
:100BE000EFFB114B98421AD00B3B9842EAD134618B
:100BF00011E0A71B402F28BF4027A9193A46684695
:100C000004F07AFF39466846FFF7D4FF0028DBD1AD
:100C10004036B442EDD80020D6E70026F9E76FF061
:100C20000100D1E7801000200B00AD0BC3B2012BF7
:100C300010B540F096804DF6C023994270D028D868
:100C4000B1F5615F6FD011D8B1F5965F6DD008D85E
:100C5000B1F5966F6BD0B1F5166F6BD06FF00700E2
:100C60005DE0B1F5165FF9D1454B33E047F612234D
:100C7000994262D007D8B1F5964F61D0B1F5E14FF6
:100C8000ECD1404B26E0B1F5164FE7D14FF41D03F0
:100C900020E03D4B994255D011D8B1F5E13F54D0F9
:100CA00007D8B1F5614F53D0B1F5963FD6D1374B48
:100CB00010E0B1F5613FD1D14FF06C730AE0B1F5AE
:100CC000612F48D0324B994248D0B1F5E12FC5D1C0
:100CD0004FF0E86310F4E06F46D110F4404103D0C8
:100CE000B1F5804F43D1102110F4405203D0B2F53A
:100CF000805F3FD10E2210F4403003D0B0F5403F6A
:100D00003BD10120234C20766276E361A1760A4331
:100D100024681043C4F82435C4F86C05002010BDC5
:100D20004FF46503D6E71C4BD4E71C4BD2E74FF4D6
:100D30009E23CFE74FF41D23CCE74FF40003C9E710
:100D4000174BC7E74FF08063C4E74FF0EB73C1E781
:100D50004FF46B03BEE74FF07063BBE74FF0805377
:100D6000B8E76FF00300DAE76FF00800D7E76FF03D
:100D70000A00D4E76FF00900D1E76FF00B00CEE76F
:100D80000050270000C0750090D0030000903A0189
:100D900040420F008010002000F03A0000B0130025
:100DA00000A04E0010B58EB02422002105A804F04A
:100DB000C8FE4FF0FF33CDE90133CDE903334FF0E7
:100DC000EB730B930723104C01A8D4E902128DF8A2
:100DD000363001F0C0F801460022204600F03AFA11
:100DE0000A4B98420DD10C9B002023831B0CA37649
:100DF0000B9BC4E90400E361012384F820300EB0AA
:100E000010BD6FF00100FAE7801000200000AD0B6C
:100E10007FB500250C46C0F808511646D0F80821C9
:100E2000D0F8002222F02002C0F80022104AC0F8B8
:100E3000082301F0E0F8A560256104F14C03D3E834
:100E4000EF1F21F47F0121F47041C3E8E21F002A63
:100E5000F5D110222946684604F073FE0423684643
:100E60008DF800300196D4E90013984704B070BDA6
:100E700010020A0000F01F03400909D1074A02EBE3
:100E80008303D3F80012064A0A40C3F800227047D1
:100E90000022803352F82330FFDE00BF002584504B
:100EA000F0F8FCFF2DE9F04F804690F804A05020A8
:100EB000664F0E4600FB0A70416885B049B113F0D9
:100EC000020304D0836B002B00F0B2800123009357
:100ED00000E000914FF0500909FB0A73DB6CD90662
:100EE00000F1A6804FF0010BB3180293029BB342AE
:100EF00000F0A78006F06043039398F80450D8F8F8
:100F0000004009FB05739A6B9AB9039BB3F1005F2C
:100F100040F09980019200F0E5FD09FB0572D16C6B
:100F2000204601F0010101F034F828B900F0E2FD9B
:100F3000E3E701230193EEE7516C33460029BCBF80
:100F4000D4F84C155164019A42B109FB057130780F
:100F5000D1E90E23D054D1E90E3213441BB1C4F8A9
:100F60004435C4F848B50022C4F82021D4F8201133
:100F7000C4F85821D4F85811C4F85021D4F850219D
:100F80000822C4F80025009AE2B14FF48003C4F8A7
:100F90000433C4F808B000F0ADFD502303FB0A721F
:100FA000516800294BD1D26C120748D503FB0A7354
:100FB0004C33D3E8EF1F21F00801C3E8E21F002AF9
:100FC00036D0F6E7C4F808B0019300F093FD09FBB2
:100FD0000572D16C019B01F001012046019300F0E4
:100FE000D8FF8446019BD4F84C05D4F84425BCF1C5
:100FF000000F0DD19342F0D005EB850507EB0515E9
:10100000D1B100F06FFD2946204601F03EF8C2E75D
:1010100005EB8505934207EB0515F1D10028EFD1CB
:1010200000F060FD2946204601F02FF800F062FD37
:10103000074805B0BDE8F08FC4F80CB0E1E7013611
:1010400054E70448F5E70448F3E700BF3C190020E3
:101050000800AD0B0000AD0B0400AD0B430904D13B
:101060000123034A83409360704700239B60FFDEA7
:101070000025845000F01F0340090BD1084A02EB01
:101080008302D2F80012074B0B4043F00303C2F86F
:10109000003270470022803352F82330FFDE00BF59
:1010A00000258450F0F8FCFF2DE9F84391F830302A
:1010B00005460C4690F804800F6853BB5023DFF8B8
:1010C0005091781C03FB0893DE6C46F00072DA64E2
:1010D00004D03846FFF7C2FFFFF7CCFF6068411C21
:1010E00001D0FFF7C7FE94F82C30012B11D150230B
:1010F00003FB0893E06846F02066421CDE6401D0E2
:10110000FFF7B8FEA068431C03D0FFF7A7FFFFF767
:10111000B1FF94F82F0038B950223D4B02FB083341
:10112000DA6C42F08072DA6494F82CC094F82D10D6
:1011300094F82E202B68D4F828E041EA0C010A43E9
:10114000E668D4E90198C3F824E5C3F86C2550B9E2
:10115000BCF1010FC3F80C75C3F8149504BFC3F8B4
:101160000885C3F81065D3F8682503F26458012A8E
:1011700008BFDA60D3F86425012A13D1082149F6A3
:101180004046244FC3F8001547F001075A60D8F8CD
:1011900000309BBB2B68D3F88024C3F88024002246
:1011A000C3F8002500212B6894F83220C3F81011F1
:1011B000D3F81001C3F82011D3F82001C3F824118B
:1011C000D3F82401C3F84411D3F84401C3F85811EB
:1011D000D3F8581143F307335201002BD2B212DB7C
:1011E0000D49C81880F800230122580903F01F0395
:1011F00002FA03F341F82030BDE8F8834020B847F5
:10120000013EC4D1C6E7054903F00F03CA54F3E712
:101210003C1900202034000000E100E014ED00E063
:1012200000F01F0340090BD1084A02EB8302D2F8F9
:101230000012074B0B4043F00203C2F80032704724
:101240000022803352F82330FFDE00BF0025845097
:10125000F0F8FCFF2DE9F3479046502290F80490F7
:10126000514C02FB09FA04EB0A070D4697F84810A7
:101270000646002940F0858009EB890004EB001048
:1012800004F05FFC2B69AA6944F80A306B69BB6300
:1012900002B1013A502303FB0943DA632A6A042AA4
:1012A00081BFEA699A610022DA6195F83130B8F1BC
:1012B000000F37D083F001073F0233B1502303FB07
:1012C0000943DA6C42F00102DA64502303FB09445B
:1012D0000123C4F8048084F848303468D4F84C21E1
:1012E00012BB29463046FFF7DFFE08220023346890
:1012F0008DF80730C4F800250DF10702C4F8442525
:10130000C4F8483501230A25A360E360D4F85831B6
:10131000002B38D1254B402043F001039847013D75
:10132000F4D128E04746C8E708224FF06409C4F822
:10133000002563601D4B43F0010AD4F84431F3B932
:10134000D4F82431DBB94FF42070D047B9F101094A
:10135000F3D14B460022C4F84C21D4F84C11C4F808
:101360001021D4F81011C4F84421D4F84411C4F861
:101370000025002BB5D10E4802B0BDE8F08701234F
:10138000E8E70C48F8E70023C4F820319845D4F882
:101390002021C4F80035084B08BF00231F433368E1
:1013A0000648C3F80473E7E73C1900202034000026
:1013B0000100AD0B0C00AD0B10020A000000AD0BDC
:1013C0002DE9F04784460F469E4616460579002AC9
:1013D00051D04FF0500ADFF8AC80D0F800900AFBF3
:1013E000058ADAF8044074B96BB9DAF82C50002D8C
:1013F00043D1CAF82C20FFF755FD0446CAF82C50FB
:101400002046BDE8F0871EF0030F07D07346324632
:101410003946BDE8F0476046FFF744BD07F060433A
:10142000B3F1005F4FF0500414D104FB058400F0C9
:1014300059FBE26A1AB1144C00F05CFBE0E7C4E926
:101440000A7605EB8505484608EB051100F028FEF5
:101450000E4CF1E704FB0584A36B83B100F042FB63
:10146000E36A002BE7D1E36C012243F00203C4E9F5
:101470000A76E364E5E7064CC2E7034CC0E7054C97
:10148000BEE700BF3C1900200B00AD0B0000AD0B08
:101490000600AD0B0A00AD0B2DE9F8435023067989
:1014A000284D046803FB0653D4F80473DA6AC4F8C1
:1014B000087322B92448C4F80473BDE8F88306EB26
:1014C000860005F14C024FEA001802EB0012D2E848
:1014D000EFCF4CF0080CC2E8E0CF0028F7D1012292
:1014E000E26031B3D96C01EA02094946204600F0B6
:1014F00050FD0028FAD000F0F5FAB9F1000F1CD128
:10150000D4F8203153B10123E360D4F85831002BD3
:10151000FBD0204605EB080100F0B7FD00F0EAFA29
:101520000023C4F82031D4F82021502202FB0655B4
:10153000EB620648C4F80473BFE7D4F85831002BB7
:10154000E7D1EBE73C1900200500AD0B0000AD0B27
:101550002DE9F84390F804804A4E08EB88073F01D4
:1015600007F14C0504683544D5E8EF3F43F4805259
:10157000C5E8E02F0028F7D1DA047FD44B0705D562
:10158000502303FB08639B69002B79D03E4B374403
:10159000C4F808330823C4F800350023C4F8103118
:1015A000D4F81021C4F84C31D4F84C21C4F844319B
:1015B0000A03D4F844318B0303F4804302F400524D
:1015C0004903134301F400410B43D5E8EF2F1A43BD
:1015D000C5E8E12F0029F8D14FF0500909FB08694F
:1015E000D9F80830EBB9D9F8043093B9502303FB8C
:1015F0000863DB6CD8043FD5D5E8EF3F23F47F03C5
:1016000023F47043C5E8E23F002AF5D11F48BDE846
:10161000F8830321384600F0C9FCD9F80830002BC4
:10162000E4D0D4F80433590713D5502303FB0863DF
:101630005A6872B1DB6C1A030BD5D5E8EF3F23F47F
:101640000023C5E8E23F002AF7D10621384600F022
:10165000ADFC502303FB0863DB6CDB040CD5D4F832
:101660004C310BB901232360502303FB08667368D8
:1016700013B1054BC4F804330548C8E70548C6E76D
:101680000548C4E73C19002010020A000200AD0B17
:101690000000AD0B0B00AD0B0800AD0B2DE9F84FB2
:1016A000502390F804905B4E046803FB09631746CF
:1016B000DA6CD4F804A350038846C4F808A300F1F8
:1016C000A38001F06041B1F1005F40F09F80996814
:1016D00059B15B68002B40F08380D4F810110029C9
:1016E0007ED0C4F81031D4F81031502505FB0965BF
:1016F000EA6909EB890BC5E902874FEA0B1B002A4F
:1017000049D0974235D84FF000093A46A96940467A
:10171000C5E9029904F0F0F9EA69A869D21BC11978
:10172000EA6104F0B3F96B6823B93B48C4F804A339
:10173000BDE8F88FEB6C5E44990414D5374B5B44DD
:10174000D3E8EF1F41F48021C3E8E21F002AF7D15C
:101750003A464146304600F03AFC4A463146204679
:10176000FFF756FBE1E73A464146304600F02FFCD2
:10177000DBE74046A96904F0BFF9EB696B6200231F
:10178000EB61264B5B44D3E8EF1F41F40021C3E833
:10179000E21F002AF7D1502303FB0963586ADA6875
:1017A0009968DB6C121A0144C4F83415C4F8382562
:1017B000DA04BAD5194B5B44D3E8EF1F21F480213A
:1017C000C3E8E21F002AF7D101232360D4F8443193
:1017D000002BAAD00023C4F84431D4F84431A4E744
:1017E000502303FB0966336993B95304C4F8348565
:1017F000C6E90487C4F8387597D5D4F8003243F0A9
:101800002003C4F8003290E705488FE705488DE7CC
:1018100005488BE73C1900200000AD0B881900201B
:101820000500AD0B0A00AD0B0B00AD0B50232DE9ED
:10183000F0413E4D90F80480046803FB0853D86CD7
:10184000D4F8007200F48220B0F5805F05D009B1B1
:101850000022DA613648BDE8F081D4F80463C4F8A8
:10186000086309B9BB0655D4D4F8003223F020032D
:10187000C4F800324FF4A11308EB8801090101F10B
:101880004C072F44D7E8EF0F1843C7E8EC0FBCF123
:10189000000FF7D12AB9502303FB08535B68002BD4
:1018A00040D1244BC4F8083301236360D4F8443199
:1018B000002BFBD00023C4F84C31D4F84C21C4F8E1
:1018C0001031D4F81021C4F84431D4F844315023F5
:1018D00003FB0853DA6C12F400421ED1DA61204691
:1018E00000F089FB502303FB08550023AB602B61FC
:1018F000D7E8EF3F23F47F0323F47043C7E8E23FC8
:10190000002AF5D126F4202626F404760A48C4F8E5
:101910000463A0E74FF48033AEE72046294400F08B
:101920007CFBDCE701236360F0E700BF3C1900208B
:101930000500AD0B10020A000000AD0B2DE9F843C5
:101940002F4A03680679C3F8082343F30733002BB3
:1019500004460DDB01215A0903F01F03994002F1EF
:101960002003284A42F82310BFF34F8FBFF36F8F35
:10197000012220461146FFF759FF01212046FFF7BB
:101980008BFD50212279204D236801FB0252D46C3B
:10199000D3F80C05E201D3F81495D3F80875D3F801
:1019A000108509D54FF0FF32C3F80C25C3F8142574
:1019B000C3F80825C3F81025A30116D5411C01D092
:1019C000FFF72EFCB9F1FF3F02D04846FFF728FC95
:1019D00022010AD5B8F1FF3F02D04046FFF720FCB4
:1019E0007B1C02D03846FFF71BFC5023002203FB70
:1019F0000653DA6483F848205A60BDE8F88300BFD4
:101A000010034A0000E100E03C19002010B550240A
:101A100002790E4B04FB02335B689BB90368D3F871
:101A20000025082A05D011B1D3F83C350B600848D1
:101A300010BDD3F810213AB111B1D3F83C350B6089
:101A40000448F5E70448F3E70448F1E73C190020AF
:101A50000C00AD0B0000AD0B0800AD0B0B00AD0B87
:101A60002DE9F34105461646FFF718FE184B0446CC
:101A7000984226D10321284695F80480FFF768FD97
:101A8000144FB84201D0A0421FD15022124B02FB8A
:101A900008335B68ABB90193284601A9FFF7B6FF8D
:101AA000B842F9D00D4B98420AD0019BB34207D3FC
:101AB00001222846114602B0BDE8F041FFF7B6BE4C
:101AC000074C204602B0BDE8F0810446F9E700BFAC
:101AD0000000AD0B0B00AD0B3C1900200C00AD0B52
:101AE0000800AD0B72B6024A1368013313607047E9
:101AF0008C190020034A1368013B136003B962B6D6
:101B0000704700BF8C190020003A18BF012200392D
:101B100018BF012103688900074841EA42011863A0
:101B200059605A6842F001025A60BFF34F8FBFF309
:101B30006F8F0020704700BF04AAFF000722024BEE
:101B4000C3F80423704700BF00300050084BD3F89F
:101B50000801D3F80021003818BF012080000AB125
:101B600040F00100D3F804310BB140F0020070479F
:101B7000003000500022074BC3F80021D3F80011B9
:101B8000C3F80421D3F80411C3F80821D3F80831AD
:101B9000704700BF0030005000231720094A03F5AA
:101BA000C0710133202B42F82100F8D10023172007
:101BB000044A03F5E0710133202B42F82100F8D1EB
:101BC000704700BF0030005010B59DF80840C00BB2
:101BD00043EA0423064CC90B43EA0213884200D9A6
:101BE00010BDC2B202F5C07244F822300130F5E7F0
:101BF0000030005010B59DF8084000F1604043EA05
:101C0000042301F16041074C400B490B43EA0213E6
:101C1000884200D910BDC2B202F5E07244F8223009
:101C20000130F5E700300050C0F30E03C3F5004368
:101C3000B3FA83F3C3F11B03064AC0F3C730DBB228
:101C400040F4807043F48073C2F80005C2F8043594
:101C5000704700BF003000504303014818447047EC
:101C6000FF1FF81F054BC0F30730090241F0300198
:101C700000F5007043F82010704700BF003000509E
:101C8000044BC0F30730090200F5007043F8201040
:101C9000704700BF0030005008B5FFF757FF044BF6
:101CA000162118600348BDE8084000F036B900BFAF
:101CB000D81F0020263400000C22014903F01CBF6D
:101CC000D81F002010B501F001FB044690B901F0C7
:101CD00099FF044680B90A4A2E21D368094823F0A7
:101CE00008031B041B0C43F0BF6343F40033D360B1
:101CF00000F013F9204610BD45F22354FAE700BF67
:101D000000ED00E03C340000024B1860024B002064
:101D100019607047E81F0020E41F00201FB5274C02
:101D2000426923685A6282699A62C269DA62026A07
:101D30001A63426A5A63826A9A63C26ADA63026BFE
:101D40001A64426B5A60826B9A60C26BDA60026CF2
:101D50001A61426C5A61826C9A61C26CDA61026DDE
:101D60001A62826D5A65C26D9A65026FDA65026EFB
:101D70001A66826E5A66426F9A66EFF388825A64D8
:101D8000EFF389829A644268DA64EFF394821A6509
:101D9000026801A81A67FFF78FFF2368019ADA66C5
:101DA00001221A70064B1C68640864002046214614
:101DB0002246234603F085FF04B010BDE81F002033
:101DC000E41F002000B5A1B001A8FEF7E3FD029BCF
:101DD00063B15B060AD4019B23F00203052B05D1F6
:101DE000044B1B6813B101A8FFF798FF21B05DF801
:101DF00004FB00BFE41F0020BFF34F8F0549064BD3
:101E0000CA6802F4E0621343CB60BFF34F8F00BF98
:101E1000FDE700BF00ED00E00400FA05F8B54368F7
:101E20000C2B01D00220F8BD4B68042BFAD14FF0E7
:101E3000FF3304680D6821682B600029F2D0A26886
:101E4000002AEFD00623012001F092F90028E9D101
:101E500061681F4ED6E90037994230D3A2681F440B
:101E600001EB020CBC452AD803F17F4303F5004384
:101E7000B3F5805F20681FD20A43930725D1154B25
:101E80009C4522D8091AA2680B1812B900202860B4
:101E9000C9E7EFF31082012A08D11B68BFF34F8F07
:101EA00040F8043BA368043BA360ECE772B61B68F0
:101EB000BFF34F8F62B6F3E703F01EFEE6E7013093
:101EC000042806F10806C5D1ACE70320ABE700BF44
:101ED0006C3400000090FF004FF47F03D3F8300112
:101EE000D3F83431BFF34F8FC0F30B00A0F10903D7
:101EF0005842584170474FF47F02D2F83031D2F83F
:101F00003401BFF34F8FC3F30B03092B03D1431EDF
:101F100058425841704700207047FEF7CDBD012060
:101F200070476FF003007047002382B0019301985F
:101F300002B070476FF003007047002382B0019336
:101F4000019802B07047022814BF6FF00300002010
:101F50007047FEF72FBE30B501EB8202914200D1EF
:101F600030BD51F8044B04F07F037F2B4FEA14443B
:101F700008BF4FF0FF33032CF0D8DFE804F0020471
:101F800006080360EAE74360E8E78360E6E7C360CA
:101F9000E4E70346D0F8580130B931B9D3F820014D
:101FA000003818BF012070470120704730B5044643
:101FB0000D4685B010220021684603F0C2FDD4E929
:101FC000001368468DF80050984705B030BD7FB5C6
:101FD00004460E46154600211022684603F0B1FD66
:101FE000012368468DF80030CDE90165D4E900137E
:101FF000984704B070BD10B50446FFF773FDD4F8E0
:10200000583133B1D4F8043313F4800308BFC4F853
:102010000035BDE81040FFF76DBD70B5D0F83C65E8
:102020000446052E0D4604D80522AB21A86903F00D
:1020300088FD0522AB69C4F83435C4F83825002280
:10204000C4F81021D4F810110121E162D4F8101164
:102050000029FBD0C4F84C21D4F84C11C4F810214D
:10206000D4F81021D4F83C259642EA6103D1052E1C
:1020700002D90023EB6170BD5A1E043312F8011F10
:10208000AB29F8D19A42F9D1F3E7D0F8583133B1FE
:10209000CB6CC3F30032DB0458BFC0F80025704797
:1020A00070B5CE6C0D4606F001010446FFF771FFD6
:1020B00038B94FF4800346F00406EE64C4F80433E4
:1020C00070BDD5E90A365AB1296CEA6B761A964288
:1020D00028BF164619443246A86B03F00DFDAB6BC2
:1020E0004FF0FF326A641BB1C4F84435C4F8486548
:1020F0000023C4F82031D4F82021C4F85831D4F892
:102100005821C4F85031D4F850310823C4F80035B0
:102110004FF48003C4F804330123A360D0E74B6875
:1021200030B513F01F052DD102680C681068C0F39C
:102130000720844226D25068556094600C7C23F0BE
:102140001F0304F001041C438B7CDB0003F0180325
:102150001C434B7C5B0003F006032343D3608B6876
:10216000013B23F01F04CB685B0003F00E03234305
:1021700043F0010313615060BFF34F8FBFF36F8FC4
:10218000284630BD0120FCE7036800205A68C9B228
:1021900058609960D86018615A60704770B50546FC
:1021A000002403681E68C6F30726B44201D100204C
:1021B00070BD21462846FFF7E7FF0134F5E7C0036D
:1021C0007047C00300F5FF407F3070470020704724
:1021D0001F2070474FF40040704700F57F40C0302B
:1021E00040037047402070475F2070474FF4005015
:1021F00070470020704708B5FFF7E4FD72B620BFB6
:10220000FDE7002070470020704770470346012B10
:10221000084670B5114607D0042B09D0002B31D1E8
:10222000BDE87040FFF7FABDBDE8704000F02CB883
:102230004368082B01D0022070BD5468042CFAD1E9
:102240004FF0FF3305681668296833600029F2D023
:102250006B68002BEFD026237422012000F088FF4A
:102260000028E8D1224623230120696800F080FF7E
:1022700004460028DFD1D5E90001FFF745FD3060B5
:102280002046D9E70320D7E743680C2B01D0022072
:1022900070474B68042BFAD10B6801210268196062
:1022A00011680131F3D10221906819600028EED144
:1022B0001860704730B50C46154685B038B139B155
:1022C000FFF72BFE041E03DA204605B030BD04469E
:1022D00040F60D23ADF80E3009230B4901A805F097
:1022E0000F028A5C2D091A54013B012BF7D147F6E6
:1022F00030030C21ADF80430FFF70FFE0028B4BF07
:1023000004462418E0E700BF8C34000008B5154BE4
:1023100083F30A88144800F0C4FF00BBFFF7D2FC27
:10232000E8B926211148FFF7F8FDFFF762FFB0B9C1
:10233000FFF767FF78B9FFF768FF00F018FF352156
:102340000B48FFF7EAFD00F0ABFD00F0EDFB00F0FD
:10235000B7F8002008BDFFF756FF0028EBD000F0CB
:1023600003FEF2E700040020901900209C340000D6
:10237000C234000030B5094C0246616800230846AB
:1023800040B105686D68954205D11BB182686060F7
:102390009A60816030BD03468068F1E7141A00201E
:1023A00038B504462AB10B689B68DB0512D50020BE
:1023B00038BD0B4B1D680DB900F0D6FD00222B680F
:1023C000996934338A4203D053F8040FA04204D1F0
:1023D0009142ECD16FF0FC00EAE70132F2E700BF76
:1023E0001C1A002070B504460E4615460021302206
:1023F0000C3003F0A6FB064B20461B68A66063600A
:10240000656100F098FE00232061236070BD00BF6D
:102410001C1A0020034B186810B1006800B1406816
:10242000704700BF1C1A0020064B10B51C680CB981
:1024300000F09AFD23689B6813F4406F14BF0120DD
:10244000002010BD1C1A00202DE9F84390460746D5
:102450000C46FFF7E9FF024624B96FF080042046DE
:10246000BDE8F8836300F8D5144B04F01F0153F85E
:102470002150002DF1D02B6829465868FFF790FFB6
:10248000B0B9C4F30721284600F070FD04460028C7
:10249000E3D1EFF3108972B600F05AFE064689F3D5
:1024A000108840B142462946FFF79CFF3E60D6E7C0
:1024B0006FF08104D3E76FF08204D0E79419002015
:1024C0002DE9F04100F043FE0023134E134F7360DB
:1024D0007B6000F0E9FADFF84880304600F022F82F
:1024E0000446A0B139468023424600F0A1F80546D3
:1024F000204600F080FD2068211D00F041FB08B15E
:1025000000F032FD2946204600F07AFAE5E7BDE802
:10251000F04100F08BBA00BF201A0020141A0020EE
:1025200094190020F8B5054608B900F01DFD3B4E92
:10253000346814F1310F6ED8394B196804F1300347
:102540008B4268D2E369A26903EB83030E32134422
:10255000226A02EB42021344626AC2EBC2021344D3
:102560009B00E31801D2994201D200F0FDFC2368E0
:102570002C4A1B0C1B04934201D000F0F5FC23886D
:10258000B3F5817F01D300F0EFFC6368002B01DA23
:1025900000F0EAFCD4E90A239A4201DD00F0E4FCF1
:1025A000A36813F4406F22D11F4A176807F1200374
:1025B00013601E4A1268934201D900F0D5FCE3690A
:1025C000A26903EB83030E321344226A3C6002EBE0
:1025D00042021344626AC2EBC2021344326802EB45
:1025E00083026B683260FB616F603846F8BD6F68CC
:1025F000002FD9D03B689A6812F4406F09D0E16A85
:102600009A6A914205DBA26ADB6A9A4201DC00F019
:10261000ABFCFF69ECE70027E7E700BFAC10002048
:102620000035000000005F5FA8100020FC340000AF
:102630002DE9F74F0F4690460646009300B109B9C1
:1026400000F092FCD6F800A0DAF818200AF138035E
:1026500003EB820BDAF81C40204B1D6854B10C22AE
:1026600002FB04541C601E4B1B689C4201D900F005
:102670007BFC2C4625464FF00009DAF81C204A4521
:1026800000D91CB9002003B0BDE8F08F142303FB70
:1026900009B20023C5E900269268AB60930516D500
:1026A000B8F1000F02D0009B802B03D0019200F004
:1026B0005BFC019A12F0E00FD0B202D158F8202052
:1026C0001AB1019000F050FC019848F820507A6847
:1026D00009F10109AA607D600C35CEE7A410002045
:1026E000F83400002DE9F04F93B000935E4B07469D
:1026F000D3F800B00BB2002B0D461646C1F30269A9
:10270000C1F3024A04DA6FF0800013B0BDE8F08F25
:102710008B42C36001D10020F7E709EB0A03042BC9
:10272000F1D8CC0F64014FEAC90831464246DBF8C4
:10273000040044F0020300F01BFD01460028E2D132
:10274000202202A803F0FDF94246314602A84FEAD2
:10275000CA0603F0D1F932460099DBF8040044F0D0
:10276000060300F005FD80460028CCD1014620225A
:102770000AA803F0E6F9324600990AA802AE03F06F
:10278000BBF9334608F10108C14514D91A46C446BD
:102790000DE0D2F808E0D16818687144884203D28D
:1027A000596808448645AED30CF1010C0832CC457B
:1027B000EFD10833E6E715F0006F18BF2024102290
:1027C000002107F11C0003F0BCF907F118081022E2
:1027D000002107F12C0003F0B4F908EB890944F05B
:1027E0000203C84512D1202C27D1002D02DBC5F3EE
:1027F000C0456C0107F128050AAE05EB8A0A44F0D2
:10280000060455451BD1009BFB6784E77268DBF823
:10281000040056F8081B019300F0AAFC00287FF47E
:1028200072AF56F8042C019B48F8042F56F8082C78
:10283000C8F83000C8F82020D3E70024DAE772682F
:10284000234656F8081BDBF8040000F091FC002832
:102850007FF459AF56F8043C45F8043F56F8083C5D
:1028600028642B63CDE700BF1C1A00202DE9F0413E
:102870001F461A4B0D461646D3F8008000F088FB21
:10288000044608B900F070FBE368002B01DA00F0A1
:102890006BFB032D01D900F067FB04EB8504E569B0
:1028A000E36CED1A16D006233A463146D8F80400F8
:1028B00000F05EFC08B100F057FBBD4228BF3D466A
:1028C000E36CE16B2A461944304603F015F9E36CDA
:1028D0002B44E3642846BDE8F08100BF1C1A0020A9
:1028E0002DE9F0411D461A4B0F461646D3F80080DD
:1028F00000F04EFB044608B900F036FBE368002BFD
:1029000001DA00F031FB032F01D900F02DFB04EBBD
:102910008704E36AE26E9B1AAB4201D200F024FB0B
:1029200002232A463146D8F8040000F021FC08B101
:1029300000F01AFBE36EE06D2A463146184403F0BE
:10294000DBF8E36E00202B44E366BDE8F08100BFB6
:102950001C1A00202DE9F04105464FF001080E4EEB
:102960000E4B37685C681CB928463760BDE8F081BB
:102970002268936813F400700CD16369012B09D0AD
:10298000D368346023B19847002801DA00F0ECFAEC
:10299000C4F81480E469E6E71C1A0020201A00201D
:1029A00038B5044610B96FF0800038BD8368002B3D
:1029B000F9D01A68002AF6D05D68002DF3D00B4BD1
:1029C000A86168691D6020B92B68DB6853B90123D1
:1029D0006B61A36804F10C001B681B699847012315
:1029E0002360E2E798470028F1DADCE71C1A0020B0
:1029F0004268024B08461A60704700BF1C1A00204C
:102A00000022036810B5C0E905229A68044612F452
:102A1000406F07D0120503D5D3E90A0100F034F85E
:102A2000014B1C6010BD00BF1C1A002038B5124BB2
:102A30001B681C68A36813F4406F01D100F094FA7E
:102A400000F05EF9226B23690C49134423F007035D
:102A5000A3F1080543E9021185F30988073222F042
:102A6000070282F30B88BFF36F8F054BE2680549BD
:102A700000F05BFC002038BD1C1A0020A5EDF5FE1F
:102A8000F80B002055290000014BC3E900017047F5
:102A9000281A0020034BD3E900308342C8BF00202E
:102AA000704700BF281A002008B500F01DF9034B3D
:102AB000986000F01FF980F3888808BD00ED02E0FF
:102AC000EFF308807146EFF30982EFF30B830CB448
:102AD00006B400F005FA8646009900F0080001F0FF
:102AE0000801401A02DC12DB04B070471EF020031C
:102AF0001CBF2DE9F00FBDF1080D0A4C25462646F6
:102B00002746A046A146A246A34630B4704704B06B
:102B100030BC1EF020031CBF1DF1080DBDE8F00FF6
:102B200004B07047A5EDF5FE084BDA6882F07F42ED
:102B300082F47F0242F48042DA6000221A765A76EA
:102B4000DA76DA77602283F82220704700ED00E021
:102B5000009A0A4B9A420FD1012290430146024645
:102B60000346044605460646074680468146824699
:102B70008346844686460447FEE70000A5EDF5FE41
:102B80002DE9F041044618B943F6DA30BDE8F0818A
:102B90000029F9D08368002513F4406F14BF012386
:102BA0000023134F43F00203DFF848800B6000F16D
:102BB0003806236AAB4201D80020E7E71421A36955
:102BC000E26906EB830301FB02330C226A43991886
:102BD0008968090709D59B58BB4201D04345D3D129
:102BE000186810B10121FFF73DF80135E1E700BF9A
:102BF000BC100020B410002070B5324C86B03248B2
:102C0000FFF7CCFA236801255A1C01932F4B226051
:102C1000DA681B694FF44076039300232A4801A920
:102C200002920495ADF814608DF81630FFF777FA2C
:102C300018B143F6DA3006B070BD23688DF816007F
:102C40005A1C0193224B20480293224B01A9CDE943
:102C500003352260ADF81460FFF761FA0028E8D16F
:102C600023688DF816005A1C01931B4B16480293DB
:102C70001A4B01A9CDE903352260ADF81460FFF7C6
:102C80004EFA0028D5D123688DF816005A1C0193FE
:102C9000134B0D480293134B01A903930223049392
:102CA00040F201132260ADF81430FFF738FA044601
:102CB0000028BED12A4629460348FEF725FF2046B4
:102CC000B9E700BF301A0020B010002078350000AE
:102CD000E0350000C05E0000400600004006000035
:102CE000000C0020200C0020014B1868704700BF2A
:102CF00078350000014B1B68186870477835000074
:102D0000014B1B68586870477835000008B5FEF71E
:102D1000C3FFFEF72FFF0A4B5A68103AD3B21206D0
:102D200009D401215A0903F01F03994002F16003FD
:102D3000044A42F82310BDE8084000F015B900BF6E
:102D400000ED00E000E100E00020034BD8765A6A75
:102D500042F470225A62704700ED00E00349044BD0
:102D6000CA68002092B21343CB60704700ED00E0C8
:102D70000800FA0500224FF0FF300D4B02F1A001D0
:102D80000132102A43F82100F8D1D3F88022002024
:102D900022F00802C3F88022D3F88022D3F88022E0
:102DA00022F40072C3F88022D3F88032704700BF4B
:102DB00000E100E008B5FEF7C1FE0822024BC3F8AF
:102DC00080211A60002008BD00E100E0064BD3F826
:102DD000D02022F00102C3F8D020D3F8D02042F056
:102DE0000202C3F8D020704700ED00E037B501249F
:102DF000FEF7D2FE134D2246052347F6FF71002051
:102E00000094FEF7E1FE224607234FF000500E49E2
:102E10000094FEF7EFFED5E901010723002200949C
:102E2000FEF7D2FE07230022084909480094FEF766
:102E3000E1FE2969E8680139FEF7F6FE002003B0DB
:102E400030BD00BF78350000FF7F0020FFFF03206A
:102E50000080002038B500240E4D002155F8040BE9
:102E60000134FEF70DFF1D2CF7D10020012240F2A6
:102E70000111094BC3F88004C3F88424C3F8C004CB
:102E8000C3F8C424054AC2F840154FF48072C3F851
:102E9000402438BD0435000000300050009003503D
:102EA0000122014B1A607047341A002010B5044605
:102EB000094B2289186861680623406800F058F9B8
:102EC00028B9064B1B68012B01D1FFF7A3FA6FF05D
:102ED0008603236010BD00BF1C1A0020341A002096
:102EE00001F00C0370B50C2B0CBF154605464A06C5
:102EF0000C461ED58B0658BF2835AB6913F8026CFB
:102F000084F00803C3F3C003C6F38012934201D0D8
:102F100000F02AF816F0A00F1CD176B1032E15D0C0
:102F200032461C210D48FFF7C5F96FF083032B6073
:102F30000AE000F019F82026E2E7FFF7C1FA04469C
:102F40000146074800F0EDF9204670BD2846FFF71E
:102F5000ADFFF9E732461F210248E4E78C35000057
:102F6000F80B0020A8350000FFF745B903689A6800
:102F7000DB6812F4806F05D18B422CBF00206FF00C
:102F8000FA0070478B420CBF00206FF0FA007047C8
:102F900010B500F0D3F8044600F0E1F850B9FFF79F
:102FA00039FAA3685B681B685B68834218BF00241A
:102FB000204610BD0024FBE738B5054648B1FFF7B1
:102FC00069FDB5EBD07F044601D0FFF7CDFF204669
:102FD00038BDFFF71FFAF4E7002310B500F128020F
:102FE00052F8041F19B1C16F146C19444C600833B6
:102FF000202BF5D110BD70478230012808B506D8C6
:10300000FFF712FA18B9BDE80840FFF7ADBF08BDD9
:10301000F8B506460D46FFF7BBFF044608B9FFF7B3
:10302000A3FFA7680FB9FFF79FFFE368991C20D0A3
:103030005A1C21D1A5B315F1820F13D102232360AD
:10304000EFF3108672B629462046FFF7D1FC0546FD
:1030500086F310882368022B24D1204600F081F8E3
:103060002846F8BD15F1830FEAD0FFF77DFF002554
:10307000E6E702232360FAE7002BF6DB2046FFF7A2
:10308000ABFF3B689B689B0501D50223236015F1CC
:10309000810FD5D16369002BD2DBFFF765FFCFE746
:1030A0003546F4E700232360DAE708B5FFF7A3F815
:1030B0006FF0830008BD2DE9F3410E461746984690
:1030C0000546FFF7B1F9FFF777FF2946024601A849
:1030D000FFF7BAF9044660B943463A4631460198CB
:1030E000FFF700FB044640B16B0002D5019800F0E9
:1030F00038F8204602B0BDE8F0810198FFF750FC97
:103100000446F6E740F20110704770B50546FFF738
:103110008BF906462846FFF72DF9044608B900202A
:1031200070BD014632462846FFF73AF90028F6D12D
:103130002368D868F4E74FF480507047B0F5805F9B
:1031400003D1EFF30B808038704700207047704741
:10315000EFF30B8000F1800383F30B8870470020AE
:103160007047EFF30B83803B83F30B887047704706
:103170002DE9F0410F461546002A5BD0002900F0EA
:103180008D8003F00602062A57D09A0740F1868008
:1031900008249B0648BF44F01204860758BF44F039
:1031A0000404C00709D5EFF39483D9074CBF44F05A
:1031B000040424F0040444F012042246294638464C
:1031C00002F072FBB0BB47E800F205EB0708110EF6
:1031D000120208F1FF3646E800F34FEA13605AD5B1
:1031E0001B0258D5884256D047E800F546E800F65D
:1031F000FEF7ECFF2D0E85424FEA166628D3FEF748
:10320000E7FF864224D82846FEF7DBFF2246C7F1B7
:1032100001010144384602F047FBE0B30135AE42FC
:103220000DD83046FEF7CBFF2246A8EB000102F096
:103230003BFB80B30020BDE8F0810124A9E72846CC
:10324000FEF7BDFF0746FEF7C5FF22460146E1E750
:10325000FEF7C8FF85421ED3FEF7C6FF86421AD886
:103260002846FEF7F9FC2246C7F101010144384621
:1032700002F01AFB78B10135AE4203D83046FEF7B2
:10328000ACFFD1E72846FEF7A8FF0746FEF7AEFFE2
:1032900022460146EBE76FF07F00CCE74CF2DA20E4
:1032A000C9E710B50446FFF791FDFFF79FFD10B188
:1032B00043F6DA3010BDFFF7CDFD0028F8D1FFF757
:1032C0009BFC0028F4D102232360F3E708B5FFF745
:1032D0003BFD10B143F6DA3008BDFFF73FFD002893
:1032E000F8D100F01CF80028F4D162B6FDF704FC18
:1032F000FFF740FD0028EDD1FFF75CFD0028EBD083
:10330000E8E7EFF30880EFF309812DE9F00F6B4652
:103310007246FDF745FB08B0FFF7F8FCFEE700201A
:10332000704704460D46A546284783F3088896460D
:103330000222EFF31483134383F31488BFF36F8FD8
:103340000847000001464154414C204552524F521B
:103350003A2000486172644661756C740D0A004D34
:10336000656D4D616E616765206661756C740D0AEF
:10337000004275734661756C740D0A005573616780
:10338000654661756C740D0A005365637572654618
:1033900061756C740D0A0052657365727665642000
:1033A000457863657074696F6E2000506C61746657
:1033B0006F726D2065787465726E616C20696E74D1
:1033C00065727275707420284952516E293A200036
:1033D000290B00001F1F0000A50D0000610B00005D
:1033E000471F0000531F0000790B0000231F00003F
:1033F000490B0000550B00002D0C0000291F000098
:10340000351F00003B1F00001D00000010000002DF
:103410001C00000111000003030202020000000072
:103420000338FDD87047506C6174666F726D20452B
:103430007863657074696F6E3A0D0A00416C6C2098
:1034400070696E732068617665206265656E2063C1
:103450006F6E66696775726564206173206E6F6E4A
:103460002D7365637572650D0A0000000002FF0090
:103470002C0000003001FF00080000004001FF00A8
:103480000C0000000881FF00F802000030313233E8
:103490003435363738394142434445461B5B313B6E
:1034A00033346D426F6F74696E672054462D4D2022
:1034B00076322E312E312D6E6373311B5B306D0DE4
:1034C0000A001B5B313B33346D5B536563205468EA
:1034D000726561645D2053656375726520696D6115
:1034E000676520696E697469616C697A696E6721C4
:1034F0001B5B306D0D0A000014120020FC1100202F
:1035000018020000004000500050005000800050A1
:1035100000A0005000B0005000E0005000F000504B
:1035200000000150001001500040015000500150B7
:10353000007001500080015000B0015000C00150E7
:1035400000D0015000E0015000F001500000025096
:103550000010025000200250003002500040025083
:10356000006002500080025000A002500090035002
:103570000025845000A0035000800000008000005F
:10358000FFFF0F00007C000000800000556E6B6E96
:103590006F776E2053504D205356432072657175DE
:1035A00065737465643A2000556E6B6E6F776E209C
:1035B000535643206E756D62657220726571756534
:0735C000737465643A2000FA
:1035E0000348044B834202D0034B03B11847704792
:1035F0009C1100209C110020000000000548064B93
:103600001B1AD90F01EBA301491002D0034B03B1E0
:10361000184770479C1100209C11002000000000FA
:1036200010B5064C237843B9FFF7DAFF044B13B10A
:103630000448AFF300800123237010BDA0180020C0
:1036400000000000B05E000008B5044B1BB1044947
:103650000448AFF30080BDE80840CFE70000000059
:10366000A4180020B05E0000A3F5803A704700BFA8
:10367000174B002B08BF134B9D46FFF7F5FF0021AA
:103680008B460F461348144A121A02F05AFA0E4B90
:10369000002B00D098470D4B002B00D098470020FE
:1036A000002104000D000D48002802D00C48AFF3A3
:1036B000008002F071F920002900FEF727FE02F0D9
:1036C00057F900BF000008000000000000000000E3
:1036D000F80B00209C110020A4280020000000000E
:1036E00000000000009A074B9A4208D110B502F082
:1036F0004BFA02F077F906BC96460C46744702F086
:1037000087FA0000A5EDF5FE009A074B9A4208D112
:1037100010B502F045FA02F065F906BC96460C4673
:10372000744702F075FA0000A5EDF5FE0CB4029A9C
:10373000084B9A420CD14FF0004319430CBC10B512
:1037400000F022F802F04EF906BC96460C4674478B
:1037500002F05EFAA5EDF5FE009A044B9A4202D102
:1037600003490868744702F053FA0000A5EDF5FE1E
:10377000145D0000009A034B9A4200D1744702F096
:1037800047FA0000A5EDF5FE2DE9F84304460D4685
:1037900016461F46EFF30583C3F308030BB1FFF78B
:1037A000E3FBDFF834903B46204632462946D9F801
:1037B0000080FFF780FCD9F800300446984506D019
:1037C0009B6901461869BDE8F843FFF721BCFFF784
:1037D00013FC2046BDE8F8831C1A002001680E4A3D
:1037E0000346914215D1C169A2F11022A2F1EF1254
:1037F00091420ED18268012A0BD8C26812B10169C8
:103800008A4206D0586928B19B691B1A5842584110
:1038100070470120704700BF55AA00FF0D4B70B5DF
:103820009E68A6B13046FFF7D9FF044678B9F36821
:103830006BB935690DB9204670BD2846FFF7CEFF3C
:1038400028B9EB68B34202D12E462D69F2E7012474
:10385000F1E700BF381A00202DE9F041394E3468F5
:10386000F368D4B1B468C4B1002861D000295FD036
:1038700001FB00F5B5FBF0F0884259D1291D57D85E
:10388000AA070DD025F0030204321C4603E061684C
:1038900091424FD2A469002CF9D12046BDE8F081B5
:1038A0002A46F2E7891A232904F12007D4E9050CF6
:1038B0001AD80123A360A0B1C0F818C0A36903B14E
:1038C00058610023C4E905333369DB0702D5FFF7EC
:1038D000A5FFA0BB2A46002138463C4602F031F93C
:1038E000DBE7C6F80CC0E9E702F1200804EB0803A7
:1038F0002039C3E9011E2169DFF84CE0DC60196161
:1039000044F808E0AEF1102EAEF1EF1EC3F81CE053
:1039100001B1CB60C3E9050C40B18361996901B184
:103920004B6101212361C4E90121CAE7F360F5E796
:103930000024B2E7D4F808E0BEF1000FB2D00120B5
:1039400002F016F8381A002055AA00FFF8B505460F
:1039500000283AD0364E3368002B36D0B268002AA1
:1039600033D0834203D872681344984202D30120B3
:1039700001F0FEFFA0F120042046FFF72FFF0028F2
:10398000F5D155F8183C012BF1D145F8180C55E943
:103990000570DFB1BB68CBB955F81C2C7B682032B1
:1039A00013447B60386100B1C760202200212046AB
:1039B00002F0C7F8386908B183682BB333699B07F5
:1039C00003D5FFF72BFF0028D1D1F8BD40B38368A2
:1039D00033BB426863681344203363600369D4E9EE
:1039E0000521236192B9B9B9426981696261A16116
:1039F000A2B19461A26902B1546103B1DC602022DA
:103A0000002102F09EF8D9E73C46E2E79161A16906
:103A10000029E9D04A61E7E7F160F8E7F460E9E7F7
:103A2000F36845F8083C03B15C61F460C6E700BF89
:103A3000381A002038B50D461422002104461248D9
:103A400002F07FF81149124800F02CF8232D1AD902
:103A500014F003031FBF043DED18C3F10403E41881
:103A60002A460021204602F06CF8074B094AC3E9B8
:103A700000459C602260A2F11022203DA2F1EF12CD
:103A80006560E261DC6038BD381A00204D39000005
:103A90005938000055AA00FF014B1B68184700BFAA
:103AA000C4100020024B1860024B002019607047C0
:103AB000C8100020C410002010B50A46044619B1F1
:103AC000024B00211B68984710BD00BFCC1000209E
:103AD000074B0A465978022906D11978072903D1DC
:103AE0000146181D02F0DAB86FF08800704700BF79
:103AF0004C1A002010B5124C2378590744BF23F00C
:103B00000403237023789A0705D500F063F823781F
:103B100023F002032370637813B10A4802F0CFF850
:103B20000023042107486370FFF7C6FF2378DB07F3
:103B300005D502F0B0F8237823F00103237010BDFF
:103B40004C1A0020501A002038B51C4D6A782B788A
:103B5000022A01D1072B12D0D80713D52B78990749
:103B600007D400F02FF82B78044643F002032B70A3
:103B700088B96A782B788AB12B785A0719D500242E
:103B8000204638BD02F085F82B78044643F0010347
:103B90002B700028E2D0FFF7ADFFF1E7DB07EBD594
:103BA000074802F079F8022304466B700028F2D12E
:103BB000E2E743F004032B70E1E700BF4C1A00205A
:103BC000501A00200122024B002083F88025704704
:103BD000541A00202DE9F041094C202526464FF0CB
:103BE000010803272046C4F82080277702F034F824
:103BF000013D04F12C04F5D186F88055BDE8F08133
:103C0000541A002010B50C4C236813B10B4B1B68E1
:103C10002BB900F089FC30B90122084B1A6001234E
:103C20002360002010BD0138062801D9044810BDCA
:103C3000044B53F8200010BDF01F0020EC1F0020A3
:103C4000FE8FFFFF185D0000144B2DE9F0430028A4
:103C500014BF04461C46124F236883B0BB4219D0E0
:103C600016460D4620464FF4147104F1040900F085
:103C700047F804F58E78484600F0CEF8404600F04C
:103C800019FA2B464A4640460649009600F034FB96
:103C900008B92760002003B0BDE8F083F41F0020BE
:103CA000A5BCC95A9D3E000070B50D4C1D460028AC
:103CB00014BF064626460B4B306882B098420DD1A1
:103CC00006F58E70002633460096144600F03EFB43
:103CD000002818BF34462C6002B070BD0248FBE7D4
:103CE000F41F0020A5BCC95AE88FFFFF38B131B1DD
:103CF000002201440346013081421A70FAD1704714
:103D000038B131B1002201440346013088421A70B3
:103D1000FAD170472DE9F043202B1D460646884610
:103D200091468BB026D8DBB202AF8DF80480B04646
:103D300058F8041B8DF8053021B9404601F038F9D8
:103D4000044640B9012302224046336001A901F034
:103D500043F9044638B138462021FFF7D1FF204609
:103D60000BB0BDE8F0832A464946404601F034F9DD
:103D70000446F0E702AF1946104600233A4601F028
:103D8000B1FA04460028E6D12023B9461D46CCE707
:103D90002DE9F041D0F8F830A6B0002BD8BF02AE24
:103DA00031DD05460027D0F80C4102AEA4F1010830
:103DB0009022D5F8FC403146D0F8000101AB0197C4
:103DC000B8FA88F8A0474FEA5818044620B9019B72
:103DD00053B9B8F1000F16D030469021FFF790FF8D
:103DE000204626B0BDE8F081014632462846FFF75E
:103DF00091FF58B9D5F80431019A1344C5F804313C
:103E0000B8F1000FE8D16FF03C04E5E70446204626
:103E100026B0BDE8F08100BF70B50025044614222D
:103E200004F588762946C0F8F850FC3001F089FE88
:103E300008222946304601F084FE144B30461B68A8
:103E40009847204640F8045B01F098F8104B304644
:103E50001B689847C8B9D4F8F830AB420FDC03EBC5
:103E6000830204EB82022021C2F800010120C2E992
:103E7000421008490133C2F8FC10C4F8F830064B70
:103E80003046BDE870401B68184770BDEC1000203C
:103E9000E8100020814E0000E41000202DE9F047DA
:103EA000202A88B07AD83F4B00F5887904461B68F1
:103EB00048461746884698470546F8B940F2011625
:103EC000D4F8F830002B65D02046FFF761FF054697
:103ED00038B9D4F8F830002B14DC013EF2D16FF081
:103EE0003B056E4620213046FFF70AFF2E4B484621
:103EF0001B689847002818BF6FF01D05284608B0BA
:103F0000BDE8F087D4E94132934203D3D4F80C21C1
:103F1000012A02D0013ED7D1E1E71F2BFAD96E4624
:103F200001462022304604F1040A01F00AFE31461F
:103F3000504601F07BF805460028D3D1504601F0E9
:103F400031F8504601F01AF82946504601F030F891
:103F500005460028C6D150462022314601F03CF8E3
:103F600005460028BED1034632462021304601F0E6
:103F7000B9F905460028B5D1D4F8F8303A46002BF7
:103F8000C8BF002340463146C8BFC4F8043101F021
:103F9000B3FDA7E76FF03F056E46A3E76FF03B0563
:103FA000ACE700BFE8100020E410002070B590B02E
:103FB00000287AD03E4C0D46402236210646204647
:103FC00001F0BFFD40225C21A01801F0BAFD2B1DBD
:103FD000A34203D904F144039D4252D32B682268C3
:103FE000534023602B68226C534023646B686268E3
:103FF000534063606B68626C53406364AB68A26853
:104000005340A360AB68A26C5340A364EB68E268C2
:104010005340E360EB68E26C5340E3642B69226930
:1040200053402361226D2B695340236562696B699C
:10403000534063616B69626D53406365AB69A2690C
:104040005340A361AB69A26D5340A365EB69E2697C
:104050005340E361EB69E26D5340E3650021304674
:1040600000F0A6FF044628B940223046104900F06F
:10407000B3FF044640216846FFF742FE204610B0D9
:1040800070BD631E04F13F01013D1F3415F8010F9F
:1040900013F8012F42401A7011F8012F2878A3421B
:1040A00082EA00020A70F1D1D8E76FF07304E5E705
:1040B0004422002010B54FF49A720021044601F00A
:1040C00040FD42F21072044BC4F8202104F59670B2
:1040D0001B68BDE810401847EC1000202DE9F04F98
:1040E00004468846914695B0002900F0A780002A32
:1040F0000CBF0126022600238DF80C30002C00F0A6
:104100009F80DFF844A104AF0AF1400B0021204654
:1041100000F04EFF034648B1384620210193FFF7D7
:10412000EFFD019B184615B0BDE8F08F40225146C7
:10413000204600F051FF03460028EDD104F1F405BC
:1041400020222946204600F047FF03460028E3D1FD
:104150000122204603A900F03FFF03460028DBD1DF
:10416000022E62D020460CA900F060FF0346002812
:10417000D2D10146204600F01BFF03460028CBD1D8
:1041800040225946204600F027FF03460028C3D1AD
:10419000202220460CA900F01FFF03460028BBD1B7
:1041A0003946204600F042FF03460028B4D1394684
:1041B0002046FFF7FBFE03460028ADD1202229460A
:1041C000204600F009FF03460028A5D120460CA98F
:1041D00000F02CFF034600289ED10146204600F047
:1041E000E7FE0346002897D140225946204600F0BA
:1041F000F3FE034600288FD1202220460CA900F0B0
:10420000EBFE0346002887D12946204600F00EFF2A
:104210000346002880D19DF80C200132D2B2B24270
:104220008DF80C20FFF472AF76E74A4641462046EF
:1042300000F0D2FE0346002894D06DE701265AE72D
:104240006FF0730304AF67E7442200202DE9F041CB
:104250000446884615461F46D0F81801E0B013B151
:1042600000EB40004008B5F5807F3ED82844B0F50B
:10427000C07F3AD84FF4C0720021684601F061FC5B
:104280006946D4F82431D4F81821D4F82801984785
:1042900070BBD4F8186157B1D4E9493072080DEBFE
:1042A0000601984720BBD4F8183106EB5306B8F145
:1042B000000F00D08DB9324669462046FFF70EFF49
:1042C000054610B90123C4F8143131466846FFF79A
:1042D00017FD284660B0BDE8F0810DEB06004146B1
:1042E0002A462E4401F008FCE5E76FF00405F0E7EC
:1042F0006FF00805EDE700BF2DE9F047044604F133
:10430000F4050F4691461E46DDF8208000F036FE8B
:1043100029462046FFF74AFE08B1BDE8F087284647
:104320002022012101F00DFCD4F81831C4F82471C9
:10433000C4F8289113B92023C4F8183142463146F5
:104340002046BDE8F0470123FFF780BFB2F5806F3C
:1043500000F295802DE9F04F89B09A46129BB3F593
:10436000807F00F29080D0F82431164604460F4634
:104370004BB3D0F81C31012B05D0D0F81421D0F864
:1043800020319A421FDD514600232046129AFFF742
:104390005DFF014698B900231293002E5ED0DFF82E
:1043A000EC9009F1400B0021204600F001FE202E88
:1043B0003546014628BF202504F1F40890B108468F
:1043C00009B0BDE8F08FBAF1000FE6D0129B002BC8
:1043D000E1D051461A462046FFF780FE01460028EC
:1043E000DBD0ECE749464022204600F0F5FD0146CF
:1043F0000028E4D141462022204600F0EDFD014690
:104400000028DCD16946204600F010FE0146002855
:10441000D5D1204600F0CCFD01460028CFD1594629
:104420004022204600F0D8FD01460028C7D1694649
:104430002022204600F0D0FD01460028BFD1414691
:10444000204600F0F3FD01460028B8D138462A4640
:10445000414601F051FB761B2F44A4D15146204622
:10446000129AFFF73BFE01460028A8D10846D4F86F
:1044700014310133C4F8143109B0BDE8F08F6FF086
:104480000201084670476FF0040198E744220020BB
:10449000002130B58DB0282202A8019101F051FB16
:1044A00002A800F047FF044610B120460DB030BD11
:1044B000174D4FF0FF31286800F042F9044620B153
:1044C000144800F0D3F9012C18D0002000F068F94E
:1044D000D0B9114A02A901A800F0C4FC0446012089
:1044E00000F05EF960B9286800F032F90028DCD0ED
:1044F0000A4800F0BBF920460DB030BD0524F2E7B4
:10450000074800F0B3F9EEE7064800F0AFF9E0E73E
:10451000D0100020345D0000C42200208C5D00001B
:104520006C5D00004C5D000030B583B000F05CF8BD
:1045300028B100F0ABF80324204603B030BD00F0F2
:1045400077F8D8B900F02CF9E0B9224CD4F8283922
:104550001B0EF02B0AD1D4F8242A1F4B9A4231D0DB
:1045600000F044F8072400F091F8E5E7062400F095
:104570003DF800F08BF8204603B030BD04242046FF
:1045800003B030BD00F032F800F080F8FFF780FF94
:10459000044698B9114D2B68002BCDD10246014637
:1045A000FFF752FB50B968220D4901ABFFF77CFBC6
:1045B00020B920460B4B2B6003B030BD05242046AC
:1045C00003B030BD012000F0EBF80028DAD1C4F8C8
:1045D0000C0ADBE7001084500000E020E4240020F7
:1045E000E82400205AEA5A5A0020704700207047F9
:1045F000430504D54FF0FF32034BC3F80821024BAB
:10460000C3F8080A704700BF00108450014BC3F87C
:10461000040A70470010845008B100F06BB84FF4E2
:104620007500704708B100F04FB84FF4750070473F
:1046300010B5114800F070F800B110BD0F4800F03F
:104640006BF80028F9D10E4C204600F065F80028E0
:10465000F3D10C4B0C481C6000F05EF801460028BA
:10466000EBD100F02DF8044608B1204610BD00F053
:1046700079F82046FAE700BFE0100020DC100020A7
:10468000D8100020D0100020D410002008B5084811
:1046900000F04CF8074800F049F8074800F046F8E9
:1046A000064800F043F8BDE8084000F00BB800BF32
:1046B000E0100020DC100020D8100020D4100020D2
:1046C00000207047704700BF024610B4084CD4F871
:1046D000003A1342FBD021B1D4F804310B60C4F886
:1046E0000831034B0020C3F8082A10BC704700BFF4
:1046F00000108450044AD2F8003A1842FBD0C2F8A5
:10470000080A0020704700BF0010845001F0BEB9B5
:104710000A46002101F015BA08B5034B02681B6870
:1047200010689847002008BD0C11002008B5034B05
:1047300002685B6810689847002008BD0C110020D3
:10474000024B02689B681068184700BF0C110020DC
:1047500008B5034B0268DB6810689847002008BD65
:104760000C11002070B5094C094D2069AB689847C1
:1047700018B1084B08485B6898470021074AEB6866
:1047800011602069BDE87040184700BFF810002094
:104790000C110020F0100020A45D00005025002026
:1047A000F8B51A4D1A4E0446B26828699047E8B920
:1047B000184F3B684CB1A3B1012B19D0013B3B60B2
:1047C0002869F36898470020F8BD43B90121124ACF
:1047D000C2F800151149D1F81029002AFBD1013384
:1047E0003B60F368286998470020F8BD0C48F8BD85
:1047F0000A4AD2F81039002BFBD1074A6FF07E40ED
:10480000C2F80035FFF702FF3B68D7E7F810002039
:104810000C1100205025002000008450001084500E
:10482000E98FFFFF014B1B68184700BF0C110020E8
:10483000014B9B68184700BF0C110020014BDB683F
:10484000184700BF0C110020BFF34F8F0549064BDE
:10485000CA6802F4E0621343CB60BFF34F8F00BF1E
:10486000FDE700BF00ED00E00400FA0530B44FF0B2
:10487000FE320025074B084C08494968C3F800245C
:10488000C3F80424C3F80824C3F80C24C4F8005562
:1048900030BC08470010845000008450F010002005
:1048A00010B5044650B1636813F0685F05D0064A3E
:1048B000934202D000236260236010BD034B044882
:1048C0005B689847EFE700BF2C5F5CA9F010002001
:1048D000C45D0000C8B143680D4A934213D013F081
:1048E000685F0ED0012350E8002F194640E8001CF5
:1048F0009CF0000FF7D1012AF5D0BFF35F8F0020A5
:10490000704704487047044870476FF4E0407047B0
:104910002C5F5CA9E98FFFFFEA8FFFFF034680B1A0
:10492000426809498A420AD012F0685F05D0BFF395
:104930005F8F002210461A60704704487047044891
:1049400070476FF4E04070472C5F5CA9E98FFFFF70
:10495000EA8FFFFF10B5044620B10023034A23600D
:10496000626010BD0248FFF781FFF6E73A00003AA7
:10497000EC5D00002DE9F047002878D00C460029B6
:1049800075D01D46002B72D007461AB101220023B4
:104990002A6003602B68002B64D02946204600F073
:1049A000B7FD804600285FD12146286800F096FDBB
:1049B0008046002858D12B68082B6CD0042B6DD072
:1049C000A3F10209B9FA89F94FEA59190121354EC3
:1049D000C6F8C411C6F84011C6F8C411636AC6F817
:1049E0003031D6F830219342F6D14FF0000A4FF023
:1049F000FF30C6F82CA1FFF7FBFD6FF01B035046FC
:104A0000C6F80031FFF702FEC6F80C91D6F8040A8A
:104A100040F48060FFF7FAFD0A23C6F83831089B9E
:104A2000012B29D02369204AA2FB03231B09626AB8
:104A3000404602FB03F303EB43031A4ADB039B09E3
:104A4000C2F8D8310123C2F82C313B682A6823F020
:104A50007F4343EA02633B602A6843EA02233B60E8
:104A6000BDE8F087DFF844804046BDE8F087DFF816
:104A700040804046BDE8F0874FF47F03D3F80C2C0C
:104A8000013206D0D3F80C3C074AA2FB03231B09D2
:104A9000CDE71623CBE74FF0030997E74FF0020964
:104AA00094E700BF00108450ABAAAAAA310CF10011
:104AB000350CF10058B34B1EB3F5047F27D230B547
:104AC0004FF0000ECD00744671464B0901F01F0CEB
:104AD00050F82330BCF11F0F23FA0CF306D003F07B
:104AE000010319B901211C468E46EEE79C4201F1F3
:104AF000010106D01C464FF0010EA942E5D100206D
:104B000030BD0EF1010E9645F7D1024830BD014887
:104B1000704700BF360CF100C0B32DE9F0434C1EC6
:104B2000B4F5047F1DD2E3B1DAB100252E46A846C4
:104B30002C46CF0003F1FF394FEA541C04F01F0E3E
:104B400050F82C10BEF11F0F21FA0EFC0CD00CF007
:104B5000010C4CB90126E04634463546ECE7964256
:104B600016D90C48BDE8F083AB420BD0C44508BF52
:104B70000136A945F3D001350134BC42DCD1002017
:104B8000BDE8F0830125E0462E46F5E70148704771
:104B90001D46F1E7370CF1002DE9F04F91B0834647
:104BA000DDE91B460D46002E6ED10F691C60002307
:104BB0001A990B60002A00F02F819D4B6A6AD3F886
:104BC0003811D3F830319A4269D10A2967D19BF85C
:104BD0000330089304F10803079304230593954BCE
:104BE000934CA3FB07239B0803EB4303A7EB43036F
:104BF000039306971A9B069E1E60002E00F0EA8023
:104C000000F096FC00230993BBF1000F00F0D58063
:104C100098464FF0010ADDF81C90002D00F0CD8081
:104C2000089B002B3DD0284608A900F071FC002805
:104C300039D0814B984220D0089B082B00F0E480AB
:104C400000225B000893294608AB58460092FFF704
:104C500091FE7A4B984200F0D38070B9DBF80020C7
:104C6000130A03F47F03134323F07F43CBF8003090
:104C7000059B013B0593BDD10020039000F058FC3B
:104C8000039811B0BDE8F08F4FF47F01D1F80C0C00
:104C900001300CBF4FF40477D1F80C7C86E76848EC
:104CA000EBE76648C5E72946089800F017FC00289E
:104CB000BFD1089B082B00F0A980042B00F0A9802D
:104CC000A3F10203B3FA83F35B090493C4F8C4A10C
:104CD000C4F840A1C4F8C4A16B6AC4F83031D4F858
:104CE00030219342F6D100234FF0FF30C4F82C312D
:104CF000FFF77EFC002318466FF01B03C4F8003159
:104D0000FFF784FC049B4B4FC4F80C31D4F8040A21
:104D100040F48060FFF77AFC0A23C4F838312B692D
:104D200009A8A7FB03236A6A1B0902FB03F303EB31
:104D30004303DB039B09C4F8D831C4F82CA1DBF88A
:104D40000030089923F07F420B0243EA01631343CA
:104D5000CBF8003000F0B2FB099B03F01A030343C9
:104D60007FF46AAFA7FB0637D4F81431B8EB970F7E
:104D70000A93D4F818310B93D4F81C310C93D4F85F
:104D800020310D93D4F824310E93D4F828310F93A9
:104D900001D1039B9BB9484618220AA9183EFFF788
:104DA000B5FC09F1180908F101089EB100F0C0FB3B
:104DB00000230993002D7FF433AF224839E748469A
:104DC0001A46F61A0AA9994408F10108FFF79EFC51
:104DD000002EEBD1069F079E6A6939463046FFF7E1
:104DE00069FEAA6940B94FF4806339463046FFF73F
:104DF00093FE00283FF440AF00231A9A136018E78F
:104E00002B6A002B3FF439AF0F4836E70323049396
:104E10005CE70223049359E701222946584600968D
:104E200008ABFFF7A7FD00283FF4D4AE25E700BF8D
:104E300000108450ABAAAAAA020CF100310CF100B8
:104E4000300CF100350CF100320CF10010B4DDE94A
:104E5000013401940024DDF80CC0CDE902C410BC7B
:104E6000FFF79ABE30B51546012487B005AB009315
:104E70000022CDE9015404ABFFF78EFE07B030BD30
:104E8000F0B587B0002966D01E46002B63D01446CB
:104E9000002A60D0314F0D4638684FF0FF31FFF7E0
:104EA0004FFC00284DD10020FFF77AFC002844D1A8
:104EB0002B4800F03FFAD8B101204FF0FF35FFF743
:104EC0006FFC002835D14FF408712648FEF70EFF1D
:104ED00004212548FEF70AFF21482821FEF706FF96
:104EE0003868FFF735FC00282FD1284607B0F0BD01
:104EF0001C4A0346029205AA019204AA039000925A
:104F0000174902461848FFF7A1FF03460028D3D1EE
:104F100028461D46059B22469C4228BF1A460499F6
:104F200032600831FFF7F2FB0120FFF739FC00285F
:104F3000C9D00E48FFF79AFCC5E70D48FFF796FC6D
:104F4000B6E70C48FFF792FCADE70B48FFF78EFC85
:104F5000284607B0F0BD4FF0FF35C6E7D01000205F
:104F60006825002090250020642500206C5D00004D
:104F70004C5D0000345D0000105E000010B504467A
:104F800028B12046BDE81040F421FFF7C1BB04481A
:104F9000FFF76CFC2046BDE81040F421FFF7B8BBDA
:104FA000285E000010B1F421FEF7A0BE704700BFDC
:104FB00008B521B1012908D06FF0360008BD0121E4
:104FC00000F058F80028F7D108BD022100F052F88F
:104FD0000028F9D0F0E700BF30B505468818B0F5D5
:104FE000801F0B461446A1B001D8802A0CD9B3F516
:104FF000801F17D922461946284600F07DF804463E
:1050000084B9204621B030BD6846FFF77FFB2246B9
:105010006946284600F070F8802104466846FFF78C
:1050200077FBEDE76FF03604EBE700BF70B5E8B152
:105030000E46D9B1044600F031F80546B0B92368F0
:10504000012B0BD0022B01D0284670BD1C2230460C
:1050500004F10801FFF75AFB284670BD20223046B4
:1050600004F10801FFF752FB284670BD6FF03605CA
:10507000EAE700BF78B138B50D46F0210446FFF7E6
:1050800047FB402320462560E36500F091FA003895
:1050900018BF012038BD0120704700BFF0B5056E74
:1050A000A5B0044604AEE5B90023012701933046BC
:1050B0006760294602AA009300F046FA10B1012069
:1050C00025B0F0BD2A46204602A900F099FA002832
:1050D000F5D1204600F0AAFB0028F0D1206625B0CB
:1050E000F0BD802D2A46304628BF802204F164019D
:1050F000FFF70CFB256ED7E7002800F0AE802DE906
:10510000F04F1446A5B0002A3DD00F46002949D0E3
:10511000B2F5803F0546006E20D34FF6FF7805F1CB
:10512000640AEB6D1A1AB2FBF3F103FB1122002A99
:1051300065D18342B9464FF6FF7672D0B6FBF3FBDA
:1051400003FB0BFBBBF1000F30D1002E45D1A4F5C2
:105150007F44FF3CB4F5803F4744E2D2EA6D161A23
:10516000B6FBF2F302FB1366A64228BF2646002ECA
:1051700075D1824200F08D80B4FBF2F602FB06F698
:105180002EB9002C79D1002025B0BDE8F08F002386
:1051900031463846CDE9003302AA00F0D5F900289F
:1051A00000F09580012025B0BDE8F08F002359461E
:1051B0004846CDE9003302AA00F0C6F90028F1D133
:1051C0005A46284602A900F01BFA0028EAD1A6EBAD
:1051D0000B06286ED944002EB9D019304946324604
:1051E00005EB8000FFF792FAA4F57F44286EFF3CA0
:1051F0003044B4F5803F4744286692D2AEE742453A
:1052000028BF4246164639465044FFF77FFA286EBB
:10521000EB6D3044834207EB06092866A8EB0606CF
:105220008CD1802B28BF802351461A4604A8FFF753
:105230006DFA0023E96D02AACDE9003304A800F05D
:1052400083F90028AED12846EA6D02A900F0D8F90A
:105250000028A7D1EB6D286670E70120704705F1A3
:105260006403394632461844FFF750FA286EEA6D57
:105270003044A41B374428667BE72B6E2246193343
:1052800005EB83003946FFF741FA2B6E23442B666A
:1052900079E7802A28BF802205F1640104A8FFF77E
:1052A00035FA0023E96D04A8CDE9003302AA00F025
:1052B0004BF900287FF476AF2846EA6D02A900F08A
:1052C0009FF900287FF46EAFEA6D286654E73246F6
:1052D000284602A900F094F900287FF463AF374410
:1052E000A41B4EE7F8B51C460546114816460F4666
:1052F000FFF744FE21460E48FFF75AFE044620B150
:105300000B48FFF74FFE2046F8BD3A4629460848AD
:10531000FFF762FE04460028F2D131460448FFF749
:1053200085FE04460248FFF73DFE2046F8BD00BF5B
:10533000B02700201C2370B582B001A90546019357
:1053400000F032F8044638B9019B1C2B07D0144CEE
:105350001C212846FFF7DCF9204602B070BDD5E9D4
:105360000112131E18BF0123003918BF01210126A5
:1053700028689B00EA6843EA4103002818BF43F00D
:105380000103EE612AB9C5E90834002BE4D1054CCC
:10539000DEE7204643F00803C5E9083402B070BDDB
:1053A000370CF0000E0CF0000346002866D00029F0
:1053B00064D00A681C2A61D14FF47F023B49D2F8BD
:1053C000100C88425CD0D2F8101C013158D0D2F8B1
:1053D000101C4FF47F021960D2F8140C3449884233
:1053E00060D0D2F8141C01315CD0D2F8141C4FF4F8
:1053F0007F025960D2F8181C11F5947F4FD0D2F873
:10540000181C01314BD0D2F8181C4FF47F02996060
:10541000D2F81C0C274988423ED0D2F81C1C01311E
:105420003AD0D2F81C1C4FF47F02D960D2F8001C8D
:1054300070312FD0D2F8001C01312BD0D2F8001CD3
:105440004FF47F021961D2F8041CAF3120D0D2F89A
:10545000041C01311CD0D2F8041C4FF47F025961A6
:10546000D2F8080C144988420DD0D2F8081C01313A
:1054700009D0D2F8082C00209A61704701207047AB
:1054800040F6FC01A5E740F2373200209A617047F0
:105490005121E2E79021D3E742F60411C3E740F639
:1054A000D861B2E742F2D001A1E700BFFCF8FFFFEC
:1054B000D020FFFF0429FFFF37F3FFFF014608B5A7
:1054C0004FF48060FFF7AEF80022034BC3F8C82109
:1054D000C3F82C2108BD00BF0010845001380728F4
:1054E00005D8DFE800F0100E040A0404040607489B
:1054F0007047CB6800204B6270478B6800204B627E
:1055000070474B68F6E70B68F4E700BF310CF10019
:105510000B6802E0082B0B6006D8026A13424FEAC0
:105520004303F7D00020704700487047310CF1006A
:105530000022044B4FF48060C3F82C21C3F8C4212F
:10554000FFF756B800108450F0B5002483B0B0F1D6
:10555000005F8DF8074025D38C468444BCF1804F12
:1055600004461FD817461D4601220DF1070300F01F
:1055700097F90646B0B99DF80730099A3C603B712F
:1055800092B14DB10246089928460DF1070300F08B
:1055900087F938B99DF807303046099A15601371BC
:1055A00003B0F0BD4FF47506304603B0F0BD00BF48
:1055B000D8B108B50368012B04D0022B0FD043B13A
:1055C0000B4808BD20220B490830FFF79FF8002048
:1055D00008BD142208490830FFF798F8F7E72022A1
:1055E00006490830FFF792F8F1E74FF4730070476F
:1055F0000100F300385E0000785E0000585E000095
:105600002DE9F843002900F0F9800446002800F055
:10561000F98003680F469046002B00F0C380013BE1
:10562000012B00F2D7804FF0FF3178484FF002098C
:10563000FFF786F8002840F0BF800020FFF7B0F8A1
:105640000646002840F0C280714AD2F81C39002B6F
:10565000FBD16F4DD5F8203C002BFBD14FF0FF3034
:10566000FEF7C6FFD5F8040A20F04000FEF7CEFF93
:1056700001230722C5F81838C5F80029C5F8C43732
:10568000A36CC5F8CC37E36CC5F8D037C5F8C09724
:1056900023685BB1013B012B18D8636AC5F85C36FF
:1056A000236AC5F85836E369C5F85436A269584BE1
:1056B000C3F850266269C3F84C262269C3F848260D
:1056C000E268C3F84426A268C3F84026504AD2F8DC
:1056D0001039002BFBD1B8F1000F5FD06368402078
:1056E000012B08BFC2F884363A68494BC3F8282C0E
:1056F000C3F82C8CFEF790FF0646454AD2F81039C5
:10570000002BFBD1424AD2F8203C002BFBD123686E
:105710005BB1013B012B18D8D2F85C366362D2F83A
:1057200058362362D2F85436E361394BD3F8502609
:10573000A261D3F84C266261D3F848262261D3F8DF
:105740004426E260D3F84036A36000230121304AAA
:10575000D2F8CC07A064D2F8D007E064C2F8C4172E
:10576000C2F88436C2F8C837D2F81039002BFBD102
:10577000C2F81838002E3BD1254BD3F8040A40F06C
:105780004000FEF743FF0120FFF70AF860BB1F4807
:10579000FEF7DEFF10BB3046BDE8F8830423C2F8F5
:1057A000C837AAE74FF0FF3118484FF00109FEF75C
:1057B000C7FF00283FF441AF1648FFF757F8002015
:1057C000FEF7EEFF064600283FF43EAF1248FFF713
:1057D0004DF839E7114E3046BDE8F8831048FFF721
:1057E00045F83046BDE8F8830E48FFF73FF8CEE7AE
:1057F000102104F10800FEF78BFFBDE70A4E30468A
:10580000BDE8F8834FF47306C5E700BFE010002041
:1058100000108450345D00004C5D00000100F30076
:105820008C5D00006C5D00000300F300A0B3034634
:1058300070B4D0E90240D3E9041226BA05BA0CBA12
:1058400010BAC3E90440D3E90612986A09BAC3E959
:10585000026512BA996100BAD3E9084125BA0CBAB7
:10586000C3E90725D3E90B12C3E9094009BAD86B8C
:1058700012BAD962D3E90D4125BAC3E90C250CBA95
:1058800000BAD3E9101209BA12BAC3E90E4019647A
:1058900000205A6470BC70474FF47300704700BF1B
:1058A00000201870704700BF431810B501D21F2A9E
:1058B00001D9002010BD013902F014030144102B5E
:1058C00080EA01043CD009DC8BB1042BF1D11F2C00
:1058D00040E840F315D941E840F10EE0142BE8D13F
:1058E0001F2C40E8C0F30CD941E8C0F105E01F2CA3
:1058F00040E800F305D941E800F11C460B468C4214
:10590000D7D122F01402013A0A2AD2D801A151F8C3
:1059100022F000BF635900005D5900004F5900009C
:10592000B3580000B3580000B3580000B35800004B
:105930006959000063590000575900004F59000091
:105940001F2C40E880F3DCD941E880F1D5E713F45F
:10595000001FAFD1ADE713F4801FFAE75B02A9D5B2
:10596000A7E713F4002FF4E713F4802FF1E700BF4B
:1059700008B5074B044613B10021AFF30080054B77
:105980001868836A03B19847204600F029F800BFE1
:10599000000000008C5E000070B50D4D00260D4C1F
:1059A000641BA410A64209D10B4D00260B4C00F03D
:1059B000A5F9641BA410A64205D170BD55F8043B9F
:1059C00001369847EEE755F8043B01369847F2E771
:1059D0004806000048060000480600004C0600008B
:1059E000FEE700BF002383F300887047FDF7BCBAD1
:1059F000EFF30880EFF309812DE9F00F6B46724653
:105A0000FAF7CEFF08B0FFF7F1FFFEE7FDF7ACBAFB
:105A1000EFF30880EFF309812DE9F00F6B46724632
:105A2000FAF7BEFF08B0FFF7F1FFFEE7FDF79CBAFB
:105A3000EFF30880EFF309812DE9F00F6B46724612
:105A4000FAF7AEFF08B0FFF7F1FFFEE7FDF78CBAFB
:105A5000EFF30880EFF309812DE9F00F6B467246F2
:105A6000FAF79EFF08B0FFF7F1FFFEE7FDF77CBAFB
:105A7000EFF30880EFF309812DE9F00F6B467246D2
:105A8000FAF78EFF08B0FFF7F1FFFEE7814270B42E
:105A90000546144602D370BC00F02EB8821821448B
:105AA0003CB141EA020313F003030FD1E0180328CD
:105AB00012D86FF00300A3084343002019441A448E
:105AC0002344984210D1284670BC704711F8013D1C
:105AD000013C02F8013DE3E7581850F8046C9818AF
:105AE00040F8046C043BE1E70C1A14F8016C141A3A
