:020000040000FA
:10000000706B002035220000E17D000021220000FD
:1000100021220000212200002122000021220000D4
:10002000000000000000000000000000F5230000B8
:10003000212200000000000079230000212200009E
:100040000126000001260000012600000126000014
:100050000126000001260000012600000126000004
:1000600001260000012600000126000001260000F4
:1000700001260000012600000126000001260000E4
:1000800001260000012600000126000001260000D4
:1000900001260000012600000126000001260000C4
:1000A00001260000012600000126000001260000B4
:1000B00001260000012600000126000001260000A4
:1000C0000126000001260000012600000126000094
:1000D0000126000001260000012600000126000084
:1000E0000126000001260000012600000126000074
:1000F0000126000001260000012600000126000064
:100100000126000001260000012600000126000053
:100110000126000001260000012600000126000043
:100120000126000001260000012600000126000033
:100130000126000001260000012600000126000023
:100140000126000053B94AB9002908BF00281CBF86
:100150004FF0FF314FF0FF3000F00CB8ADF1080C5C
:100160006DE904CE00F008F8DDF804E0DDE90223D3
:1001700004B07047704700BF2DE9F04786468C46B3
:100180000846089E154674461946002B40F0C1806B
:100190008542B2FA82F245D94AB1C2F1200300FA8F
:1001A00002FC954094402EFA03F343EA0C0C4FEA0C
:1001B000154EA8B2230CBCFBFEF80EFB18CC08FBB6
:1001C00000F943EA0C43994528D9EB1808F1FF37A9
:1001D00004D2994502D9A8F102072B44A3EB0903E5
:1001E000A4B2B3FBFEFC0EFB1C330CFB00F044EA94
:1001F0000344A04214D92C190CF1FF3304D2A042BD
:1002000002D9ACF102032C44241A43EA07401EB180
:10021000D440002334607360BDE8F0874746DDE7D3
:100220006346F1E792BB431B01214FEA154EAFB283
:10023000200CB3FBFEFC0EFB1C330CFB07F840EA62
:100240000343984561D9EB180CF1FF3004D298456F
:1002500002D9ACF102002B44A3EB0803A4B2B3FB18
:10026000FEFC0EFB1C330CFB07F744EA0344A742D9
:100270004DD92C190CF1FF3304D2A74202D9ACF1AD
:1002800002032C44E41B43EA0040C0E7C2F1200310
:100290009540944020FA03F12EFA03F34FEA154EED
:1002A0009040AFB20343B1FBFEFC0EFB1C10190CD7
:1002B0000CFB07F841EA0041884522D969180CF186
:1002C000FF3004D2884502D9ACF102002944A1EBE9
:1002D00008019BB2B1FBFEFC0EFB1C110CFB07F7E7
:1002E00043EA01439F420ED9EB180CF1FF3104D2CF
:1002F0009F4202D9ACF102012B44DB1B41EA0041D1
:1003000093E76046E3E76146F7E76046A4E76346A4
:10031000B8E7834206D916B9002108467CE7C6E94A
:1003200000E0F9E7B3FA83F78FB9834201D372454E
:1003300008D8BEEB020460EB030301209C461EB903
:10034000002169E73846FAE7C6E9004CF8E7C7F14B
:10035000200CBB400EFA07F522FA0CF42EFA0CF131
:10036000BA401C4320FA0CF3B8404FEA1449014349
:100370001FFA84FEB3FBF9F809FB18300B0C08FBDD
:100380000EFA43EA00439A4540D9E31808F1FF30DA
:1003900004D29A4502D9A8F102002344A3EB0A0330
:1003A00089B2B3FBF9F809FB183308FB0EFE41EAEA
:1003B00003418E452CD9611808F1FF3304D28E45D4
:1003C00002D9A8F10203214443EA0040A1EB0E0147
:1003D000A0FB02984145CE46434602D306D14D4587
:1003E00004D20138B9EB020E68EB0403002EA7D04B
:1003F000B5EB0E0261EB030101FA0CFC22FA07F3E4
:10040000F9404CEA0303C6E9003199E74046C5E7E5
:100410004346D9E7F0B5344B344A4921C3F80026A6
:100420003348C3F8042685B0C3F80826C3F80C2661
:10043000C3F81026C3F81426C3F81826C3F81C26E0
:1004400007F041FC06F0DCFF00F096FA054601A833
:1004500000F03CFD0446284600F09EFA254B1B6840
:10046000A34205D04521244807F02DFC07F0CAF827
:10047000039A4921214807F026FC4921204807F02A
:1004800022FC4FF4C031002003F0DCFA044620B116
:1004900045211C4807F017FCFEE769469DF8080057
:1004A00000F034F8009B039D1D44019B1E8903F05E
:1004B000B1FAAF1901F07AF801F04AF801F064F8E6
:1004C00084F30B8884F30A88AB5983F3088884F398
:1004D0001488BFF36F8FBFF36F8F7B6898474521F8
:1004E000094807F0F0FBFEE7008001503546526EE8
:1004F000E69B000008000020FF9B0000229C0000FB
:10050000519C0000769C0000A99C0000024608B5A2
:1005100038B105480023452107F0D5FB6FF01500E1
:1005200008BD0860FCE700BFCC9C000021B1012998
:1005300006D06FF015007047044B53F83000704739
:10054000024B03EBC0035868704700BF8896000059
:100550002DE9F04FDFF844B2DDB01646DDE96889D9
:100560001C466A9FDBF8005000F0BCFF0122874B5D
:100570003CA8C3F8002505F061FEB8F1000F07D0D4
:10058000B9F1000F04DD4A4641463CA807F08EFA57
:100590004FF0000833897289D6F80CA013449A44AE
:1005A000C2456AD80FA93CA805F0BAFE0022774BD5
:1005B000C3F80025C3F8002527B1202238460FA92B
:1005C00007F057FC00233146009322464FF6FF7395
:1005D00009A806F016FF064600285FD120460E9FA8
:1005E00000F0B4F9874259D84FF0FF37DFF8B0A1D7
:1005F000DFF898810DF11E0307AA08A909A806F0E3
:100600004EFF00284ADB40F0B980089909A806F09F
:1006100092FF50B94FF6FF71BDF81E005C4A32F8E8
:10062000023B8B423AD09842F9D1BDF81E90B9F105
:10063000100F3DD0B9F1220F7DD0B9F1010FD9D102
:10064000BDF81C30202B29D8204608993CAA07F079
:1006500048FB074610BB9DF81C30202B039309D89C
:10066000DAF800204B4B0492049A97423FDB0023B8
:10067000C8F800354FF0FF37BCE7679BAAEB0809C5
:10068000994528BF994641464B462046669A07F051
:1006900028FB30B100223D4BC3F80025DBF80050A9
:1006A0006EE04A4666993CA807F000FAC84477E72E
:1006B000BDF81C90B9F1200FF0D14B4620460899A7
:1006C0003CAA07F00EFB0028E8D100F055F94A4695
:1006D00006463CA90FA800F0E7F88146304600F036
:1006E0005BF92D4B1B684B45D8D1012682E705935A
:1006F00000F0F8FEC8F800951FA805F09FFD059BC7
:100700001FA85A6853F8081B1268059307F0CEF922
:1007100017A91FA805F004FE0022C8F80025039AB7
:100720003CA917A807F095FB059B10B9C8F8000570
:1007300060E7013798E77B1C3FF45CAFDAF80030E4
:10074000BB4297DDBDF81C30802BA7D82046089906
:100750003CAA07F0C6FA0028A0D100F00DF9FFB2BC
:1007600081462021BDF81C303CAA00970FA800F05C
:1007700019F80546484600F00FF97BE7002E8DD0AA
:1007800000F002F928465DB0BDE8F08F000084500B
:10079000B89B000094960000080000200400002090
:1007A000909600002DE9F04796B016461D469DF83C
:1007B0007820384B074653F8321003EBC2035B68CE
:1007C00001911868DFF8DC800144302302AA01A8F7
:1007D000D8F8009007F0F8F8002851D1DDE901437E
:1007E0001C44214606AB03AA01A807F015F900280E
:1007F00046D1049A072A43D12749059807F029FBD7
:1008000000283DD1079A082A3AD12449089807F0D0
:1008100020FBA8BB214602AA01A807F0E9F878BB93
:10082000DDE901A30AEB0302944229D1412B27D130
:1008300035443023294603AA02A8029607F0C4F8DB
:10084000E0B9DDE9023213449D4217D32A4602A9DA
:1008500006A806F07EFE88B92A4602A90EA806F070
:1008600078FE58B99AF80030042B07D12023384677
:1008700006AA0AF1010100F04DFE38B1D8F8009047
:1008800000F082F8484616B0BDE8F087044BD3F874
:100890000090F5E794960000FB9C0000F29C00009D
:1008A000080000200400002070B5094B04461D68B4
:1008B0000023934205D1074B1D6800F065F82846D8
:1008C00070BDE65CC85C8642F7D10133F1E700BF3A
:1008D0000400002008000020094A40000B7852F86C
:1008E00020108B4209D0013052F82000834214BFFF
:1008F0004FF0FF304FF4407070474FF44070704736
:100900009C9600001FB50F4B0C4613F8300001F009
:10091000E5F950B92068102381686A46103907F05C
:10092000E0F928B1206807F0DBF94FF0FF3006E06E
:1009300010226846044907F08CFA0028F2D104B06E
:1009400010BD00BF9C960000D69B000013B5044666
:1009500006F030FE6A460146204606F038FD30B10A
:100960000448452107F0AFF9002002B010BD0098FF
:10097000FBE700BF039D0000024B1868421C1A6091
:10098000704700BF58040020024A1368013B1360FF
:10099000704700BF58040020034B1B68834201D0FE
:1009A00006F030BE704700BF580400202DE9F04328
:1009B000434F89B0064600200D463C68FFF7B6FD60
:1009C00006A9C0B201F08AF928B1FFF7DDFF204681
:1009D00009B0BDE8F0832946FFF7A8FD2C2407A93C
:1009E000C0B204FB056401F079F990B12C236B438C
:1009F000F2181169DDF818C0C8061AD51DB13046C5
:100A0000069906F0D5FE2F4B1C68069807F068F98A
:100A1000DBE7079807F0B0F98046079807F060F920
:100A2000631EE21C13F8011F4145DFD19342F9D147
:100A3000E4E7F058244B98423ED1D06813891B1844
:100A40003AD25289D21837D2DCF808309A4233D2DF
:100A500040F60C6311EA03062ED1FFF78DFFDDF897
:100A600018900746FFF788FF4FF480730193174BE8
:100A7000224680463146009330464B46CDE9036618
:100A80000296FFF765FD04464046FFF785FFFFF736
:100A90007BFF3846FFF780FF0D4B1B68A342B4D0A5
:100AA00065B106980021826807F045F9094A452199
:100AB000094807F008F9A6E73C68EDE7074AF6E7BA
:100AC00004000020000000203DB8F396E82000203C
:100AD00008000020469D0000509D00003E9D000043
:100AE0007FB50D46002104462846CDE9021106F0E7
:100AF0001EFE28B32368194EB34203D1204603AA31
:100B000006F0A9FDE36AB34204D10121204602AAFE
:100B100006F0A1FDDDE90232934288BF0393039BF7
:100B2000AB60039A2946204600F0DAFB0C4B1A68AA
:100B3000002A03DD57210B4807F0C5F804B070BD4B
:100B400001A9FFF7DFFE019805F1080106F03DFD60
:100B5000AB680198039307F0C3F8E2E73DB8F3965A
:100B6000BC180020789D00002DE9F84F884691467A
:100B70009A460026DFF870B0194C1A4D0B9B9E4226
:100B800001D300200FE00B9B40469F1BB7F5806F01
:100B900028BF4FF48067144A3B4606EB0A0107F072
:100BA000A0F810B10120BDE8F88F0A993B465A46DB
:100BB0004846711807F0AAF80028F3D1C4F8005687
:100BC0003E44C4F80456C4F80856C4F80C56C4F899
:100BD0001056C4F81456C4F81856C4F81C56CDE77D
:100BE000008001503546526E5C0400202DE9F04132
:100BF0000E460021AC4B0446436203F5006388B007
:100C000003650846FFF792FC04F120010546C0B2D7
:100C100001F064F848B100232A4645210190009371
:100C2000A24807F050F806F0EDFC01210020FFF784
:100C30007DFC04F14C010546C0B201F04FF850B103
:100C400001232A464521019000939848002307F08C
:100C50003AF806F0D7FC204606F03EFD054668B996
:100C600000222046114606F0E0FC054608B30022AB
:100C700057218F4807F027F801239FE04FF4807237
:100C800057218C4807F01FF801239D4284F8583003
:100C9000E6D194F85830042B8DF8173000F291808B
:100CA000012B00F2958000F0A880FF2384F85830D3
:100CB000A3E0204600F026FA0028DDD004A806F0C4
:100CC0002DFD0146204606F0C8FD18B12A465721E1
:100CD0007948CFE704A806F02AFD80F0010104AAB4
:100CE0002046C9B206F0A1FC02460028BFD104A8E4
:100CF00006F01DFD054660BB204604A9FFF7F0FE87
:100D00009DF8173084F85830033B012B06D828464D
:100D100000F00CF910B1FF2384F858309DF817301B
:100D2000023B022B0BD8002000F0EAF838B1FF2379
:100D300084F858304521614806F0C5FFFEE794F875
:100D40005830FF2BF6D00021204604AA06F06DFC97
:100D500092E79DF81770012F1ED1104602F006FF92
:100D6000831E022B054614D8FFF706FE394680463F
:100D70002046FFF71BFE07464046FFF70DFE504B8F
:100D80001B689F4205D04F4B1D68AF4214BF05251D
:100D9000012584F858507CE7FFF7EEFD0121074656
:100DA0002046FFF703FE05463846FFF7F5FD444BA6
:100DB0001B689D4214BF05239DF8173084F85830F6
:100DC00067E7052B7FF471AF002000F0AFF811E06A
:100DD000204604A9FFF784FE94F85830DA1E012A51
:100DE00034D8002000F0A2F800287FF45EAF002085
:100DF00000F086F800287FF458AF94F85830FF2BA5
:100E000005D145212D4806F05EFF06F0FBFB0022D0
:100E100094F858302C4F012B03921AD011462046DB
:100E200006F003FCA8B13D68102200210DEB020082
:100E300007F02AF8E06C06F053FF206A06F050FF36
:100E4000FFF7A2FD284608B0BDE8F081022BD4D1FF
:100E5000CDE7FFF791FD002180462046FFF7A6FD74
:100E600005464046FFF798FDDFF85480D8F800307B
:100E70009D42D8D13B689D42D5D0124B1B689D4204
:100E8000D1D0039B01330393039B012B01D006F0C8
:100E9000B9FB206A06F099FA3071236A5B68346006
:100EA000D8F80050B360BFE75C080020A79D0000A1
:100EB000369E0000F49D0000629E00008C9E0000A3
:100EC00008000020000000200400002070B50B4E38
:100ED000044660220021304606F0D6FFFFF74CFDA5
:100EE000214605463046FFF781FE04462846FFF7B7
:100EF00053FDFFF749FD204670BD00BF5C18002080
:100F000013B5094B01A913F8300000F0E7FE48B90A
:100F1000019807F007FF0446019806F0E1FE20461D
:100F200002B010BD0124FAE7A49600001FB50F4BD4
:100F300001A913F8300000F0D1FEA8B9019802A968
:100F400002F0BEFD044668B99DF80B30032B03D1B7
:100F5000019807F0B5FE0446019806F0C1FE204650
:100F600004B010BD0124F7E70124F8E7A4960000BF
:100F70002DE9F34106460C4617461D460BB90026DF
:100F800028E0184606F0D3FB0028F8D16946FFF7A1
:100F9000B9FC009838B90124009806F0A1FE20465B
:100FA00002B0BDE8F08101A906F00FFB0028F2D1E4
:100FB000009806F095FE3046019906F09CFC736A95
:100FC0005E686B79012B21D1002CD8D12B6883422C
:100FD00098BF002621460020FFF7A8FA6946C0B254
:100FE00000F07CFE0028D6D120233A4631460098F6
:100FF00006F077FE04460028CDD1002DCCD03C6809
:101000000D4BE41A18BF4FF0FF34C5E7022BB6D1E1
:101010002B68012B05D98342B1D8B4FA84F4640952
:10102000ADE7ACD1002CD5D0012CA8D12C79023C55
:1010300018BF0124A3E700BF3DB8F3962DE9F04F98
:1010400007460C4685B0014600201646FFF744FCD3
:10105000051E51DB3846E46D06F0ACFA5FFA84F900
:101060004FF0000A4FF0010B4FF0FF346B1E09FBED
:1010700003089DB9BAF1010F03DD4521204806F0B0
:1010800022FE631C06D0FF2C2ADC40F2011301343F
:101090003460B380284605B0BDE8F08F6B1E009326
:1010A0004146012338460DF10F0206F01AFE031ED9
:1010B000019323DB012238460DF10F0107F09BFD60
:1010C000019B40B15B4501D00AF1010A9B46009D9E
:1010D000A8EB0908CDE7B4F1FF3F08BF2C46F5E7C0
:1010E0000223A4F580747371631004F001040133CA
:1010F000013433603471CDE70725CBE70125C9E71B
:10110000989E000070B5866A456D044606F0E2FBC5
:10111000AE420AD06B1CB34207D0834205D05721A0
:10112000134806F0D0FD002070BDB6F5807F1CD9B5
:1011300057211048F5E7626A216D02EBC30201EB0B
:10114000C30152684968914202D057210A48E8E732
:1011500001339D42EFD1AE4205D9636A03EBC5036B
:101160005B689342F1D10120DEE700231A46F0E7E5
:10117000BB9E0000F39E0000229F000000B589B0D6
:10118000052004A907F0A9FD9DF81020012A41D0EF
:10119000254B2649032A08BF0B469DF813204921F9
:1011A00002929DF81220224801929DF8112000928F
:1011B000204A06F088FD0B2006A907F08EFD9DF859
:1011C0001820012A28D0184B1849032A08BF0B46BB
:1011D0009DF81B20492102929DF81A201448019283
:1011E0009DF819200092144A06F06DFD9DF810300C
:1011F000012B13D19DF81230032B0FD19DF818301D
:10120000012B0BD00D48492106F05DFD022009B0ED
:101210005DF804FB0A4BC0E7094BD9E709484921AF
:1012200006F051FD0020F2E74E9F0000579F00009E
:101230006B9F00005D9F0000AC9F0000BC9F000002
:10124000529F0000DB9F000070B54B6814461E4A99
:1012500003F0FF23934206460D4686B02FD10B685C
:10126000012B2CD1204604A902F02AFC9DF8102065
:10127000012A26D0154B1649032A08BF0B469DF8B4
:101280001320492102929DF81220124801929DF8E4
:1012900011200092104A06F016FD9DF81030032B25
:1012A0000DD12146304606F083FA204607F008FDAE
:1012B0002046A96806F097F9204602F0E1FB06B047
:1012C00070BD064BDBE700BF000100044E9F00002D
:1012D000579F00006B9F0000AC9F0000529F0000D2
:1012E0002DE9F04F1646054689B00C467448492151
:1012F00006F0E9FC3146284606F0FDFA6B6A8246A4
:1013000020465E6806F013FAE8B1E86D06F04DF984
:101310000023AF6A013F3344834201D2013FFAE721
:10132000BA4510D35721674806F0CDFC07FB06F3FA
:1013300057210AFB0662644806F0C5FC0123E371ED
:1013400009B0BDE8F08F06A9052000F0C7FC07A989
:101350000B2000F0C3FC21462846079AFFF774FFD4
:101360006379012B4BD15746DFF860B141E0226829
:10137000C2F1010353449F423AD86B6A012A1968AB
:1013800053F8370003EBC70353F8083CA0EB0109FF
:10139000A3EB0103049311D1079B0393E368022B92
:1013A00008D04146284606F003FA22464146284620
:1013B00006F034FA2846039906F0FAF9324649460F
:1013C000404606F0F3F9049B424641462846CDE9E3
:1013D0000096FFF7C9FB2146284606F0B5F92368B9
:1013E0000133236020B1DBF800300133CBF800304B
:1013F000013FDDF81880002FB9D1012323600223BB
:1014000001276371BA45DDF8189006D2484606F008
:1014100067FC079806F064FC92E723689F424DD36F
:101420006A6AFB0052F83710083B04911168DDF836
:101430001CB00391D1582A6DD0581368A0EB030853
:101440002379012B38D1039B3246C91A48460591AE
:1014500006F0ACF9059943464A460091284659469C
:101460000196FFF781FB2146284606F06DF902231D
:10147000237118B1154A136801331360324641468F
:10148000584606F093F9DDE9032349469B1A28469E
:101490005A46CDE90086FFF767FB2146284606F04D
:1014A00053F92368013323600123237130B1074AC4
:1014B00013680133136001E0022BDFD00137A1E78D
:1014C000F29F00001BA000004AA00000BC180020F2
:1014D0000A4619B1024B00211B681847704700BF2C
:1014E0000C00002070B5094D2B780BB1002070BDA9
:1014F0000126074CC4F8006504F042FF18B92E70AD
:10150000C4F80005F2E74FF0FF30F0E7E8210020D3
:10151000000084502DE9F041ACB01F4606460C4651
:101520001546FFF7DFFF0123DFF820802A46C8F8C1
:10153000003521463346009703A807F0E7FE002355
:10154000C8F800352CB0BDE8F08100BF0000845021
:10155000BFF36F8F72B600234FF0FF30094A03F1DB
:1015600020010133102B42F82100F8D100234FF065
:10157000FF30044A03F160010133102B42F82100CF
:10158000F8D1704700E100E0002318460649D1F881
:101590009020C2F30722934200DB7047C1F89830D5
:1015A000C1F8A0000133F6E700ED00E02DE9F843B3
:1015B0004FF0FF3501274FF00008204BDFF88490F3
:1015C0005F60C3F84853C3F8085303F580535F6066
:1015D000C3F84853C3F8085359F8044B002644F3A2
:1015E0000730C4F8085300F023FF80226760C4F876
:1015F0004C61D4F84C31C4F81061D4F81031C4F8FF
:1016000044613146D4F84431A018C4F8006506F0AE
:101610003BFC8022314604F5C07006F035FCB8F181
:10162000000F08D0064BC3F808554FF05023C3F8FD
:101630000853BDE8F8834FF00108CDE700400150A2
:1016400000700150B0960000014B1B68184700BFA6
:1016500010000020014B1860704700BF10000020F0
:1016600007B50B46002102460091034800F006F83A
:1016700003B05DF804FB00BF491600002DE9F04FF0
:1016800082464FF000098DB01D46531E0191039311
:10169000039B58785C1C252819D100204FF0FF3897
:1016A0001E46444603460236029031780396392995
:1016B00055D81F2914D8002900F0EF810199252061
:1016C000D04701993078D04709F10209E0E70028B6
:1016D00000F0E3810199D04709F101090394D7E7AC
:1016E000A1F12002192AE9D801A757F822F000BF7A
:1016F00059170000BD160000BD1600005917000064
:10170000BD160000D9170000BD160000BD16000070
:10171000BD160000BD160000251800005917000076
:10172000BD16000039180000E5170000BD160000C6
:10173000F31700001318000013180000131800001E
:1017400013180000131800001318000013180000ED
:10175000131800001318000008460136A5E75829A1
:1017600000F0EB80A1F16302D7B2172FA6D8172A99
:10177000A4D801A757F822F0E11900005F18000073
:10178000BD160000BD160000BD1600003F18000089
:101790005F180000BD160000BD1600003F180000D5
:1017A000BD160000BD160000BD1600001519000092
:1017B000BD160000BD160000B5190000BD160000E2
:1017C0005F180000BD160000BD16000015190000CE
:1017D000BD1600003F18000025200199D04709F1EF
:1017E000010955E7029A4FF0000802F0FE0202924A
:1017F000B3E7002C0DDAB8F1000F0DDA029A002AD7
:1018000000F043810A2224EAE47402FB0414303C11
:10181000A3E7B8F1000FF5DB0A2202FB0812A2F1E0
:1018200030089AE7B8F1000F55F8042B80F22F81A9
:10183000002A80F22E815442022202928DE768290A
:1018400003D1682B06D1482387E76C2902D16C2B82
:1018500000F02181002B7FF431AF0B467DE77A2B1E
:1018600006D1752955F8046B14D14FF0000B0CE02C
:101870006C2BF6D04C2BF4D1073525F007037529D6
:1018800003F10805D3E9006B06D120283BD1854F31
:10189000013C09E04FEAE67BBBF1000FF5DA764246
:1018A000814F6BEB4B0B013C0DF12D030593002396
:1018B0000493304659460A220023FEF743FC059B59
:1018C000B446303203F8012D5A460593049BBCF10F
:1018D0000A0F8B4672F1000203F1FF3106460491B4
:1018E000E7D2C3F1010B30330DEB0306B8F1000F63
:1018F000A6F104066DDA029BD9077DD4A8EB0B0391
:10190000A4EB0B0413E02B280ABF684F684F04F1C7
:10191000FF34C9E770290FD155F8042B0023FAB919
:101920006FF004034FF0050B614F624E053C029AC5
:10193000920770D4A04666E078216C2B03D1002377
:1019400055F8042B08E04C2BF9D1073525F0070397
:101950001D465B6855F8082B232825D1880621D51C
:10196000554F023C002601F06001A1F1390B0DF149
:101970002D0E02F00F01092988BF594430310EF8AD
:10198000011D102A4FEA121141EA03714FEA131C9C
:1019900073F1000306F1FF3008D2C6F1010B06F126
:1019A0003003A1E7454FDCE7414FDBE706460A4637
:1019B0006346DEE755F8046B304606F043FAB8F1AB
:1019C000000F834602DB4045A8BFC3464FF0000826
:1019D000374FA8EB0B03002B92DDA4EB0804A6E71E
:1019E00055F8043B4FF0010B8DF81830304F4FF095
:1019F000FF33013C06AE9AE7A046EAE702932020B7
:101A00000199D047029BB8F10108F7D524EAE472A6
:101A1000013C9144A41AB84606E00493029201994D
:101A2000D047029A049B9046424612F8010B0028C8
:101A3000F3D11A46013A15D5002BACBFC7EB03070B
:101A40007F425B46013B15D5BBF1000FA8BF5F4449
:101A500026464F44013E14D5002CA8BF3F1907EB82
:101A6000080915E60493029230200199D047049B9F
:101A7000029ADFE70293019916F8010BD047029B07
:101A8000E0E701992020D047E4E70122D5E690461F
:101A900063E6144661E64C235FE648460DB0BDE8B8
:101AA000F08F00BFD8A00000D6A00000DAA0000090
:101AB000979E0000E2A00000DCA00000DFA0000074
:101AC0002DE9F047058B04462807904611D40229DA
:101AD00005F0070540F0CC80204606F01BF878B1F1
:101AE0000138218B042811D8DFE800F0C2106D8581
:101AF000950001290CBF45F0100545F02005258310
:101B000088F31188BFF36F8FBDE8F08701F0070AF3
:101B1000AA4500F0A5800027B9463E46A368002BE1
:101B200000F0BC8041F00801218388F31188BFF3E5
:101B30006F8FA168002900F0BA800D68002900F0BD
:101B4000B680334652462046D1F80480C047002D67
:101B500076D02B6829461D46F0E701F007035A1F8F
:101B6000012A1BD8002221F00701062B276889B221
:101B7000C4E9002209D13B4603E0628B0132628353
:101B80001B68002BF9D141F002012046218305F0AA
:101B9000C1FF00287AD041F0200176E0042B0AD161
:101BA00021F0070189B22046218305F0B3FF10B16F
:101BB00041F020012183218B01F0070AAA454FD073
:101BC0000027B946AAE7236921F0070141F0060181
:101BD000062DD3F8009021832DD1B9F1000F3FD00D
:101BE00041F00801218388F31188BFF36F8F2046ED
:101BF0003949C84729E021F00701236941F0040170
:101C000089B2042DD3F804902183E6D000274FF049
:101C1000040A3E4682E721F00701236941F00501ED
:101C200089B2052DD3F808902183D6D000274FF034
:101C3000050A3E4672E700274FF0060A3E466DE76A
:101C40002B4687E7B9F1000FD1D1EFF3118820239C
:101C500083F31288BFF36F8F238B23F00803238352
:101C6000258BEA062ED525F01003238305F0070502
:101C70006669218B002EBFF670AF00232768C4E988
:101C8000003321F0070141F001012183218B4FF046
:101C9000000901F0070AAA457FF440AF002F9CD04D
:101CA00041F00801218388F31188BFF36F8F002F63
:101CB000C8D03D68394633465246204605F056FFA7
:101CC0002F46F4E7AB067FF51BAF25F020032383F7
:101CD00005F0070500E700BF997B000070B5114BC8
:101CE0000D461C68DCB1104B196800238B4202DBE7
:101CF0006FF0010070BD224612F8106B864202D0D0
:101D000014460133F2E7E06810B96FF01200F1E712
:101D100007F06EF90028F8D000202C60EAE76FF099
:101D20000C00E7E714000020B896000070B588B0FA
:101D300005460C46C0B269461646FFF7CFFF00289D
:101D40001BDB0098C8B14368226802938368019541
:101D5000CDE903360023CDE906230593C56805F0D8
:101D6000BFFF6DB12846084901AA06F0C7FC0798D5
:101D700008B9059B236008B070BD6FF01500FAE745
:101D80006FF01200F7E700BF877D000008B5054837
:101D900005F0A9FE044805F0A6FEBDE8084003488A
:101DA00005F0A1BEE8A0000020A1000053A10000A2
:101DB000014803F05BBF00BFBC97000038B5044684
:101DC00018B90F4B0F485B6898476168B1F5683FD9
:101DD00010D0B1F5680F0DD00B4DA9420AD011F407
:101DE0006861206807D00146084807F05CF90023C5
:101DF0002360656038BD142206F046F8F9E700BF9D
:101E00001401002081A100002C5F5CA9C01D0020EE
:101E100008B500B34368B3F5683F0CD101220368ED
:101E2000D3E8EF1F002903D1C3E8E02F0028F7D142
:101E30000DD1002008BD094A93420AD000684FF036
:101E4000FF324FF0FF3303F0EDF80028F1D00448E3
:101E5000F0E70448EEE76FF4E040EBE72C5F5CA9A5
:101E6000E98FFFFFEA8FFFFF08B5B8B14368B3F50C
:101E7000683F0CD100220368D3E8EF1F012903D18A
:101E8000C3E8E02F0028F7D10BD1002008BD074A96
:101E9000934208D0006803F03DF9F6E76FF4E040A4
:101EA000F4E70348F2E70348F0E700BF2C5F5CA9C2
:101EB000E98FFFFFEA8FFFFF10B5044618B91D4BED
:101EC0001D485B6898476368B3F5683F2FD0B3F54A
:101ED000680F2CD0194A934219D1236803BB4FF0E5
:101EE000FF324FF0FF332146154803F06DF808B973
:101EF00023681BB90F4B13485B68984714220021D5
:101F0000206805F0C1FF4FF46863636008E0B3F533
:101F1000683F0DD83A2B03D040F6BA629342DED127
:101F2000206807F0F8F8636843F03A03636010BD77
:101F3000054AF3E71401002081A100002C5F5CA991
:101F4000C01D0020A7A100003A00003A08B50649CC
:101F500040231422054807F098F8BDE808400449DA
:101F6000044803F0F5BE00BFC0180020C01D0020CB
:101F7000C4970000D897000030BFFFF7FDBF00BF37
:101F8000074A936893F90E10002907DB9269934280
:101F90001FBF044A536843F080535360704700BF2B
:101FA000D81E002000ED00E0154B9A6A12F0007F69
:101FB0009A6A14BF1E201D2012F0807F9A6A18BFF3
:101FC0001F2012F4801F9A6A18BF022012F4002FFB
:101FD0009A6A18BF212012F4802F9A6A18BF222013
:101FE00012F4003F9A6A18BF232012F4803F9A6AC5
:101FF00018BF24206FEA02426FEA12429A627047C9
:1020000000ED00E010B5194B0246986A9C6A10F486
:10201000805F14BF1720162014F4006F9C6A18BF4D
:102020001820A40509D5986B986A000404D51AB144
:102030009A6A22F400429A6219200C4B9A6A12F4AE
:10204000806F9A6A18BF1A20D2050CD49B6A13F4C9
:10205000005F18BF1C20054A936A43F47F439362D4
:1020600000230B7010BD1B20F5E700BF00ED00E062
:1020700010B51C4B0246986A9C6A10F0100F14BFF2
:102080001120102014F0080F9C6A18BF1220A4071A
:1020900009D5586B986A000604D51AB19A6A22F0DD
:1020A00080029A6213200F4B9A6A12F0010F9A6A0B
:1020B00018BF142012F0200F9A6A18BF1520D406FA
:1020C00058BF9B6A074B9A6A920642BF5A6A22F42B
:1020D00000525A629A6A42F0FF029A6200230B7021
:1020E00010BD00BF00ED00E070B5444B06465B68D4
:1020F00000259CB0C3F3080385F31188BFF36F8FED
:1021000002F07F40B0F17F4F11D102F00C0008289F
:102110000DD010074CBF0E4601250022033B8DF861
:102120000720032B05D8DFE803F01E5C60592E461C
:10213000F3E700249DF807309BB96822314602A8D6
:1021400005F097FE099B002D53D0C3F3080222B976
:102150006FEA53236FEA43230993204602A905F04F
:1021600035FE1CB070BD254BDA6A9107E1D4DA6AFE
:10217000002ADEDBDA6A5200DBD55A69B16942F423
:1021800080725A61BFF34F8FBFF36F8F5A6931F876
:10219000021C22F480725A61BFF34F8FBFF36F8F1E
:1021A0004DF60272914209D09A6AD2B242B1012030
:1021B0000DF10701FFF75CFF0446BBE73468B9E7A0
:1021C0009A6A12F47F4F05D001200DF10701FFF745
:1021D00019FFF1E79B6AB3F5803FAAD3FFF7E4FE4E
:1021E000EAE700200DF10701E4E700200DF1070107
:1021F000EDE723F4FF7323F00103ADE700ED00E00A
:10220000064B5A6942F010025A615A6942F48062E0
:102210005A615A6922F008025A61704700ED00E0E5
:10222000EFF30880EFF3098101B57246FFF75CFF19
:1022300001BD00BF002080F31488BFF36F8F002022
:1022400080F30A8880F30B8801F04EFD00200E49D0
:102250000860BFF34F8F0D4880F3088800F01AF82C
:10226000202080F311880A484FF40061401880F361
:102270000988EFF314800221084380F31488BFF328
:102280006F8F00F00DF9000094ED00E0706B0020FE
:102290003022002072B6002383F313884FF0FF3002
:1022A0000C4A03F120010133102B42F82100F8D130
:1022B00000234FF0FF30074A03F160010133102B78
:1022C00042F82100F8D162B6BFF34F8FBFF36F8F92
:1022D000704700BF00E100E0084B9B6883420BD1D0
:1022E000EFF3058343B1064B5A6842F080525A60BF
:1022F0005A6A22F400425A6206F0CBBFD81E002070
:1023000000ED00E06FF00A01084A936899670849F8
:1023100058674B6843F080534B60002383F3118868
:10232000BFF36F8F9368986F704700BFD81E00206F
:1023300000ED00E00E4A936883F8BD00EFF31183CF
:10234000202383F31288BFF36F8F4FF000619369EE
:1023500020F0FF009360074A5160002193F8BD20F0
:1023600010435A6F596782F31188BFF36F8F70471C
:10237000D81E002000ED00E01D498A6882F8BDE00B
:102380004FF030001044EFF3098C80E8F01F1EF08E
:10239000100F03D102F17C0080EC108A7446704665
:1023A000FFF7C8FFA64612498A6886461EF0100F3E
:1023B00003D00023E1EE103A03E002F17C0090EC40
:1023C000108AEFF3148323F0040383F31488BFF31C
:1023D0006F8F02F1300090E8F01F8CF3098802F152
:1023E000000004B505F007FDBDE80440704700009B
:1023F000D81E00201EF0040F0CBFEFF30880EFF38F
:102400000980816911F8021C0229FFD001B505F08D
:10241000E3FC01BD40B2002807DB01234109034A68
:1024200000F01F00834042F82130704700E100E0D7
:1024300040B200280CDB01220649430900F01F00CE
:102440008240203341F82320BFF34F8FBFF36F8FBB
:10245000704700BF00E100E0054B420953F822201D
:10246000012300F01F0003FA00F01040704700BF86
:1024700000E100E040B2002801F10101ACBF00F131
:102480006040064B4FEA4111C9B2ABBF00F5614055
:1024900000F00F0080F800131954704714ED00E0AD
:1024A000144A08B5144B22F07F029A60BFF34F8F95
:1024B000BFF36F8FD3F8882022F47002C3F888200E
:1024C000D3F8882042F4A002C3F888204FF040429D
:1024D000C3F83422BFF34F8FBFF36F8F0023E1EEB9
:1024E000103A02F0B5FC03F01FFA00F07DF802F09C
:1024F000EFFC00BF0000000000ED00E042F8203CCF
:10250000009B0D4942F81C3C019B21F0010142F85F
:10251000183C029B42F8081C42F8143C4FF08073B0
:1025200042F8043C002343674FF47D43203A0265A0
:10253000C0F8BC30704700BF017B0000104B9B68A7
:1025400083421AD1EFF30580B8B9EFF3118120224D
:1025500082F31288BFF36F8F1A7B22F002021A7384
:10256000EFF3148323F0040383F31488BFF36F8F16
:1025700081F31188BFF36F8F70476FF015007047BC
:10258000D81E00200E461546002300B5E1EE103A95
:10259000EFF3148323F0040383F31488BFF36F8FE6
:1025A000BFF36F8F0A4B9860436E83F30B882C4602
:1025B00086F309884FF00000064B984720464FF0FD
:1025C00000014FF000024FF00003034C204700BF12
:1025D000D81E0020FF7D0000017B00001022014B6F
:1025E0001A61704700ED00E0002320210348C21863
:1025F0000133412B82F80013F9D1704700E100E06C
:1026000008B5EFF30583064A103B02EBC30152F80D
:10261000330049688847BDE80840FFF7B1BC00BFF8
:1026200060940000014B1860704700BF3800002024
:102630000122024B0020C3F8402570470090035050
:1026400020B1034B800143F001031847704700BFDE
:1026500080960000084B70B5C31A0D4607499B10C1
:10266000044659434022064805F023FC2B46014608
:102670002046BDE870401847F01D0020B76DDBB65E
:10268000D4930000402373B50B4C0093041B0B46FE
:102690000D460A49A41061430646094A094805F057
:1026A00033FC011E05DA30462B4602B0BDE870400F
:1026B000184702B070BD00BFF01D0020B76DDBB63B
:1026C000717F0000D493000010B5EFF31184202334
:1026D00083F31288BFF36F8F074A136823F0020158
:1026E000DB07116002D4012006F0AAFB84F31188F5
:1026F000BFF36F8F10BD00BF401E002070B50022D9
:10270000012104460520FFF7B5FE0F4801F016FC35
:102710000E4B984215D101F021FC26690C49304638
:1027200005F048FA00280BDB0125356424690849C7
:1027300004F11C0005F03EFA002801DB0020E564EE
:1027400070BD6FF00400FBE7512800000000AD0BE6
:10275000E89700001FB500220123CDE902236B4654
:10276000084ACDF800D0CDF804D005F0FAFB0028D7
:1027700005DB4FF480420023684602F02BFD05B0D4
:102780005DF804FB917F00000C22104B014602FB18
:102790000033002030B4D3E90E529863EFF3118078
:1027A000202484F31288BFF36F8F1C6C04F0C004E4
:1027B00044F002041C6480F31188BFF36F8F1DB1D5
:1027C0002B4630BC0248184730BC7047F01D002033
:1027D000D493000010B4EFF31182202383F3128806
:1027E000BFF36F8F1848016841F002040460C80706
:1027F00008D482F31188BFF36F8F01205DF8044B7A
:1028000001F0C0BB4FF05021D1F80C04D1F80C14EA
:10281000C907EED5EFF3118083F31288BFF36F8FF2
:102820000A490B6C03F0C00343F002030B6480F30E
:102830001188BFF36F8F82F31188BFF36F8F002071
:102840005DF8044BFFF7A0BF401E0020F01D0020E4
:1028500010B1012804D07047034B1B6C5B0701D1FA
:10286000FFF792BF704700BFF01D00202DE9F04137
:10287000012207463649D1E8EF3FC1E8E02F0028A2
:10288000F9D133B9334934484B60CB608A6005F0E5
:10289000A4F97B1E012B2BD8012F07D14FF0502319
:1028A000D3F81C3403F00303022B21D006F046FCBE
:1028B0000546F8B9294B1B78E3B14FF050230222AB
:1028C0000646C3F808234FF05024DFF89480D4F86C
:1028D0001824D4F81834D20315D503F00303022BBF
:1028E00001D0012F0FD16DB386F31188BFF36F8F25
:1028F000BDE8F081EFF31186202383F31288BFF344
:102900006F8F0125DFE7C5B1304605F08CFAD4F8AA
:102910001835DBB2012BDAD1D4F80421002AD6D045
:102920000022C4F80421D4F804210222C4F8182596
:102930002022C8F88021A360C9E70021212002F0ED
:1029400049FFE4E74FF050230222C3F80423CFE706
:10295000EC1D0020DC1D00200C1E00202D2200207C
:1029600000E100E008B5074806F042FB38B1064830
:10297000FFF758FE0448FEF76DFE002008BD6FF01B
:102980001200FBE7109400008D2900000A2838B5DA
:102990000446074D04D1AB680D2128465B68984773
:1029A000AB6803485B68E1B29847204638BD00BF7A
:1029B0001094000000487047B4980000024B0B6070
:1029C00001231360704700BF641E00200048704759
:1029D000D098000010B501220648114606F0A2FB6F
:1029E00006F095FA044C206006F08EFA6060002034
:1029F00010BD00BF6C1E0020641E002070B50C4688
:102A0000154606F081FA29460646204605F01AFECC
:102A100008B3B4FBF6F306FB1343E3B9B5FBF6F3D7
:102A200006FB1353BBB9AE4201D9002070BD4FF075
:102A3000FF324FF0FF33094802F0CCFB06F064FA96
:102A40000646204601F0C0FEAD1B3444F9D10348D0
:102A500002F09CFBE9E76FF01500E7E76C1E002031
:102A6000F8B50E461946304617461C4605F0EAFDF5
:102A700008B344EA060515F003051CD1A4B14FF0D4
:102A8000FF324FF0FF330D4802F0A4FB24F00304A3
:102A9000A54206EB050009D1094AD2F80034DB074C
:102AA000FBD5064802F072FB0020F8BD795901F011
:102AB000A9FE0435ECE76FF01500F6E76C1E002068
:102AC00000900350C3780F2B14D9C96B0B480B0E21
:102AD00013708B0200EA911003F47C030906034390
:102AE00001F0FE4110680B43054901400B430020F3
:102AF000136070476FF08500704700BF00FF030050
:102B0000FF00008038B545682B69B3B11035284601
:102B100001F036FD044680B90146284601F0FEFC6E
:102B2000084B98420BD122462846074901F0DEFCAB
:102B3000224605210D20FFF79DFC002038BD6FF0D7
:102B40000400FBE70000AD0B4D2B0000430970B5FE
:102B500007D10B4B596821B101250C68094E8540FE
:102B600001B970BD8A682A4002D030464B68984748
:102B70001CB1236821461C46F2E72346FAE700BF52
:102B80007C1E0020E89300002DE9F04340F206355A
:102B90004668D00648BF0320337B02EA050558BFCC
:102BA000C2F3401087B001F01F07B5F5837F1446CC
:102BB00047EA43178DF8030042D00FD8062D18D0EE
:102BC00007D8B5B1022D3DD06FF0150007B0BDE8B4
:102BD000F083B5F5807FF7D101250AE040F20222AB
:102BE000954231D0B5F5407F30D0B5F5007FEBD1BF
:102BF00002250123220303FA01F129D573689960A4
:102C0000326952BB07F01F037F0973D13B4A84F43A
:102C1000803102EB8302D2F80032C1F30041C4F3E9
:102C2000404423F4E16344EA410423F007031C43D6
:102C300044EA800444EA0524C2F800420020C5E7C3
:102C40000725D6E70425D4E70525D2E70325D0E7F5
:102C5000630344BF7368D960D2E710363946304603
:102C60000DF1020201F048FC14F4403F80460CD103
:102C70003946304606F03EF9214B9845DED13046C4
:102C80009DF8021001F086FCD8E74FF0000901AB77
:102C90003946304603AACDE90439CDE90199CDF88A
:102CA0000C9001F0FDFA164B98428DD114F40033CC
:102CB00015D09DF8033084F48034C4F300448DF8BB
:102CC0000E3039464B46304603AA8DF80C508DF82D
:102CD0000D4001F093FB0A4B9842CDD074E7CDE94B
:102CE000043339460DF10303304603AA039301F080
:102CF000D7FAF0E7803352F82330FFDE0025845006
:102D00000000AD0BF0B5406801F01F04057B87B0F3
:102D100044EA45140569002D5FD0B2F5001F00F1AB
:102D2000100506D12146284606F0E6F8002007B037
:102D3000F0BD0027B2F5800F01AE0197776037D163
:102D4000B3F1007F14BF052304238DF80430002362
:102D5000CDE904630393836823FA01F111F00101C3
:102D600018D1B2F1A07F15D104F01F03620903F15D
:102D7000800338D11D4A52F82330DB070AD40DF105
:102D8000030632462146284601F0B6FB184B98420E
:102D900019D002962146284603AA01F081FA154B64
:102DA00098421DD101222146284601F0FFFBBDE7D4
:102DB000B3F1C06F05D0B3F1007F14BF012302232C
:102DC000C3E70323C1E73146284601F0E9FB094B7D
:102DD0009842DED06FF00B00A9E76FF08500A6E700
:102DE0006FF01500A3E751F82330FFDE0025845073
:102DF0000400AD0B0000AD0B2DE9F04740F2FF16CB
:102E0000594FDFF868C1DFF868E100EB81018142CA
:102E100002D10020BDE8F087046814F4804FC4F3A9
:102E2000C325C4F3080340F08C80240EB34208BFCE
:102E30004FF0FF337D5D192C00F28680DFE804F04F
:102E40000D13191C1F251C8484848436608484849B
:102E500084848484848463787B7EC2F80C355C1C13
:102E60005BD10430D3E7C2F814355C1CF9D00024E0
:102E70005CE0C2F80835F2E7C2F81035F5E75C1CF3
:102E8000C2F80835EDD0002404E05C1CC2F80C3513
:102E9000E7D001245FEA531859D14FF00109DFF858
:102EA000CC8009FA03FAC8F80CA008E0C2F808358B
:102EB000002DDAD15C1CD4D000240625A146D0F820
:102EC00000A00AF40048B8F1000F1CBF4FF0000941
:102ED000012403F01F085B093FD10CEB8808D8F8E8
:102EE0000032CAF3412A03EA0E0343EA8A0343EAA3
:102EF000052343EA090343EA4403C8F80032B0E774
:102F0000C2F80C35D4E7C2F86035B3F1FF3F04686E
:102F1000A7D0C4F30044002CBBD05C091AD1012413
:102F2000DFF8488004FA03F9C8F80890A146C6E71C
:102F3000C2F86435E9E7C2F86835E6E7C2F86C35EF
:102F4000E3E76FF0150065E76FF0850062E70023A7
:102F5000DB60FFDE00239B60FBE7002308F18008B5
:102F600053F82830F5E700BF1EA20000002584506A
:102F7000F0F8FCFF2DE9F04104460D46476806F0E5
:102F8000DDF84FF0200888B9264B1B7873B1642612
:102F9000606805F06CFCF0B9012005F0EDFE013E23
:102FA000F6D10021212002F015FCF0E7EFF31186A5
:102FB000314688F31288BFF36F8F606805F057FCC5
:102FC000A8B986F31188BFF36F8FEFE786F31188F6
:102FD000BFF36F8FE5E7EFF31186314688F3128870
:102FE000BFF36F8F606805F042FC0028EED0BB692C
:102FF00000201D706368BA691B68C3F8442501226C
:10300000C3F84825C3F82001D3F82041C3F858017C
:10301000D3F858019A6081F31188BFF36F8FBDE830
:10302000F08100BF2D220020F7B5054642681369E4
:103030001168C1F82435137D507D927D03431343FD
:10304000C1F86C356E68D6E9004313F0010348D02F
:103050002F6907F1080005F098FE304B98425AD1CD
:10306000387A04F10C0204F5907105F087FE387A85
:10307000012707FA00F000F05BFF0823C4F80035D1
:10308000B369C4F844350023C4F84835A760D4F8C0
:103090005831002BFBD00021C4F800156B6801AA41
:1030A000DC68204605F0B6FB002805DB019B2268A2
:1030B00019791868FFF7A0FE08216A681368C3F839
:1030C0000015117A51B9D269C3F834250122C3F829
:1030D0003825C3F81011D3F810111A60002003B07E
:1030E000F0BD0822C4F80025B269C4F84425C4F82C
:1030F00048350123A360D4F82031002BFBD00023F6
:10310000C4F82031D4F820310123E3604FF48073F8
:10311000C4F80433BBE76FF00400E0E70000AD0B38
:103120002DE9FF4105690646D0F80480A86C2B6D97
:10313000002835D1002B53D0B8F830406A6C9C423F
:1031400028BF1C46EF6CEB6C53B1296D41B107F001
:103150006041B1F1005F03D0202C28BF20246F6EA6
:1031600000926A6CAC651AB1AA6C002A18BF22469C
:10317000CDE901271BB12B6D002B18BF2346002280
:1031800069464046039301F0F5FC184B984229D05C
:103190006FF00401304604B0BDE8F04105F092BC88
:1031A000696CEF6C0A46B8F83040ABB1834228BF77
:1031B00003469C4228BF1C460029C4D001F060434E
:1031C000B3F1005FBFD0202C28BF2024286E2246F8
:1031D00004F04FFE2A6EB6E7844228BF0446EBE7B0
:1031E0001946D7E704B0BDE8F08100BF0000AD0B81
:1031F0002DE9F04F984643688DB001938B880F46B8
:10320000990405469146046900F10E814FF0FF32A2
:103210004FF0FF3304F1100001F0DCFF6760D5F8D8
:1032200004B0D5F810A0DBF8083003939AF85D30AD
:103230001BB1DAF800309F427AD0B7F804E01EF4F0
:10324000006F40F01E811EF0090F40F01781CEF391
:103250004513082B40F012813B680293029AA04B61
:103260009A4240F20B8104AE0BF10C0CBCE80F004B
:103270000FC69CE80F0086E80F00DDE902329A4293
:1032800028BF1A46974B9A4215D2974B9A4200F2A2
:10329000D480964B9A4200F2D280954B9A4200F22B
:1032A000D080944B9A4200F2CE809348934B94493D
:1032B000824288BF0B461EF0020F09930EF00403F2
:1032C00000F0C380002B14BF032302238DF82830A5
:1032D000CEF300138DF82930DBF800301EF0020F1A
:1032E000D3F8082587484FF00103CEF340014FEA99
:1032F000521640F0AE80002E40F0ED809340C36047
:103300009AF85D302BB1584601F0F8FB00238AF89B
:103310005D302B4658467C4A04A901F0BBFB7B4B31
:10332000984240F09B800123CAF800708AF85D3013
:10333000012384F85C30019B996B4A1C03D003F194
:103340003C0000F01DF9B9F1000F40F09D80C4F879
:1033500034900023A36304F1480204F1380104F11E
:10336000340005F0D8FA6064B8F1000F40F09580A1
:10337000C4F83C800023236404F1500204F14001AE
:1033800004F13C0005F0C7FA002601213246E06452
:103390002663204605F0F5FA2846FFF7C1FE3246BF
:1033A0003346A06B834240F0818000231946266C8F
:1033B000B14240F08280934238BF134627464FF413
:1033C000FA524FF0000802FB03F657F8203B4FF487
:1033D000004C1B684146B6FBF3F640F2E730C836B6
:1033E0004FF47A720023E6FB0C01FCF7ABFE0246B9
:1033F0000B46384601F0EEFE024618B9266B16F170
:10340000740F61D10198C4F8588001F077FB6FF018
:103410007301284684F85D8005F054FB384601F0BE
:10342000FFFE6FF073061BE0A369002B7FF4EEAE86
:1034300063689F427FF4EAAEF1E6354B3BE7354BDC
:1034400039E7354B37E7354B35E7003B18BF0123EC
:103450003CE7002E41D19340836051E76FF00406B2
:1034600023689B8813F4005304D1636004F11000B7
:1034700001F08CFE30460DB0BDE8F08F6FF0150600
:10348000EEE76FF08506EBE7D9F800306363002BB9
:103490003FF45FAFD9F804305CE7D8F80030E3635D
:1034A000002B3FF467AFD8F8043064E7616B01EBA1
:1034B000C301496801330A4474E7E06B00EBC100C3
:1034C00040680131034473E7002EC9D001462869E2
:1034D00005F057FAC4E7C960FFDE00239B60FBE7F5
:1034E00047E8010000127A00FF083D007F841E00BB
:1034F0003F420F001FA107008FD0030048E80100E2
:1035000090D0030000258450E78A00000000AD0B36
:1035100000093D0080841E0040420F0020A10700EA
:103520000123F0B587B08DF80230022300248DF816
:1035300004306B4403930F4601AB0DF10301049378
:1035400005460291059401F02BF80C4B0646984273
:103550000FD13946284603AA00F0A2FEB0420BD094
:1035600028469DF8031001F015F86FF0040007B02D
:10357000F0BD6FF01200FAE72046F8E70000AD0B4F
:103580002DE9F0410D46064605F0B8FC002207463D
:103590002946304601F00AF86B0905F01F0429D1CD
:1035A000174B03EB8404D4F80022164B134043F06E
:1035B0000C03C4F8003205F0FBFA80463368DB598F
:1035C0007BB100273046294605F096FCD4F800224E
:1035D0000C4B3846134043F00403C4F80032BDE8F6
:1035E000F08105F0E5FAA0EB08000628E6D96FF0B7
:1035F0007307E7E70023803453F82430FFDE00BF71
:1036000000258450F0F8FCFF0123834070B5DC43B3
:103610000B4AD2E8EF1F01EA0405C2E8E65F002E7C
:10362000F7D14FF4803282400648C0F80823BFF338
:103630005F8FBFF36F8F0B4214BF0120002070BD5E
:10364000A41E00200050015070B40E4922F07F46A5
:10365000D1E90034D01AC31844F10004C1E90034A0
:10366000A6F50013B3F5400F09D2074B1B681A0AE1
:103670001B069C19054B42F10005C3E9004570BCCF
:1036800002F02CBAE8010020A81E0020F001002062
:10369000D9B101230D4A8340D2E8EFCF4CEA030CA5
:1036A000C2E8E1CF0029F7D14FF48033084A8340C4
:1036B000C2F80433074BD3E8AF3FC340DB0742BF38
:1036C0004FF40012044BC3F800217047A41E0020E1
:1036D00000500150A01E002000E100E00D4B1868D2
:1036E000010A0006BFF35F8F0B4BD3F8043518189F
:1036F00041F10001B3F5801F0AD2084BD3E9002342
:10370000904271EB030303D210F1807041F100018C
:10371000704700BFA81E002000500150F00100209B
:103720002DE9F04F85B016461F4604469DF840A08F
:10373000FFF76AFF0190FFF7D1FFB04271EB07037B
:1037400052D23B4B301A67EB0101984271F10001F4
:103750004DD2384B03EB0413D3E902239F4208BF39
:10376000964258D04FF48038334908FA04F820467E
:1037700026F07F4BC1F8488305F00EFA4FF003099D
:10378000584604F15005AD00ADB205F1502504F5E1
:10379000A87305F580350293029A20F07F4341F823
:1037A0002230C1F84483D1F80435244AC01A0338C2
:1037B00020F07F4090422ED9286868B1D1F80435B6
:1037C000A3EB0B0020F07F40B0F5000F039322D94C
:1037D000204605F0E1F9039BBAF1000F07D109EB90
:1037E000030009F10109D7E7BAF1000F09D06FF022
:1037F000150520460199FFF74BFF284605B0BDE8A7
:10380000F08F01230E4AA340D2E8EF0F1843C2E81D
:10381000E10F0029F8D107490E982301C8500F9BEA
:1038200001EB04120025C2E902675360E1E700BF23
:1038300001008000D801002000500150FDFF7F00F2
:10384000A01E00207FB500254FF0FF304FF0FF3164
:10385000194C1A4B0226C4F80833C4F84833184BE5
:10386000C4F80855C3E902014FF480334FF4001245
:10387000C4F80433134B0121C4F804631520C3F8C2
:1038800080212A46FEF7F6FD1520FEF7C3FD012331
:103890000D4AA360236013600C4B0D4A0093284629
:1038A0000023CDE90155FFF73BFF3046FEF7DEFF71
:1038B000284604B070BD00BF0050015003000F0047
:1038C000D801002000E100E0A41E002049360000DD
:1038D000FFFF7F002DE9F7432E4BD3F80423900719
:1038E0000BD5D3F8042142B10022C3F804212A4A9F
:1038F000D3F80431136801331360264AD2F8043335
:10390000D90326D5254BD3E8EF1F21F00100C3E8EA
:10391000E40F002CF7D1CB0702D4D2F84031C3B169
:1039200000251C4CC4F84051D4F84031FFF7D6FEB6
:10393000EFF31182202383F31288BFF36F8F184BAC
:10394000D3E90267B042B94106D282F31188BFF3CE
:103950006F8F03B0BDE8F0834FF0FF38D3E900105C
:103960004FF0FF391D60C3E902894FF48033C4F87A
:103970004833C4F84051D4F8403182F31188BFF382
:103980006F8F0029E5D0009032463B462846884795
:10399000DFE700BF00500150A81E0020A01E00203D
:1039A000D801002030B5431C124C85B005D08442AC
:1039B000A8BF0446012CB8BF0124FFF78FFE0E4BB1
:1039C0000C4DD3E90013401AB0F5000F0FD22218A6
:1039D000AA4228BF2A46002052180849CDE9010012
:1039E000009143F10003FFF79BFE05B030BD2A466E
:1039F000F1E700BFFFFF7F00E8010020493600002B
:103A000008B5FFF76BFE024B1B68C01A08BD00BF6C
:103A1000E8010020012310B5074C15206360FEF774
:103A200007FD4FF40012054BC4F80833C4F84833BF
:103A3000034BC3F8802110BD0050015003000F005C
:103A400000E100E040EA0103C3F30E0330B58BB997
:103A500040F21515094CC90BC0F3C730994201D18A
:103A6000002030BDC218D2B202F5C07244F8225014
:103A70000133F3E76FF01500F3E700BF00300050AB
:103A800030B5816885B0103921F00704054604F08F
:103A900073F910220146684604F0F6F910226846D0
:103AA000064904F0E6F910236A462146284604F048
:103AB0002DF9003818BF012005B030BDD69B00009D
:103AC00030B50D46816887B0102302AA103904462C
:103AD00004F007F9002802DA012007B030BD1022F7
:103AE000204602A905F087F800283AD110221E4985
:103AF00002A804F0AEF900280CBF012302232B70AA
:103B0000204605F064F8012301460DF10702204626
:103B100004F0E7F80028DFDB9DF80730204603F0CB
:103B20000F021B096A702B7101220DF1070105F0CC
:103B300062F810B96B78042B03D901236B70002352
:103B40002B71A2682046183A22F00702083AA91CF5
:103B500005F064F80028BFD12046E91C05F0B7F84D
:103B6000BBE70323CBE700BFD69B0000F0B5354F82
:103B700085B046000546694657F8260005F0ADF8C1
:103B8000044610B1FF2005B0F0BD013657F82600FD
:103B900002A905F0A2F8012837D12A4649212A486E
:103BA00004F091F8294B8DF80C40029300229DF807
:103BB00000609DF80870264C3146207805F00DF81D
:103BC00050B33946607805F008F828B3A378042B81
:103BD00003D09DF8031099421ED1E378042B03D043
:103BE0009DF80B10994217D12379042B10D16279DB
:103BF000022A1DD1174B18482A46492104F063F8C0
:103C00006079831E022BBED9BCE70028CED0B9E76D
:103C10009DF802109942EAD00132032A04F1060409
:103C2000CAD10E482A46492104F04DF80120AAE7DE
:103C3000032A05D00A4B0B49042A08BF0B46DAE7D2
:103C4000094BD8E7249A000066A200000301030391
:103C5000FBA2000048A20000B1A20000D5A2000013
:103C60004DA200005FA2000043A2000008B5EFF3E0
:103C70001083012B0C4A07D1126ABFF34F8F511CDE
:103C80004A424A41104608BD05F054F800B172B6E8
:103C9000126ABFF34F8F531C5A425A4105F04AF83B
:103CA0000028EFD062B6EDE70080FF0008B5EFF323
:103CB0001083012B0B4A06D1D269BFF34F8F02F05C
:103CC0000102104608BD05F035F800B172B6D269A0
:103CD000BFF34F8F02F0010205F02CF80028F0D05E
:103CE00062B6EEE70080FF0010B505F023F830B1B2
:103CF0004FF050230022C3F81421C3F8182105F017
:103D000028F828B10122644BC3F8382AC3F8782573
:103D10004FF47F02D2F83031D2F83421BFF34F8F05
:103D2000C3F30B03092B05D1012A1EBF01225A4BF5
:103D3000C3F8782505F00DF818B10E22574BC3F8DB
:103D4000E42E04F0F7FF30B10022534BC3F80C27E8
:103D50000122C3F810270022D30003F57F03D3F814
:103D60000013BFF34F8F013108D0D3F80013013295
:103D7000D3F80433B2F5807F0B60EDD1EFF31084FC
:103D8000FFF794FF00284DD0BFF34F8F444BD3F87B
:103D90000024012AFBD1C3F80425D3F80024012A0A
:103DA000FBD1012C03D004F0C5FF00B172B6FFF7C0
:103DB0007DFF58B13B4AD36923F00103D361BFF3C0
:103DC0004F8F374AD2F80034012BFBD1FFF74EFF5B
:103DD00068B1344A136A23F0FF0343F020031362EF
:103DE000BFF34F8F2E4AD2F80034012BFBD1012CA8
:103DF00003D004F09FFF00B162B60022284BC3F845
:103E00000425D3F80024012AFBD1BFF34F8F2649A4
:103E1000264BCA6802F4E0621343CB60BFF34F8FB6
:103E200000BFFDE7FFF722FF0028ADD11E4AD2F800
:103E30008C3043F44063C2F88C304FF47F03D3F8E6
:103E40003021D3F83431BFF34F8FC2F30B02092A6C
:103E500016D1013B022B02D8154AD35C83B111481D
:103E6000144903680E4A8B420CBF5A230023C2F840
:103E7000103EC36A8B420CBF5A230023C2F8003E97
:103E8000094AD2F8883043F47003C2F88830BFF38F
:103E90004F8FBFF36F8F10BD0040005000A0035044
:103EA000009003500080FF0000ED00E00400FA05E0
:103EB0000DA30000FA50FA5030B50468ACB1B4FA62
:103EC00084F30122C3F11F03DBB29A4024EA020209
:103ED000D0E8EF5FA54204D1C0E8EC2FBCF1000FA1
:103EE000F6D1EAD102480B7030BD0248FCE700BFB2
:103EF0000000AD0B0200AD0B10B50368CB40DB0733
:103F000010D401238B40026843EA0201D0E8EF4F4E
:103F1000944204D1C0E8EC1FBCF1000FF6D1F2D1FD
:103F2000014810BD0148FCE70000AD0B0400AD0BDB
:103F3000014BC3F80405704700700150044B1A7917
:103F400022B9012218601A7102487047024870476E
:103F5000AC1E00200000AD0B0C00AD0B08B5084BEB
:103F60001B6833B10520FEF777FA10B90520FEF77C
:103F700051FA4FF050230122C3F8182508BD00BFA5
:103F8000AC1E002010B510B1012847D010BD4FF075
:103F90005023D3F81814D3F81824C90322D502F0FB
:103FA0000303022B05D0012B02D0002004F0EFFE0A
:103FB00001234FF050220220C2F8183508224FF496
:103FC0008273002103F1502319601C68012402F15F
:103FD00050221460164A126822B34FF05023C3F8DF
:103FE0000403D3E7D3F81424D207E1D5D3F81C2473
:103FF00002F00302013A012AD7D80D4A12681AB119
:104000000222C3F80423C1E7D3F80421002AFBD01D
:104010000022C3F80421D3F80431B7E700224FF49B
:104020008073CEE71A68002AFCD019601B68ADE7E0
:10403000AC1E00204FF0502310B5D3F8002152B130
:104040000020C3F80001D3F800210122C3F808239F
:10405000104B1B6898474FF05023D3F8042182B1CE
:104060000022C3F80421D3F80421D3F81824D3F88C
:104070001824022102F00302012A03D1C3F8181503
:104080009A6010BDC3F80813024B0120BDE8104030
:104090001B681847AC1E002001460148FFF70CBF03
:1040A000A4000020036803F01F025B0902600248BD
:1040B00018BF0020704700BF0025845070B50D4C1C
:1040C00000F1080334F813300546DA050E4607D52B
:1040D000C3F3432304EBC302526854F833309847C8
:1040E000A3682BB131462846E268BDE87040184706
:1040F00070BD00BFA8000020024611F0010004D0EE
:1041000003490B6A13600B6203B90020704700BFBC
:104110000025845010B4134AC0B2083032F8103071
:10412000D9051CD5C3F3432123F4F85322F81030EA
:10413000002002F10E0434F8023F13F4807F03D014
:10414000C3F3432399420AD001302028F3D100233E
:1041500042F8313004485DF8044BFFF7CDBE5DF8FE
:10416000044B7047A800002000010020F0B5054670
:1041700000200126044607468C420BD1114BD3F890
:104180007C2132B10022C3F87C21D3F87C3140F08D
:104190000040F0BDE3B29B0003F580729B0806FA75
:1041A00003F31D420BD002F1A04202F55042D2F8B7
:1041B00000C0BCF1000F02D0176012681843013430
:1041C000DAE700BF00D00050064BC0B2083033F829
:1041D0001000830643BF400B800000F580704FF451
:1041E000BE707047A8000020CBB2024608460D49B9
:1041F000083331F81330990611D599070FD40121EE
:1042000010685B0B9940C0F80813126802EB830337
:10421000D3F8102522F00302C3F8102570470021BF
:1042200004F059BEA8000020F7B5194ECDB20835EC
:1042300036F815300746DB070C4626D5FFF7D4FFC6
:1042400036F815309A0608D55A0B3B6803EB820303
:104250000022C3F81025C3F810252046FFF75AFFA7
:10426000002301A826F815300194FFF71BFF019BDE
:1042700000EB8300D0F80022064B134043F002030A
:10428000C0F80032044803B0F0BD0448FBE700BFAB
:10429000A8000020F0F8FCFF0000AD0B0400AD0BFF
:1042A0002DE9FF41136807460C461646FBB1DFF8BF
:1042B0004481CDB2083538F8152002F02202222AB6
:1042C00022D000222046CDE900228DF80E208DF864
:1042D0000F200DF10E010DF10F0204F0B3FD38F8BF
:1042E000153023F0020343F0010328F815307368FA
:1042F0004BB31A785868DFF8FCC0E3B208333CF8D7
:1043000013108D0702D5B0B138481FE021F020010D
:10431000C904C90C2CF8131068B1032AF4D87068CA
:104320003D68406890F800E005EB8E058AB9C5F855
:104330001025C5F810253CF8131021F01C0141EAA6
:1043400082022CF81320B3682BBB294804B0BDE8C7
:10435000F081D5F8108541EA4E3128F00308C5F800
:1043600010853D6841F0200105EB8E05D5F810055C
:104370002CF8131020F4473020F44070C5F81005D5
:104380002002D5F8107500F4F85040EA0240384396
:10439000C5F81005CFE72046D3E90067FFF7BAFE5E
:1043A000002ED2D0134DD5E90023964203D19F426F
:1043B00001D1002209E010480DF10F01FFF77CFD4B
:1043C0000B4B9842C2D19DF80F20E4B205EBC2031B
:1043D00008345F6035F8143045F8326043EA422310
:1043E00043F4807325F81430AFE700BF0400AD0B31
:1043F0000000AD0BA8000020000100202DE9FF41C6
:1044000007460C461E4612B3DFF8D480CDB20835FD
:1044100038F81530980701D4990621D413F01C0FF1
:1044200002D05378012B1BD001238DF80F300023CD
:104430002046CDE900230DF10F01931C013204F059
:1044400001FD38F8153043F0030328F81530002E2D
:1044500044D0234DE1B2083135F81120930703D43D
:10446000204804B0BDE8F081002096F800E03B68E9
:1044700022F02002D20403EB8E03D20CC3F8100505
:1044800025F81120C3F8100596F801C04FEA8E08F0
:10449000BCF1000F22D03868B6784044D0F810350F
:1044A0004FEA0C4C23F4981323F4F853C0F810355A
:1044B000230203F4F8530CF4403C3605D0F8107591
:1044C00043EA0C0306F48016334342EA4E323B4380
:1044D00042F02002C0F8103525F811200248C0E74C
:1044E000A80000200400AD0B0000AD0B014BC3E998
:1044F00002127047A8000020054BC9B2083133F8FA
:104500001130990643BF5B0B024813700248704795
:10451000A80000200000AD0B0400AD0B70B5154DD8
:10452000064695F860401CBB2146402205F110006C
:1045300003F0AAFC214630682E6D8E420ED1002376
:10454000C0F87C31D0F87C3140F30730FDF762FFD2
:104550000123094885F86030AB6570BDCBB29B0084
:1045600003F580727C2B04BF845083580131E4E74B
:104570000248F2E7A80000200000AD0B0C00AD0BD4
:10458000034B93F86000003818BF0120704700BF4C
:10459000A80000200148FFF7AFBC00BFFC000020CE
:1045A0000148FFF789BC00BFFC00002073B5036819
:1045B0000C46D3F804130029A4BF4FF00041C3F800
:1045C00004131E49E3B2083331F8133099061AD5A3
:1045D00013F0020617D15B0B05689C0004F580718F
:1045E0006E50695801682144D1F8104544F0010427
:1045F000C1F810452AB10122016802FA03F3C1F89B
:10460000043302B070BDC3F38203042B11D0052B19
:1046100011D001A80194FFF745FD019A0369D34029
:1046200003F00103991C204602B0BDE8704004F07D
:1046300052BC0321F7E70221F5E700BFA8000020E4
:104640002DE9F347534B544FD3F80403396DC0B2EF
:1046500040F00040FFF78AFD051E18DA0023684687
:10466000F96D00934FF00108FFF746FD97F85C30B5
:10467000DA0757D4396D4FF00040FFF777FD6846F1
:10468000F96DFFF739FD0028F0D125F00045012430
:10469000002D66D102B0BDE8F08794FAA4F4B4FA14
:1046A00084F4E00804F1080337F8139004F00702DB
:1046B0001DF8003008FA02F223EA02030DF8003078
:1046C00001A80194FFF7EEFC019B4FEA99018033AA
:1046D00050F82360C9F3820A4B07D146C6F301465E
:1046E00024D520465146FFF7E9FC01A80194FFF7C5
:1046F000D9FC019BF6B2803350F82330C3F3014359
:104700009E4207D10021204604F0E5FB31462046B9
:1047100004F0E1FB01A80194FFF7C4FC019B08FA37
:1047200003F30362009C002CB7D1A3E7022E0CD147
:104730000321204604F0CFFB0AF00503012BE9D149
:1047400049462046FFF7BAFCE4E70221204604F080
:10475000C2FBBAF1030FF3D0032EDBD1BAF1020F83
:10476000EDE795FAA5F3B3FA83F304FA03F29B009D
:1047700003F1A04303F55043D3F81005D3F8101507
:10478000C0F30420C1F3014125EA0205FFF796FCBE
:104790007EE700BF00D00050A80000200022034B9D
:1047A000C3F88425C3F80425704700BF0090035068
:1047B000044AD2F80834DB07FBD50160BFF35F8FF2
:1047C000704700BF0090035008B5C0F30B0383B9D6
:1047D0000222094BC3F88425C3F804254FF0FF32A9
:1047E0000260D3F80024D207FBD5FFF7D7FF0348B8
:1047F00008BD0348FCE700BF009003500000AD0B6C
:104800000A00AD0B012208B5054BC3F88425C3F897
:104810000425FFF7CDFFBDE80840FFF7BFBF00BF8D
:1048200000900350430904D10123034A834093605D
:10483000704700239B60FFDE002584500C4B98429C
:1048400013D00AD80B4B98420FD00B4B98420CD088
:104850000A4BC31A584258417047094B984204D03A
:10486000084B984201D0084BF3E70120704700BF86
:1048700040420F0090D0030020A1070048E801004B
:1048800000093D0000127A0080841E00431C14D0F1
:1048900000F01F0340090BD1084A02EB8302D2F853
:1048A0000012074B0B4043F00203C2F8003270477E
:1048B0000022803352F82330FFDE704700258450F9
:1048C000F0F8FCFF430904D10123034A8340D3607D
:1048D00070470023DB60FFDE0025845038B51446A6
:1048E000421C054616D0012902D1A3B1FFF79AFF59
:1048F00005F01F036D0911D10B4A41EA840402EB54
:104900008303D3F80002094A0240144344EA4101F8
:10491000C3F8001238BDFFF7D5FFE9E70022803366
:1049200052F82330FFDE00BF00258450F0F8FCFF72
:104930002DE9F843504B4D6906469D420C4690F8D0
:10494000049000F0848077D84C4B9D4200F0828028
:104950004B4B9D4200F081804A4B9D420CBF4FF073
:1049600000754FF080452422DFF82481E07E02FBB1
:104970000983997F60F3000199773379217C02FBE9
:1049800003839A7F61F341029A77E77EEFB9237E32
:104990003A46012B94BF0023012301212068FFF731
:1049A0009DFF3B463A4601216068FFF797FF3B4673
:1049B0003946A27EA068FFF791FF237C3A46012189
:1049C000E06883F00103FFF789FF242303FB0983D9
:1049D000E2681A62217C9A7F61F341029A77277F0D
:1049E000A07C217E637E326847B9D4E900C7A46801
:1049F000C2F808C5C2F80C75C2F81045003B18BFD4
:104A000001230229C2F8C005C2F824552BD003297E
:104A10002CD0012901D143F00203C2F854352422DD
:104A20003379534358F803301BB33068BDE8F8437B
:104A300040F30730FDF7EEBC134B9D4210D0134BF3
:104A40009D420CBF4FF000454FF080458BE74FF083
:104A5000805588E74FF0806585E74FF0006582E775
:104A60004FF000557FE743F00403D6E743F0060319
:104A7000D3E7BDE8F88300BF40420F0090D00300A9
:104A800020A1070048E8010080841E0000127A007F
:104A9000B41E00202DE9F8430746242597F804802A
:104AA000124C05FB08F504EB05091E4699F81C306D
:104AB000C3B999B14869FFF7C1FEA8B13846625140
:104AC000C9F80460FFF734FF242303FB08440023E4
:104AD0006377012306482377BDE8F8836251C9F85C
:104AE0000460F1E70348F7E70348F5E7B41E002048
:104AF0000000AD0B0C00AD0B0400AD0B2DE9F04137
:104B0000044606790068194D40F30730FDF790FC24
:104B100024237343EB5853B12368154A06EBC601AF
:104B2000C3F80823206805EB810104F046FA2368E6
:104B3000242404FB0654D3F80805D3F80C75D3F8E5
:104B40001085A37FDB070AD4FFF7A0FE4046FFF7DE
:104B50009DFE3846FFF79AFE206AFFF797FE242352
:104B600003FB065500232B77BDE8F081B41E00201F
:104B70005201080024232DE9F0430779534D7B436C
:104B80009046EA180E46517F814685B0002940F0D4
:104B90009B80EB5823B118F0140F04BF0123537707
:104BA000242496E80F0004FB075404F10C0C8CE855
:104BB0000F00206A421C04D0A37F9B071AD5FFF781
:104BC00031FE3368D9F8004023B103F06043B3F1FC
:104BD000005F06D1B36883B103F06043B3F1005FB7
:104BE0000BD02423002203FB075339485A7705B022
:104BF000BDE8F083FFF766FEE3E718F0010318BF96
:104C00000123C4F8503518F0020318BF0123EC4605
:104C1000C4F8403596E80F008CE80F00039BC4F8F9
:104C20004405C4F84815C4F83425C4F838350023C1
:104C3000C4F81831D4F818310723C4F800352423F8
:104C40007B4318F0080F05EB03021DD10121E85842
:104C5000216158B9D4F81831002BFBD062464021AD
:104C6000204604F06CF924237B43EA18EB5813BB6D
:104C7000106A461C13D107EBC707204605EB8701D6
:104C800004F09BF91348B2E7EB58A3B9106A411C32
:104C9000F8D0937F9A070BD5FFF714FEF2E7937FC6
:104CA0009B0702D5FFF70EFEE5E7FFF7BBFDE2E746
:104CB000FFF7B8FDE6E7402318F0040F14BFC4F86F
:104CC0000833C4F80433DDE7034890E7B41E00203E
:104CD0000A00AD0B0000AD0B0B00AD0B10B5402171
:104CE0000F4A104804F02BF9C8B10F4C206A421C3F
:104CF00004D0A37F9B070FD5FFF7E4FD637F1BB1B3
:104D00000949084804F059F9002323720748D4E9F7
:104D10000031BDE810401847FFF784FDEEE710BDF5
:104D2000C01E002000B00050B41E0020BC1E002099
:104D300038B5EFF31185202383F31288BFF36F8F0B
:104D4000064B9C6804F067F985F31188BFF36F8FF9
:104D50002046BDE83840FDF7BFBA00BFD81E00208E
:104D600038B5094B53F82040013053F82050A54284
:104D700000D838BD636823B1204604F04FF90834E9
:104D8000F5E723689847FAE72C9A0000012270B5EE
:104D90002A4B032086B01A70FFF7E2FFFCF7F6FFFC
:104DA00004F058F90420FFF7DBFF254C254D26467B
:104DB000AE4204F1300410D300F04EFC204C224EE1
:104DC000AC4226D300F05CFCFBF724FB1F4A137BAC
:104DD00023F00103137306B070BD54F80C3C059327
:104DE00054F8103C049354F8143C039354F8183CC2
:104DF000029354F81C3C019354F8203C009354E96E
:104E00000A2354E90C0100F027FA54F8303C5E659F
:104E1000CDE7D4E90A23B3F1FF3F08BFB2F1FF3F6A
:104E200005D052EA0301206803D104F08DF9303433
:104E3000C6E73146183000F0D7FDF8E72D220020F4
:104E4000689600006896000055920000B8020020A5
:104E500008B50348034A0021121A04F0F7F808BD08
:104E6000D801002030220020C02370B5134E01224B
:104E700003FB0066002386B0CDE904230F220193D3
:104E8000CDE9023218234FF4A0720D4D0D4903FBFA
:104E90000055044602FB00110B4B3046009500F014
:104EA000DBF9737B2C7423F004037373074B013419
:104EB00003EBC423EE606B6006B070BDF801002008
:104EC000D81E0020302A0020F1900000302200205F
:104ED000BFB50020FFF744FF2A4B03F5006282F3C1
:104EE000088883F30A880024E023274D274E85F89D
:104EF0002230EC772C766C76AC7685F820406B6AA5
:104F0000234F43F4E0236B6285F82340FDF778F9E3
:104F1000FDF764FB4FF0FF3340F20112AB62EB622E
:104F20001C4B1D4D9A81B360C3E919441C6704F002
:104F30005EF80120FFF714FF0220FFF711FF00F0D9
:104F4000BFFB164BB5610593012315494FF4804211
:104F5000CDE9034328463B46CDE90144009400F0E7
:104F60007BF906466A7B284622F004026A7304F045
:104F700027F92046FFF778FF3A4631462846FDF7E5
:104F800001FB00BF3022002000ED00E0D81E002011
:104F90008D4D000078030020B802002010A300000F
:104FA000702B0020002038B5054C064DAC4200D3D4
:104FB00038BD204604F04FF80028F9DB1C34F5E733
:104FC000820100208201002073B50C46EFF31181AD
:104FD000202585F31288BFF36F8FC5685DB125600A
:104FE0002B68C360836901338361002081F31188DA
:104FF000BFF36F8F11E052EA030603D16FF00B008D
:105000002560F3E7CDE900230246083000F070FA8E
:1050100018B9034B9B685B69236002B070BD00BF89
:10502000D81E00202DE9F341044617461E46EFF333
:105030001188202383F31288BFF36F8FC368334A2C
:105040007BB180689168884219D057EA060318D16D
:1050500088F31188BFF36F8F6FF00F0002B0BDE8C7
:10506000F081916891F90E100133E360936821613A
:10507000A36088F31188BFF36F8F0020EEE72169EA
:10508000F2E791F90E1090F90E306FF07E0299421E
:10509000A8BF19469142B8BF11468B422DDD04F0DE
:1050A00032F8054622464146CDE90076184800F020
:1050B0001FFA0028E1D0EFF31186202383F3128832
:1050C000BFF36F8FA068D0B1236821699C420AD0DA
:1050D0004BB193F90E309942A8BF19466FF07E0389
:1050E0009942B8BF194604F00EF840B1314608485D
:1050F00000F06EFA6FF00A00B0E70025D2E7002D4D
:10510000F4D186F31188BFF36F8FF3E7D81E002028
:105110002E22002038B58368044663B3194A92688A
:1051200093422BD1C368012B03D9013BC3600020FC
:1051300038BDEFF31185202383F31288BFF36F8FFF
:105140000169806803F0DFFF204604F087F8A06063
:1051500058B190F90E2022610022826704F030F8E5
:105160002946094800F034FAE1E7E06085F3118848
:10517000BFF36F8FDBE76FF01500D9E74FF0FF301B
:10518000D6E700BFD81E00202E22002038B50446E6
:10519000EFF31185202383F31288BFF36F8F04F0A0
:1051A0005DF848B10022826704F00AF82946BDE89C
:1051B0003840074800F00CBAD4E902329A4218BFCE
:1051C0000133A36085F31188BFF36F8F38BD00BF33
:1051D0002E22002013B5EFF31181202484F31288CE
:1051E000BFF36F8F846844B1013C846081F3118800
:1051F000BFF36F8F002002B010BD52EA030406D146
:1052000081F31188BFF36F8F6FF00F00F3E7CDE9E3
:1052100000230246014800F06BF9ECE72E22002043
:1052200070B50446EFF31185202383F31288BFF392
:105230006F8F6FF00A06204604F010F818B18667E9
:1052400003F0BEFFF7E7A0602946BDE870400148C3
:1052500000F0BEB92E2200202DE9FF410E9E00F184
:10526000580506730426C0E9165500250446467302
:105270000D9EC0E906558673D61D0C9A26F00706CA
:10528000C0E919168560C573C56602920B9A01EBD9
:10529000060801920A9A00924246FDF72FF9054B43
:1052A00065659B6803B11B6F4046236704B0BDE88A
:1052B000F08100BFD81E002038B50D4D2B4653F8A5
:1052C0001C4F9C4200D004B9EC68AB6838B95A7BDB
:1052D000D20604D1A26912B9DA897F2A05D89C4284
:1052E00002D0204600F0C8FA2346AB6138BD00BFAB
:1052F000D81E002008B590F90D200146002A437BF6
:1053000004DA03F07F03437303F020FF044B986833
:10531000431A58425841BDE80840FFF7CDBF00BFCF
:10532000D81E002070B490F90D30427B002B29DB91
:10533000D30627D183692BBB134962F07F024273E6
:105340000A4652F81C4F944218BF23460C6A23B9F0
:10535000C0E90024206008620CE090F90E5093F937
:105360000E60B5420AD0AE4208DD5A68C0E900328C
:1053700010605860002070BCFFF79EBF9C42E7D0D1
:105380001B68E4E770BC7047D81E0020002A2DE996
:10539000F0410E460CBF10210821427B0446114209
:1053A0000FD141EA0203D20918D1437308291BD057
:1053B0000120FFF781FFBFF35F8F637B23F0600362
:1053C00063732C4B9B68A3424DD1EFF30583002BF5
:1053D00049D13046BDE8F041FCF794BF03F07F03AC
:1053E000437303F0B3FEE1E7A36813B1204603F073
:1053F000B5FE04F1180003F06EFFA56D04F1580727
:10540000AF4211D04FF0000875B1284603F0A6FE58
:1054100005F1180003F05FFF2846C5F87880FFF714
:1054200081FFA56DAF42EFD1124DAB689C4206D013
:105430000120FFF741FF2046FDF780F8BBE7EFF3BF
:105440000583002BF4D00120FFF736FF2046FDF73F
:1054500075F840F20112084B9A810022AB60C3E953
:1054600019221A67A7E786F31188BFF36F8FBDE88B
:10547000F08100BFD81E00207803002070B590F99D
:105480000D200146002A437B04DA03F07F034373B7
:1054900003F05CFE154A4B7B104663F07F034B73B1
:1054A00050F81C3F146A834208BF002323B9C1E9A6
:1054B0000004216011620CE091F90E5093F90E6026
:1054C000B5420ED0AE420CDD5868C1E90030016033
:1054D00059609068BDE87040431A58425841FFF740
:1054E000EBBE9C42E3D01B68E0E700BFD81E002063
:1054F000F8B5124B0C46DDE9067611469868104A5D
:105500001060EFF31182202282F31288BFF36F8FB5
:105510009D68284603F02CFEB6F1FF3F08BFB7F1A7
:10552000FF3F06D03A463346064905F1180000F021
:105530005BFA2046BDE8F840FCF7E4BED81E002028
:10554000001F002055920000F8B50446EFF31186C5
:10555000202383F31288BFF36F8F437B49B2DA06AF
:1055600019D18569BDB903F07F03437303F0EEFDE4
:10557000437B164A63F07F0343731346817353F8EA
:105580001C0F984218BF0546106A5DB9C4E9003087
:105590000460146211E00020A17386F31188BFF348
:1055A0006F8FF8BD95F90E70B9420BD08F4209DDAF
:1055B0006B68C4E900531C606C600120FFF77CFE3F
:1055C0000120EAE7A842E1D02D68DEE7D81E0020DE
:1055D00049B9EFF3058030B9054B9A699B689A4247
:1055E00001D0FCF78FBE81F31188BFF36F8F704736
:1055F000D81E002010B5EFF31184202282F3128808
:10560000BFF36F8F427B510704D484F31188BFF33B
:105610006F8F10BD22F004024273FFF783FE214614
:10562000BDE810400148FFF7D3BF00BF2E22002085
:10563000034648B9EFF3058232B9064A9169926888
:10564000914201D0FCF75EBE83F31188BFF36F8FE8
:10565000704700BFD81E0020EFF31181202383F391
:105660001288BFF36F8F054B9A68D37B013BD373CE
:1056700081F31188BFF36F8F704700BFD81E0020E1
:1056800038B5EFF31185202484F31288BFF36F8FB0
:105690000A4B00209A68D37B0133D373FFF70CFECB
:1056A00085F31188BFF36F8FEFF3118084F31288B5
:1056B000BFF36F8FBDE83840FFF7BABFD81E002098
:1056C000024B03F11C02C3E907227047D81E0020D9
:1056D000F8B5EFF31185202383F31288BFF36F8FA2
:1056E00019498868437B03F07F03437303F02EFD61
:1056F00008468B685A7B62F07F025A7350F81C2F61
:105700000C6A824208BF002222B9C3E90004236068
:105710000B620CE093F90E6092F90E70BE420ED04F
:10572000B7420CDD5168C3E900210B6053600120D2
:10573000FFF7C2FD2846BDE8F840FCF7E3BDA242F2
:10574000E3D01268E0E700BFD81E002050EA010352
:105750002DE9F04105460E4603D1FFF7B9FF0020C1
:105760002BE0831C71F1FF3329DB03F0C9FD2C18FA
:10577000EFF31188202383F31288BFF36F8F124F4A
:10578000124BB8681860FFF7B5FDB86810492A4693
:105790003346183000F028F9BA684046537B43F08E
:1057A00010035373FCF7AEFD03F0AAFD201A63EB60
:1057B0000303012873F10003D1DBBDE8F0816FF032
:1057C0000104241AD4E700BFD81E0020001F0020C7
:1057D00055920000B1F1FF3F08BFB0F1FF3F08B59F
:1057E00006D10A4B986803F0FAFC4FF0FF3008BD71
:1057F000FFF7ACFF4FF47A7147F6FF730022C0FB4E
:105800000132D80B40EA4240F1E700BFD81E002029
:10581000014B9868704700BFD81E00200122044B3E
:10582000C01A044BC0105843034B1A54704700BFB2
:1058300038040020ABAAAAAA2E220020C3897F2BFD
:1058400012D80A4B1B6863B1094B90F90E201B68F4
:105850009A4209DB437BDB0606D1064BC31A18BF0D
:10586000012303F0010070470023FAE7081F00201E
:10587000041F0020F801002070B50E4B0E4C1E7C5A
:10588000054606EB460304EBC304204603F023FD64
:1058900000220A4B28469A55FFF7D0FF48B1084B23
:1058A0002046BDE870401A680649013AD31700F057
:1058B0009BB870BDD81E0020380400202E22002086
:1058C000081F00201D58000038B5EFF31185202374
:1058D00083F31288BFF36F8F104B114A9C681068D6
:1058E000A04206D1FFF7C8FF85F31188BFF36F8F81
:1058F00038BD00211B7C11600A4AD35C002BF3D019
:105900002046FFF79BFF0028EED0637BDB0602D129
:105910002046FFF7B3FD2046E4E700BFD81E002075
:10592000001F00202E22002008B50648064A07491D
:10593000121A03F08DFBBDE80840054A05490648E8
:1059400003F086BB00000020D401002018A3000053
:105950000000000018A3000000000020034B1B689B
:105960000BB9FEF74DB80020704700BF0C1F002098
:1059700030B570B10B4B5B6898420AD0036843B1F5
:10598000D3E90421D0E90445121941EB0501C3E92B
:105990000421D0E9003213605A600023C0E90033CB
:1059A00030BD00BF0C01002010B50E4B1C689C429E
:1059B00004D1FFF7D3FF6FF0004010BDFFF7CEFF1B
:1059C000002CF8D0D4E904321B1A62EBE072B3F178
:1059D000004F72F10001EEDA002AACBF1846002039
:1059E000EBE700BF0C010020B3F1FF3F08BFB2F1AD
:1059F000FF3FF8B504461D4616465ED08160EFF3C2
:105A00001187202383F31288BFF36F8F013275F162
:105A1000FF3324DA6FF001032D49D1E900209B1AEE
:105A20004FF0FF3262EB00009E1B60EB0500012E81
:105A300070F1000301DA01260020C4E90460254E5C
:105A4000D6F800C07568B44508BF4FF0000CBCF133
:105A5000000F0DD1C4E900652C6074601CE0FFF7F5
:105A60007DFF013645F10005361845EBE070E4E7AF
:105A7000DCE90420D4E90431934271EB000E1DDA15
:105A8000D21ADCF8043060EB0100CCE90420C4E950
:105A900000C31C60CCF804403368B34209D09C4278
:105AA00007D10D4B1C6824B9FFF77EFF2146FDF797
:105AB00079FF87F31188BFF36F8FF8BD9B1A61EBF5
:105AC0000001AC45C4E90431C4D0DCF800C0BEE735
:105AD000500400200C0100200C1F00202DE9F84F7D
