:020000040001F9
:100000003DB8F39600000000000200000039040033
:1000100000000000000000000000000000000000E0
:10002000FFFFFFFFFFFFFFFFFFFFFFFFFFFFFFFFE0
:10003000FFFFFFFFFFFFFFFFFFFFFFFFFFFFFFFFD0
:10004000FFFFFFFFFFFFFFFFFFFFFFFFFFFFFFFFC0
:10005000FFFFFFFFFFFFFFFFFFFFFFFFFFFFFFFFB0
:10006000FFFFFFFFFFFFFFFFFFFFFFFFFFFFFFFFA0
:10007000FFFFFFFFFFFFFFFFFFFFFFFFFFFFFFFF90
:10008000FFFFFFFFFFFFFFFFFFFFFFFFFFFFFFFF80
:10009000FFFFFFFFFFFFFFFFFFFFFFFFFFFFFFFF70
:1000A000FFFFFFFFFFFFFFFFFFFFFFFFFFFFFFFF60
:1000B000FFFFFFFFFFFFFFFFFFFFFFFFFFFFFFFF50
:1000C000FFFFFFFFFFFFFFFFFFFFFFFFFFFFFFFF40
:1000D000FFFFFFFFFFFFFFFFFFFFFFFFFFFFFFFF30
:1000E000FFFFFFFFFFFFFFFFFFFFFFFFFFFFFFFF20
:1000F000FFFFFFFFFFFFFFFFFFFFFFFFFFFFFFFF10
:10010000FFFFFFFFFFFFFFFFFFFFFFFFFFFFFFFFFF
:10011000FFFFFFFFFFFFFFFFFFFFFFFFFFFFFFFFEF
:10012000FFFFFFFFFFFFFFFFFFFFFFFFFFFFFFFFDF
:10013000FFFFFFFFFFFFFFFFFFFFFFFFFFFFFFFFCF
:10014000FFFFFFFFFFFFFFFFFFFFFFFFFFFFFFFFBF
:10015000FFFFFFFFFFFFFFFFFFFFFFFFFFFFFFFFAF
:10016000FFFFFFFFFFFFFFFFFFFFFFFFFFFFFFFF9F
:10017000FFFFFFFFFFFFFFFFFFFFFFFFFFFFFFFF8F
:10018000FFFFFFFFFFFFFFFFFFFFFFFFFFFFFFFF7F
:10019000FFFFFFFFFFFFFFFFFFFFFFFFFFFFFFFF6F
:1001A000FFFFFFFFFFFFFFFFFFFFFFFFFFFFFFFF5F
:1001B000FFFFFFFFFFFFFFFFFFFFFFFFFFFFFFFF4F
:1001C000FFFFFFFFFFFFFFFFFFFFFFFFFFFFFFFF3F
:1001D000FFFFFFFFFFFFFFFFFFFFFFFFFFFFFFFF2F
:1001E000FFFFFFFFFFFFFFFFFFFFFFFFFFFFFFFF1F
:1001F000FFFFFFFFFFFFFFFFFFFFFFFFFFFFFFFF0F
:10020000F80B00209108010065090100454A010032
:10021000654A0100854A0100C54A0100A54A01005E
:100220000000000000000000000000005D1B010055
:100230006509010000000000650901006509010071
:1002400000000000000000000000000097240100F2
:10025000000000006509010000000000000000002F
:1002600065090100650901006509010065090100D2
:100270000000000065090100650901006509010031
:100280006509010065090100000000000000000090
:100290006509010065090100000000000000000080
:1002A0006509010000000000000000006509010070
:1002B0006509010065090100650901006509010082
:1002C0006509010065090100650901006509010072
:1002D0006509010000000000650901000000000040
:1002E0006509010000000000650901000000000030
:1002F000650901000000000000000000000000008F
:10030000000000006509010000000000000000007E
:1003100000000000000000000000000000000000DD
:10032000000000006509010000000000000000005E
:1003300000000000000000000000000000000000BD
:100340006509010000015F5F02000000FE0B000074
:10035000391C0100800600000000000000000000C1
:100360000000000000000000000000000100FFC3CA
:10037000000000C4001200200000000001015F5FC7
:10038000030100001F010000B10601000000000091
:10039000000000000100000001000000000000005B
:1003A000000000000000000000000000000000004D
:1003B0000000000070000000F04E0100800000000E
:1003C000000F000001000000F104010001015F5F67
:1003D000040100001F0100001F08010000000000D0
:1003E000000000000000000001000000000000000C
:1003F00000000000000000000000000000000000FD
:1004000000000000FB4E0100400000000507000056
:10041000010000000B070100FFFFFFFFFFFFFFFFD0
:1004200038B50025054C29462046D4F80024C4F8E8
:10043000045404F07AFBC4F8005438BD200C0020AA
:1004400037B511460022CDE9002242680346402A12
:10045000046845D1228D150A032D17D0012D37D000
:1004600022482468D0F80404AA1ECDE90040082AD6
:1004700039D8DFE802F0050B0F14191E23283000CD
:100480006A46184600F037F903B030BD184600F050
:1004900020F9F9E76A46184600F01EF9F4E76A46C3
:1004A000184600F013F9EFE76A46184600F017F90E
:1004B000EAE76A46184600F015F9E5E76A46184685
:1004C00000F013F9E0E76A46184600F011F9DBE79F
:1004D00000F014F9D8E76A46184600F013F9D3E79C
:1004E0006FF08000D0E76FF08500CDE7200C002092
:1004F0002DE9F04F05680446A3B0002D40F0B1800F
:100500002022294602A804F010FB12AF202229461F
:100510000AA804F00AFB40222946384604F005FBED
:10052000E26904F11C039846B2B10426E26A04F1C0
:100530002C03EAB10425EEB96FF08306304623B0F0
:10054000BDE8F08F002EF1D053F8041D3246013E75
:100550000029F7D01646E9E70326F5E7002DEAD093
:1005600053F8041D2A46013D0029F7D01546E2E75D
:100570000325F5E740233A460021606804F012FBAA
:100580004028D9D1CDE902700127DFF8DCA00DF1B8
:10059000080904F1100BBE421FD10AAF38460021F2
:1005A000314A08EB8509D2F80034C84533D109B186
:1005B000C2F80034A3683146C2F8043402A82B46BE
:1005C0000AAAFFF73DFF4FF000080646454507F130
:1005D00008073DD1FFF724FFB0E75BF8043F1A1D81
:1005E00021D8DAF80004D91C21F00301C0F580629B
:1005F000914218D8014400EB0A02CAF8001460685E
:100600003946019204F0CEFA019AC9F80C0001377C
:1006100049F8082FBFE758F804EF1EF1040F07D977
:1006200009B1C2F80034FFF7FBFE6FF08C0685E7D6
:100630000EF1030C2CF0030CC3F5806AD44500F1D5
:100640000800EDD8D11840E9021E63440121ACE74F
:10065000414657E90223606804F0B9FA08F101083D
:10066000B4E76FF0850669E7200C002008B5282262
:100670000021024804F059FA002008BD281000208B
:1006800010B5044C0F222046034904F029FA2046F5
:1006900010BD00BF511000202208010008B5012143
:1006A000024802F0C7F9002008BD00BF501000202A
:1006B00008B5FFF7DBFF40B9FFF7E2FFFFF7EEFFFA
:1006C00018B9BDE8084002F03FBA08BD6FF08500D8
:1006D00070476FF0850070476FF0850070476FF0CE
:1006E000850070476FF0850070476FF08500704798
:1006F0006FF0850070476FF085007047D1E9000109
:1007000002F0E6B96FF085007047F0B50368054662
:10071000B3F57D7FA7B007D040F2F532934207D002
:100720006FF0850027B0F0BD00F0A4FC0020F9E7D1
:1007300000243C22214607A8CDE90244CDE9044427
:10074000069404F0F2F93C22214617A8169404F00E
:10075000ECF9EA69019405F11C0302B30426EA6A84
:1007600005F12C033AB30424731E012B52D8012C3B
:1007700050D80423002168680DEB030204F012FA3C
:1007800004281AD06FF08000CCE7002EE7D053F891
:10079000041D3246013E0029F7D01646DFE7032646
:1007A000F5E7002CE0D053F8041D2246013C002957
:1007B000F7D01446D8E70324F5E7022E16D16E6968
:1007C000402E29D806AF33463A460121686804F026
:1007D000E9F98642D6D1CDE9027602A944B922468A
:1007E000019800F059FC044620469BE70021F5E7FC
:1007F0002B6A402BC6D816AACDE90423019804AA77
:1008000000F04AFCDDE9042304460021686804F096
:10081000DEF9E9E7012085E76FF0890082E7002033
:1008200070474D62656420544C5320332E362E3170
:1008300000000000000000000000000000000000B8
:10084000281E0000010000004926010021260100A9
:10085000407C0100801000203C000000407C010032
:10086000200C002000000000407C0100000C002053
:100870000000000070110020AF050000200C0020D7
:1008800018010000000C00200800000001F0F4BB7B
:1008900008B572B6002383F31488BFF36F8F83F318
:1008A0000A8883F30B88BFF35F8F254B5A6A22F4C3
:1008B00080325A62D3F8942022F00102C3F89420C7
:1008C000BFF34F8FBFF36F8F1E4A9A6000F058F846
:1008D0001D4B83F309881D4B83F30A8883F30B8830
:1008E0001B4B15A1D1E90001C3E9000100F0EEF8AE
:1008F000184B19498B4212D30020184B18498B42D0
:1009000018D301F0B5FE186850F82240586840F836
:100910002240013298688242F5D30C33EAE7002284
:10092000F8E71C6844F8220001325C68A242F8D360
:100930000833E4E70022F8E7A5EDF5FEA5EDF5FEA6
:1009400000ED00E000020100F80B00200004002090
:10095000F80B002050080100740801007408010021
:100960008C080100EFF30880EFF309812DE9F00F07
:100970006B46724600F0A0F908B0FFF787FFFEE76C
:1009800038B572B6002383F3138883F311884FF0D0
:10099000FF30274A03F120010133102B42F82100D8
:1009A000F8D100234FF0FF34214A03F160010133F5
:1009B000102B42F82140F8D1012200251D4B294679
:1009C0005A60C3F84843C3F8084303F580535A609C
:1009D000C3F84843C3F80843A3F55043C3F8005590
:1009E0008022C3F80843144804F09FF82946802267
:1009F000124804F09AF8124B2946C3F80055802299
:100A0000C3F808430F4804F090F8802229460E48A6
:100A100004F08BF80D4BC3F808454FF05023C3F892
:100A2000084362B6BFF34F8FBFF36F8F38BD00BF6F
:100A300000E100E0004001508080005080810050C3
:100A40000090005080900050809100500070015044
:100A500008B5EFF31083012B0C4A07D1126ABFF3DC
:100A60004F8F511C4A424A41104608BD00F0FAFB24
:100A700000B172B6126ABFF34F8F531C5A425A41EB
:100A800000F0F0FB0028EFD062B6EDE70080FF0039
:100A900008B5EFF31083012B0B4A06D1D269BFF3DF
:100AA0004F8F02F00102104608BD00F0DBFB00B1E1
:100AB00072B6D269BFF34F8F02F0010200F0D2FB91
:100AC0000028F0D062B6EEE70080FF006F4A10B554
:100AD000D2F8D03043F00203C2F8D03000F0C2FBAD
:100AE00030B14FF050230022C3F81421C3F818216D
:100AF00000F0C7FB28B10122654BC3F8382AC3F8C0
:100B000078254FF47F02D2F83031D2F83421BFF388
:100B10004F8FC3F30B03092B05D1012A1EBF0122FE
:100B20005B4BC3F8782500F0ACFB18B10E22594B93
:100B3000C3F8E42E00F096FB30B10022544BC3F80A
:100B40000C270122C3F810270022D30003F57F03EE
:100B5000D3F80013BFF34F8F013108D0D3F800133F
:100B60000132D3F80433B2F5807F0B60EDD1EFF39F
:100B70001084FFF78DFF00284DD0BFF34F8F464BF9
:100B8000D3F80024012AFBD1C3F80425D3F80024AC
:100B9000012AFBD1012C03D000F064FB00B172B636
:100BA000FFF776FF58B13D4AD36923F00103D361C3
:100BB000BFF34F8F384AD2F80034012BFBD1FFF737
:100BC00047FF68B1354A136A23F0FF0343F020035F
:100BD0001362BFF34F8F304AD2F80034012BFBD1A0
:100BE000012C03D000F03EFB00B162B600222A4B7C
:100BF000C3F80425D3F80024012AFBD1BFF34F8F9B
:100C00002249274BCA6802F4E0621343CB60BFF36A
:100C10004F8F00BFFDE7FFF71BFF0028ADD11B4A38
:100C2000D2F88C3043F44063C2F88C304FF47F0329
:100C3000D3F83021D3F83431BFF34F8FC2F30B0216
:100C4000092A16D1013B022B02D8164AD35C83B184
:100C5000124815490368104A8B420CBF5A230023DF
:100C6000C2F8103EC36A8B420CBF5A230023C2F85D
:100C7000003E064AD2F8883043F47003C2F8883048
:100C8000BFF34F8FBFF36F8F10BD00BF00ED00E0CB
:100C90000040005000A00350009003500080FF006F
:100CA0000400FA05DA240100FA50FA507C220149C6
:100CB00003F016BF9C18002038B51D46234B244C6A
:100CC0005B68C3F308032360EFF303836365530694
:100CD000C4E90120E1602DD502F00C020C2A08BF06
:100CE00008460146206120221A4803F0F9FE25B18A
:100CF00020222946184803F0F3FE144B9A6AA26595
:100D0000D96AE165986B206602F400406066586B12
:100D1000A06602F08000E0669A62D962D3F8E4200F
:100D20002267D3F8E810616702F04001A167C3F8B9
:100D3000E42038BDEFF39483990704D5130702D557
:100D4000EFF38980CDE7EFF38880CAE700ED00E09C
:100D50009C180020B0180020D0180020003A18BFBE
:100D60000122003918BF012103688900074841EAC0
:100D70004201186359605A6842F001025A60BFF399
:100D80004F8FBFF36F8F0020704700BF04AAFF0092
:100D90000722024BC3F80423704700BF0030005005
:100DA000084BD3F80801D3F80021003818BF012000
:100DB00080000AB140F00100D3F804310BB140F0DB
:100DC00002007047003000500022074BC3F800219A
:100DD000D3F80011C3F80421D3F80411C3F8082193
:100DE000D3F80831704700BF0030005000231720AF
:100DF0000C49012B03F1010201D81346F9E703F571
:100E0000C073202A41F823001346F2D10023172093
:100E1000044A03F5E0710133202B42F82100F8D198
:100E2000704700BF0030005010B59DF80840C00B5F
:100E300043EA0423064CC90B43EA0213884200D953
:100E400010BDC2B202F5C07244F822300130F5E79D
:100E50000030005010B59DF8084000F1604043EAB2
:100E6000042301F16041074C400B490B43EA021394
:100E7000884200D910BDC2B202F5E07244F82230B7
:100E80000130F5E700300050C0F30E03C3F5004316
:100E9000B3FA83F3C3F11B03064AC0F3C730DBB2D6
:100EA00040F4807043F48073C2F80005C2F8043542
:100EB000704700BF0030005043030148184470479A
:100EC000FF1FF81F054BC0F30730090241F0300146
:100ED00000F5007043F82010704700BF003000504C
:100EE000044BC0F30730090200F5007043F82010EE
:100EF000704700BF0030005008B5FFF751FF014BAD
:100F0000186008BD601F00200C22014903F0E8BDF5
:100F1000601F002008B501F0A5FA68B901F072FE63
:100F200058B9074AD36823F008031B041B0C43F08D
:100F3000BF6343F40033D36008BD45F22350FBE7A1
:100F400000ED00E0024B1860024B00201960704772
:100F5000701F00206C1F00201FB5374C42692368AA
:100F60005A6282699A62C269DA62026A1A63426AE2
:100F70005A63826A9A63C26ADA63026B1A64426BCA
:100F80005A60826B9A60C26BDA60026C1A61426CC2
:100F90005A61826C9A61C26CDA61026D1A62826D6A
:100FA0005A65C26D9A65026FDA65026E1A66826EC4
:100FB0005A66426F9A66EFF388825A64EFF3898229
:100FC0009A644268DA64EFF394821A65026801A8B1
:100FD0001A67FFF799FF2368019ADA6601221A70EF
:100FE000164B1C68640864002046214622462346AE
:100FF000B7EE000AF7EE000AB7EE001AF7EE001A95
:10100000B7EE002AF7EE002AB7EE003AF7EE003A04
:10101000B7EE004AF7EE004AB7EE005AF7EE005A74
:10102000B7EE006AF7EE006AB7EE007AF7EE007AE4
:1010300003F04BFE04B010BD701F00206C1F002099
:1010400000B5A1B001A8FFF731FE029B63B15B06BA
:101050000AD4019B23F00203052B05D1044B1B6826
:1010600013B101A8FFF778FF21B05DF804FB00BFC2
:101070006C1F0020BFF34F8F0549064BCA6802F46E
:10108000E0621343CB60BFF34F8F00BFFDE700BFAB
:1010900000ED00E00400FA0503462DE9F04F084694
:1010A00087B01146042B78D8DFE803F00308770DEA
:1010B000510007B0BDE8F04F00F076B807B0BDE8CA
:1010C000F04F00F067B94368082B03D0022007B047
:1010D000BDE8F08F4B68042BF8D14FF0FF33D0F808
:1010E0000080D1F800A0D8F80410CAF80030002918
:1010F000ECD026233C22012001F006F9044600280A
:10110000E4D1D8F80030DFF898B0DFF8989003AF5A
:101110005BF8045B99E807001D4487E807000C2290
:1011200039462846019303F0C0FD019B064600B9ED
:101130001DB90134052CEBD1C8E73C222946D8F86B
:10114000040003F0CDFCCAF800600020BFE743684C
:10115000082BBBD14E68042EB8D14FF0FF33046882
:101160000D6821682B600029B0D06368002BADD0DA
:1011700026237422012001F0C7F80028A6D12323DA
:1011800032460120616801F0BFF800289ED1D4E901
:101190000001FFF7D7FE2860D7E7032097E700BFDD
:1011A000E0240100F4240100F8B543680C2B01D0C1
:1011B0000220F8BD4B68042BFAD14FF0FF330468CE
:1011C0000D6821682B600029F2D0A268002AEFD0B8
:1011D0000623012001F098F80028E9D161681F4E2C
:1011E000D6E90037994230D3A2681F4401EB020CC4
:1011F000BC452AD803F17F4303F50043B3F5805F74
:1012000020681FD20A43930725D1154B9C4522D84D
:10121000091AA2680B1812B900202860C9E7EFF379
:101220001082012A08D11B68BFF34F8F40F8043B9E
:10123000A368043BA360ECE772B61B68BFF34F8F53
:1012400062B6F3E703F04CFCE6E70130052806F14F
:101250000806C5D1ACE70320ABE700BF00250100BD
:101260000090FF004FF47F03D3F83001D3F83431FE
:10127000BFF34F8FC0F30B00A0F109035842584150
:1012800070474FF47F02D2F83031D2F83401BFF307
:101290004F8FC3F30B03092B03D1431E5842584110
:1012A0007047002070474B6830B513F01F052DD1F3
:1012B00002680C681068C0F30720844226D2506888
:1012C000556094600C7C23F01F0304F001041C4360
:1012D0008B7CDB0003F018031C434B7C5B0003F0AA
:1012E00006032343D3608B68013B23F01F04CB68C4
:1012F0005B0003F00E03234343F0010313615060CE
:10130000BFF34F8FBFF36F8F284630BD0120FCE73E
:10131000036800205A68C9B258609960D8601861A3
:101320005A60704770B50546002403681E68C6F30E
:101330000726B44201D1002070BD21462846FFF7A0
:10134000E7FF0134F5E7C0037047C00300F5FF4035
:101350007F307047002070471F2070474FF40040D7
:10136000704700F57F40C030400370474020704711
:101370005F2070474FF4005070470020704708B559
:10138000FFF75EFE72B620BFFDE700207047002029
:101390007047704743680C2B01D0022070474B68A0
:1013A000042BFAD10B680121026819601168013120
:1013B000F3D10221906819600028EED118607047BF
:1013C00008B5114B83F30A88104801F036F8C0B90C
:1013D000FFF7A0FDA8B9FFF7D0FF90B9FFF7D5FF41
:1013E00058B9FFF7D6FF00F001FC00F0EDFD00F06A
:1013F000E9FB00F0B3F8002008BDFFF7C8FF0028A4
:10140000EFD000F039FEF2E70004002018190020A8
:1014100030B5094C024661680023084640B10568B2
:101420006D68954205D11BB1826860609A608160E9
:1014300030BD03468068F1E79C19002038B50446AA
:101440002AB10B689B68DB0512D5002038BD0B4B19
:101450001D680DB900F010FE00222B689969343325
:101460008A4203D053F8040FA04204D19142ECD138
:101470006FF0FC00EAE70132F2E700BFA419002098
:1014800070B504460E461546002130220C3003F09C
:101490004CFB064B20461B68A6606360656100F04C
:1014A000D2FE00232061236070BD00BFA41900207C
:1014B000034B186810B1006800B14068704700BF66
:1014C000A4190020064B10B51C680CB900F0D4FD1F
:1014D00023689B6813F4406F14BF0120002010BDE7
:1014E000A41900202DE9F843904607460C46FFF763
:1014F000E9FF024624B96FF080042046BDE8F88376
:101500006300F8D5144B04F01F0153F82150002D4F
:10151000F1D02B6829465868FFF790FFB0B9C4F3A3
:101520000721284600F0AAFD04460028E3D1EFF386
:10153000108972B600F094FE064689F3108840B117
:1015400042462946FFF79CFF3E60D6E76FF08104D4
:10155000D3E76FF08204D0E71C1900202DE9F04199
:1015600000F07DFE0023134E134F73607B6000F08C
:10157000E9FADFF84880304600F022F80446A0B1CE
:1015800039468023424600F0A1F80546204600F087
:10159000BAFD2068211D00F07FFB08B100F06CFD52
:1015A0002946204600F07AFAE5E7BDE8F04100F070
:1015B0008BBA00BFA81900209C1900201C1900201C
:1015C000F8B5054608B900F057FD3B4E346814F1F4
:1015D000310F6ED8394B196804F130038B4268D251
:1015E000E369A26903EB83030E321344226A02EB20
:1015F00042021344626AC2EBC20213449B00E31826
:1016000001D2994201D200F037FD23682C4A1B0C0D
:101610001B04934201D000F02FFD2388B3F5817F96
:1016200001D300F029FD6368002B01DA00F024FDEE
:10163000D4E90A239A4201DD00F01EFDA36813F4E9
:10164000406F22D11F4A176807F1200313601E4A1A
:101650001268934201D900F00FFDE369A26903EB20
:1016600083030E321344226A3C6002EB42021344AD
:10167000626AC2EBC2021344326802EB83026B68F7
:101680003260FB616F603846F8BD6F68002FD9D0BB
:101690003B689A6812F4406F09D0E16A9A6A9142F5
:1016A00005DBA26ADB6A9A4201DC00F0E5FCFF6917
:1016B000ECE70027E7E700BF881000203025010095
:1016C00000005F5F841000202C2501002DE9F74FFA
:1016D0000F4690460646009300B109B900F0CCFCD5
:1016E000D6F800A0DAF818200AF1380303EB820BD1
:1016F000DAF81C40204B1D6854B10C2202FB045444
:101700001C601E4B1B689C4201D900F0B5FC2C46A6
:1017100025464FF00009DAF81C204A4500D91CB9CB
:10172000002003B0BDE8F08F142303FB09B20023AF
:10173000C5E900269268AB60930516D5B8F1000F95
:1017400002D0009B802B03D0019200F095FC019AFF
:1017500012F0E00FD0B202D158F820201AB1019057
:1017600000F08AFC019848F820507A6809F10109D4
:10177000AA607D600C35CEE780100020282501008E
:101780002DE9F04F93B000935E4B0746D3F800B0BD
:101790000BB2002B0D461646C1F30269C1F3024A93
:1017A00004DA6FF0800013B0BDE8F08F8B42C360A5
:1017B00001D10020F7E709EB0A03042BF1D8CC0F85
:1017C00064014FEAC90831464246DBF8040044F0A0
:1017D000020300F099FD01460028E2D1202202A870
:1017E00003F0A3F94246314602A84FEACA0603F0C5
:1017F00077F932460099DBF8040044F0060300F064
:1018000083FD80460028CCD1014620220AA803F09F
:101810008CF9324600990AA802AE03F061F933460A
:1018200008F10108C14514D91A46C4460DE0D2F8A2
:1018300008E0D16818687144884203D259680844A6
:101840008645AED30CF1010C0832CC45EFD10833FC
:10185000E6E715F0006F18BF20241022002107F1E1
:101860001C0003F062F907F118081022002107F1AB
:101870002C0003F05AF908EB890944F00203C8452B
:1018800012D1202C27D1002D02DBC5F3C0456C01FD
:1018900007F128050AAE05EB8A0A44F0060455450F
:1018A0001BD1009BFB6784E77268DBF8040056F8E5
:1018B000081B019300F028FD00287FF472AF56F852
:1018C000042C019B48F8042F56F8082CC8F8300067
:1018D000C8F82020D3E70024DAE77268234656F8D8
:1018E000081BDBF8040000F00FFD00287FF459AF5F
:1018F00056F8043C45F8043F56F8083C28642B632E
:10190000CDE700BFA41900202DE9F0411F461A4B76
:101910000D461646D3F8008000F0C2FB044608B915
:1019200000F0AAFBE368002B01DA00F0A5FB032D11
:1019300001D900F0A1FB04EB8504E569E36CED1A25
:1019400016D006233A463146D8F8040000F0DCFCF5
:1019500008B100F091FBBD4228BF3D46E36CE16B4E
:101960002A461944304603F0BBF8E36C2B44E36489
:101970002846BDE8F08100BFA41900202DE9F04100
:101980001D461A4B0F461646D3F8008000F088FB20
:10199000044608B900F070FBE368002B01DA00F0A0
:1019A0006BFB032F01D900F067FB04EB8704E36AAC
:1019B000E26E9B1AAB4201D200F05EFB02232A4684
:1019C0003146D8F8040000F09FFC08B100F054FB49
:1019D000E36EE06D2A463146184403F081F8E36E69
:1019E00000202B44E366BDE8F08100BFA41900206D
:1019F0002DE9F04105464FF001080E4E0E4B3768B9
:101A00005C681CB928463760BDE8F081226893689D
:101A100013F400700CD16369012B09D0D3683460D2
:101A200023B19847002801DA00F026FBC4F814809F
:101A3000E469E6E7A4190020A819002038B5044697
:101A400010B96FF0800038BD8368002BF9D01A6898
:101A5000002AF6D05D68002DF3D00B4BA8616869B1
:101A60001D6020B92B68DB6853B901236B61A36843
:101A700004F10C001B681B69984701232360E2E70F
:101A800098470028F1DADCE7A41900204268024BED
:101A900008461A60704700BFA4190020002203689E
:101AA00010B5C0E905229A68044612F4406F07D0C9
:101AB000120503D5D3E90A0100F034F8014B1C608C
:101AC00010BD00BFA419002038B5124B1B681C685C
:101AD000A36813F4406F01D100F0CEFA00F096F93C
:101AE000226B23690C49134423F00703A3F1080573
:101AF00043E9021185F30988073222F0070282F3D5
:101B00000B88BFF36F8F054BE268054900F0D9FCE5
:101B1000002038BDA4190020A5EDF5FEF80B00202B
:101B2000F1190100014BC3E900017047B019002011
:101B3000034BD3E900308342C8BF0020704700BF89
:101B4000B019002008B500F055F9034B986000F07B
:101B500057F980F3888808BD00ED02E0EFF30880B4
:101B60007146EFF30982EFF30B830CB406B400F077
:101B70004BFA8646009900F0080001F00801401A6F
:101B800002DC12DB04B070471EF020031CBF2DE9FD
:101B9000F00FBDF1080D0A4C254626462746A04603
:101BA000A146A246A34630B4704704B030BC1EF034
:101BB00020031CBF1DF1080DBDE8F00F04B07047F5
:101BC000A5EDF5FE084BDA6882F07F4282F47F02D1
:101BD00042F48042DA6000221A765A76DA76DA77B0
:101BE000602283F82220704700ED00E0114BD3F80B
:101BF000882042F47002C3F88820BFF34F8FBFF3F0
:101C00006F8FD3F88C2042F44062C3F88C20D3F855
:101C1000342242F08042C3F83422D3F8342242F016
:101C20003C42C3F834224FF0E022D36843F420034F
:101C3000D360704700ED00E0009A164B9A4227D11E
:101C400001229043014641EC100B41EC110B41EC99
:101C5000120B41EC130B41EC140B41EC150B41EC56
:101C6000160B41EC170BEFF3148222F0040282F3FF
:101C70001488BFF36F8F02460346044605460646A6
:101C80000746804681468246834684468646044708
:101C9000FEE70000A5EDF5FE2DE9F041044618B978
:101CA00043F6DA30BDE8F0810029F9D083680025D9
:101CB00013F4406F14BF012300234FF0140843F0C6
:101CC00002030F4E0B6000F13807236AAB4201D8C4
:101CD0000020E7E7A369E26907EB830308FB02330F
:101CE0000C226A4399188968090707D59B58B342A3
:101CF000D6D1306810B10121FFF7E4F80135E4E7EF
:101D00009010002070B5324C86B03248FFF70AFBC5
:101D1000236801255A1C01932F4B2260DA681B6946
:101D20004FF44076039300232A4801A902920495B8
:101D3000ADF814608DF81630FFF7B5FA18B143F618
:101D4000DA3006B070BD23688DF816005A1C019376
:101D5000224B20480293224B01A9CDE90335226092
:101D6000ADF81460FFF79FFA0028E8D123688DF8DA
:101D700016005A1C01931B4B164802931A4B01A9DB
:101D8000CDE903352260ADF81460FFF78CFA002826
:101D9000D5D123688DF816005A1C0193134B0D48BA
:101DA0000293134B01A903930223049340F20113FE
:101DB0002260ADF81430FFF776FA04460028BED151
:101DC0002A4629460348FEF7C9FF2046B9E700BF67
:101DD000B81900208C100020AC250100E02501007E
:101DE000204F01004008010040080100000C0020C5
:101DF000200C0020014B1868704700BFAC25010083
:101E0000014B1B6818687047AC250100014B1B682B
:101E100058687047AC25010008B5FFF76DF8FEF76C
:101E2000D3FF0A4B5A68103AD3B2120609D40121E3
:101E30005A0903F01F03994002F16003044A42F873
:101E40002310BDE8084000F017B900BF00ED00E026
:101E500000E100E00020034BD8765A6A42F4702279
:101E60005A62704700ED00E00349044BCA68002045
:101E700092B21343CB60704700ED00E00800FA0512
:101E800000224FF0FF30094B02F1A0010132102A6D
:101E900043F82100F8D1D3F88022002022F0080274
:101EA000C3F88022D3F88032704700BF00E100E021
:101EB00008B5FEF76DFF0822024BC3F880211A60B7
:101EC000002008BD00E100E0064BD3F8D02022F04E
:101ED0000102C3F8D020D3F8D02042F00202C3F8A8
:101EE000D020704700ED00E037B50124FEF77EFFFB
:101EF0001B4D224605234FF481301A490094FEF70A
:101F000093FF224607234FF0005017490094FEF735
:101F1000A1FFD5E90101072300220094FEF784FF09
:101F200007230022114912480094FEF793FF296904
:101F3000E8680139FEF7A8FF062300224FF40020CD
:101F40000C490094FEF770FF062300224FF478201E
:101F500009490094FEF768FF002003B030BD00BFC0
:101F6000AC250100FF7F0100FF7F0020FFFF032061
:101F700000800020FFFF0E00FF9F0F0038B50024F7
:101F80000E4D002155F8040B0134FEF7A9FF1E2C5D
:101F9000F7D10020012240F20111094BC3F880045F
:101FA000C3F88424C3F8C004C3F8C424054AC2F8A3
:101FB00040154FF48072C3F8402438BD3425010029
:101FC00000300050009003500122014B1A6070470E
:101FD000BC19002010B50446094B228918686168B5
:101FE0000623406800F090F928B9064B1B68012BC6
:101FF00001D1FFF75DFA6FF08603236010BD00BFCB
:10200000A4190020BC19002001F00C0370B50C2BA2
:102010000CBF154605464A060C4619D58B0658BF17
:102020002835AB6913F8026C84F00803C3F3C003CE
:10203000C6F38012934201D000F01EF816F0A00FF4
:1020400002D14EB1032E10D06FF083032B600AE053
:1020500000F012F82026E7E7FFF780FA0446014671
:10206000044800F028FA204670BD2846FFF7B2FF6A
:10207000F9E700BFF80B0020FFF781B903689A6801
:10208000DB6812F4806F05D18B422CBF00206FF00B
:10209000FA0070478B420CBF00206FF0FA007047C7
:1020A00010B500F0D3F8044600F0E1F850B9FFF79E
:1020B000FFF9A3685B681B685B68834218BF002454
:1020C000204610BD0024FBE738B5054648B1FFF7B0
:1020D0002FFDB5EBD07F044601D0FFF7CDFF2046A2
:1020E00038BDFFF7E5F9F4E7002310B500F1280249
:1020F00052F8041F19B1C16F146C19444C600833B5
:10210000202BF5D110BD70478230012808B506D8C4
:10211000FFF7D8F918B9BDE80840FFF7ADBF08BD13
:10212000F8B506460D46FFF7BBFF044608B9FFF7B2
:10213000A3FFA7680FB9FFF79FFFE368991C20D0A2
:102140005A1C21D1A5B315F1820F13D102232360AC
:10215000EFF3108672B629462046FFF797FC054636
:1021600086F310882368022B24D1204600F081F8E2
:102170002846F8BD15F1830FEAD0FFF77DFF002553
:10218000E6E702232360FAE7002BF6DB2046FFF7A1
:10219000ABFF3B689B689B0501D50223236015F1CB
:1021A000810FD5D16369002BD2DBFFF765FFCFE745
:1021B0003546F4E700232360DAE708B5FFF7DFF8D8
:1021C0006FF0830008BD2DE9F3410E46174698468F
:1021D0000546FFF777F9FFF777FF2946024601A882
:1021E000FFF780F9044660B943463A463146019804
:1021F000FFF7C6FA044640B16B0002D5019800F023
:1022000038F8204602B0BDE8F0810198FFF716FCCF
:102210000446F6E740F20110704770B50546FFF737
:1022200051F906462846FFF7F3F8044608B900209E
:1022300070BD014632462846FFF700F90028F6D166
:102240002368D868F4E74FF480507047B0F5805F9A
:1022500003D1EFF30B808038704700207047704740
:10226000EFF30B8000F1800383F30B8870470020AD
:102270007047EFF30B83803B83F30B88704780EA52
:102280000000E1EE100A00EE100A00EE900A01EEE6
:10229000100A01EE900A02EE100A02EE900A03EE16
:1022A000100A03EE900A04EE100A04EE900A05EEFE
:1022B000100A05EE900A06EE100A06EE900A07EEE6
:1022C000100A07EE900A08EE100A08EE900A09EECE
:1022D000100A09EE900A0AEE100A0AEE900A0BEEB6
:1022E000100A0BEE900A0CEE100A0CEE900A0DEE9E
:1022F000100A0DEE900A0EEE100A0EEE900A0FEE86
:10230000100A0FEE900A70472DE9F0410F4615466E
:10231000002A5BD0002900F08D8003F00602062A17
:1023200057D09A0740F1868008249B0648BF44F0A6
:102330001204860758BF44F00404C00709D5EFF320
:102340009483D9074CBF44F0040424F0040444F0FF
:10235000120422462946384602F0A6FAB0BB47E8E6
:1023600000F205EB0708110E120208F1FF3646E8ED
:1023700000F34FEA13605AD51B0258D5884256D055
:1023800047E800F546E800F6FEF7E4FF2D0E85422B
:102390004FEA166628D3FEF7DFFF864224D8284688
:1023A000FEF7D3FF2246C7F101010144384602F08F
:1023B0007BFAE0B30135AE420DD83046FEF7C3FFDD
:1023C0002246A8EB000102F06FFA80B30020BDE8BE
:1023D000F0810124A9E72846FEF7B5FF0746FEF77E
:1023E000BDFF22460146E1E7FEF7C0FF85421ED34E
:1023F000FEF7BEFF86421AD82846FEF75DFD22464C
:10240000C7F101010144384602F04EFA78B10135B6
:10241000AE4203D83046FEF7A4FFD1E72846FEF7C8
:10242000A0FF0746FEF7A6FF22460146EBE76FF046
:102430007F00CCE74CF2DA20C9E710B50446FFF77D
:1024400043FDFFF751FD10B143F6DA3010BDFFF741
:1024500095FD0028F8D1FFF755FC0028F4D10223A0
:102460002360F3E708B5FFF7F5FC10B143F6DA3067
:1024700008BDFFF7F9FC0028F8D100F01AF8002891
:10248000F4D162B6FFF7FCFC0028EFD1FFF710FD96
:102490000028EDD0EAE7EFF30880EFF309812DE99A
:1024A000F00F6B467246FEF707FC08B0FFF7B4FC6E
:1024B000FEE70020704704460D46FFF7E0FEA54604
:1024C000284783F3088896460222EFF314831343C8
:1024D00083F31488BFF36F8F0847000001000000EA
:1024E00000000000000200000004000000080000DE
:1024F00000100000DEE61E284CBBCE8F025B000001
:1025000000000100000200000002FF002C0000009B
:102510003001FF00080000004001FF000C00000037
:102520000881FF00F8020000E8110020D01100200F
:10253000180401000040005000500050008000507E
:102540000090005000A0005000B0005000E000508B
:1025500000F00050000001500010015000400150F8
:1025600000500150007001500080015000B0015037
:1025700000C0015000D0015000E0015000F00150B7
:1025800000000250001002500020025000300250A3
:1025900000400250006002500080025000A0025033
:1025A000009003500025845000A0035000800100DB
:1025B00000800100FFFF0700007C01000080010097
:1025C00000000800FFFF0E0000800F00FF9F0F00BB
:1025D000FFFFFFFFFFFFFFFFFFFFFFFFFFFFFFFF0B
:1025E0000348044B834202D0034B03B118477047A2
:1025F0007011002070110020000000000548064BFB
:102600001B1AD90F01EBA301491002D0034B03B1F0
:102610001847704770110020701100200000000062
:1026200010B5064C237843B9FFF7DAFF044B13B11A
:102630000448AFF300800123237010BD80180020F0
:1026400000000000104F010008B5044B1BB1044905
:102650000448AFF30080BDE80840CFE70000000069
:1026600084180020104F0100A3F5803A704700BF86
:10267000174B002B08BF134B9D46FFF7F5FF0021BA
:102680008B460F461348144A121A02F04EFA0E4BAC
:10269000002B00D098470D4B002B00D0984700200E
:1026A000002104000D000D48002802D00C48AFF3B3
:1026B000008002F071F920002900FEF781FE02F08F
:1026C00057F900BF000008000000000000000000F3
:1026D000F80B0020701100202C28002000000000C2
:1026E00000000000009A074B9A4208D110B502F092
:1026F0003FFA02F077F906BC96460C46744702F0A2
:102700007BFA0000A5EDF5FE009A074B9A4208D12E
:1027100010B502F039FA02F065F906BC96460C468F
:10272000744702F069FA0000A5EDF5FE0CB4029AB8
:10273000084B9A420CD14FF0004319430CBC10B522
:1027400000F022F802F04EF906BC96460C4674479B
:1027500002F052FAA5EDF5FE009A044B9A4202D11E
:1027600003490868744702F047FA0000A5EDF5FE3A
:10277000744D0100009A034B9A4200D1744702F055
:102780003BFA0000A5EDF5FE2DE9F84304460D46A1
:1027900016461F46EFF30583C3F308030BB1FFF79B
:1027A0006BFCDFF834903B46204632462946D9F888
:1027B0000080FFF708FDD9F800300446984506D0A0
:1027C0009B6901461869BDE8F843FFF7A9BCFFF70C
:1027D0009BFC2046BDE8F883A419002001680E4A3E
:1027E0000346914215D1C169A2F11022A2F1EF1264
:1027F00091420ED18268012A0BD8C26812B10169D8
:102800008A4206D0586928B19B691B1A5842584120
:1028100070470120704700BF55AA00FF0D4B70B5EF
:102820009E68A6B13046FFF7D9FF044678B9F36831
:102830006BB935690DB9204670BD2846FFF7CEFF4C
:1028400028B9EB68B34202D12E462D69F2E7012484
:10285000F1E700BFC01900202DE9F041394E34687E
:10286000F368D4B1B468C4B1002861D000295FD046
:1028700001FB00F5B5FBF0F0884259D1291D57D86E
:10288000AA070DD025F0030204321C4603E061685C
:1028900091424FD2A469002CF9D12046BDE8F081C5
:1028A0002A46F2E7891A232904F12007D4E9050C06
:1028B0001AD80123A360A0B1C0F818C0A36903B15E
:1028C00058610023C4E905333369DB0702D5FFF7FC
:1028D000A5FFA0BB2A46002138463C4602F025F958
:1028E000DBE7C6F80CC0E9E702F1200804EB0803B7
:1028F0002039C3E9011E2169DFF84CE0DC60196171
:1029000044F808E0AEF1102EAEF1EF1EC3F81CE063
:1029100001B1CB60C3E9050C40B18361996901B194
:102920004B6101212361C4E90121CAE7F360F5E7A6
:102930000024B2E7D4F808E0BEF1000FB2D00120C5
:1029400002F016F8C019002055AA00FFF8B5054698
:1029500000283AD0364E3368002B36D0B268002AB1
:1029600033D0834203D872681344984202D30120C3
:1029700001F0FEFFA0F120042046FFF72FFF002802
:10298000F5D155F8183C012BF1D145F8180C55E953
:102990000570DFB1BB68CBB955F81C2C7B682032C1
:1029A00013447B60386100B1C760202200212046BB
:1029B00002F0BBF8386908B183682BB333699B0711
:1029C00003D5FFF72BFF0028D1D1F8BD40B38368B2
:1029D00033BB426863681344203363600369D4E9FE
:1029E0000521236192B9B9B9426981696261A16126
:1029F000A2B19461A26902B1546103B1DC602022EA
:102A0000002102F092F8D9E73C46E2E79161A16922
:102A10000029E9D04A61E7E7F160F8E7F460E9E707
:102A2000F36845F8083C03B15C61F460C6E700BF99
:102A3000C019002038B50D46142200210446124862
:102A400002F073F81149124800F02CF8232D1AD91E
:102A500014F003031FBF043DED18C3F10403E41891
:102A60002A460021204602F060F8074B094AC3E9D4
:102A700000459C602260A2F11022203DA2F1EF12DD
:102A80006560E261DC6038BDC01900204D2901009D
:102A90005928010055AA00FF014B1B68184700BFC9
:102AA00098100020024B1860024B002019607047FC
:102AB0009C1000209810002010B50A46044619B159
:102AC000024B00211B68984710BD00BFA0100020DA
:102AD000074B0A465978022906D11978072903D1EC
:102AE0000146181D02F0CEB86FF08800704700BF95
:102AF000D419002010B5124C2378590744BF23F095
:102B00000403237023789A0705D500F063F823782F
:102B100023F002032370637813B10A4802F0C3F86C
:102B20000023042107486370FFF7C6FF2378DB0703
:102B300005D502F0A4F8237823F00103237010BD1B
:102B4000D4190020D819002038B51C4D6A782B788C
:102B5000022A01D1072B12D0D80713D52B78990759
:102B600007D400F02FF82B78044643F002032B70B3
:102B700088B96A782B788AB12B785A0719D500243E
:102B8000204638BD02F079F82B78044643F0010363
:102B90002B700028E2D0FFF7ADFFF1E7DB07EBD5A4
:102BA000074802F06DF8022304466B700028F2D14A
:102BB000E2E743F004032B70E1E700BFD4190020E3
:102BC000D81900200122024B002083F8802570478D
:102BD000DC1900202DE9F041094C202526464FF054
:102BE000010803272046C4F82080277702F028F840
:102BF000013D04F12C04F5D186F88055BDE8F08143
:102C0000DC19002010B50C4C236813B10B4B1B686A
:102C10002BB900F089FC30B90122084B1A6001235E
:102C20002360002010BD0138062801D9044810BDDA
:102C3000044B53F8200010BD781F0020741F0020A3
:102C4000FE8FFFFF784D0100144B2DE9F043002863
:102C500014BF04461C46124F236883B0BB4219D0F0
:102C600016460D4620464FF4147104F1040900F095
:102C700047F804F58E78484600F0CEF8404600F05C
:102C800019FA2B464A4640460649009600F034FBA6
:102C900008B92760002003B0BDE8F0837C1F002046
:102CA000A5BCC95A9D2E010070B50D4C1D460028CB
:102CB00014BF064626460B4B306882B098420DD1B1
:102CC00006F58E70002633460096144600F03EFB53
:102CD000002818BF34462C6002B070BD0248FBE7E4
:102CE0007C1F0020A5BCC95AE88FFFFF38B131B165
:102CF000002201440346013081421A70FAD1704724
:102D000038B131B1002201440346013088421A70C3
:102D1000FAD170472DE9F043202B1D460646884620
:102D200091468BB026D8DBB202AF8DF80480B04656
:102D300058F8041B8DF8053021B9404601F038F9E8
:102D4000044640B9012302224046336001A901F044
:102D500043F9044638B138462021FFF7D1FF204619
:102D60000BB0BDE8F0832A464946404601F034F9ED
:102D70000446F0E702AF1946104600233A4601F038
:102D8000B1FA04460028E6D12023B9461D46CCE717
:102D90002DE9F041D0F8F830A6B0002BD8BF02AE34
:102DA00031DD05460027D0F80C4102AEA4F1010840
:102DB0009022D5F8FC403146D0F8000101AB0197D4
:102DC000B8FA88F8A0474FEA5818044620B9019B82
:102DD00053B9B8F1000F16D030469021FFF790FF9D
:102DE000204626B0BDE8F081014632462846FFF76E
:102DF00091FF58B9D5F80431019A1344C5F804314C
:102E0000B8F1000FE8D16FF03C04E5E70446204636
:102E100026B0BDE8F08100BF70B50025044614223D
:102E200004F588762946C0F8F850FC3001F07DFEA4
:102E300008222946304601F078FE144B30461B68C4
:102E40009847204640F8045B01F098F8104B304654
:102E50001B689847C8B9D4F8F830AB420FDC03EBD5
:102E6000830204EB82022021C2F800010120C2E9A2
:102E7000421008490133C2F8FC10C4F8F830064B80
:102E80003046BDE870401B68184770BDC010002078
:102E9000BC100020813E0100B81000202DE9F04751
:102EA000202A88B07AD83F4B00F5887904461B6801
:102EB00048461746884698470546F8B940F2011635
:102EC000D4F8F830002B65D02046FFF761FF0546A7
:102ED00038B9D4F8F830002B14DC013EF2D16FF091
:102EE0003B056E4620213046FFF70AFF2E4B484631
:102EF0001B689847002818BF6FF01D05284608B0CA
:102F0000BDE8F087D4E94132934203D3D4F80C21D1
:102F1000012A02D0013ED7D1E1E71F2BFAD96E4634
:102F200001462022304604F1040A01F0FEFD31463C
:102F3000504601F07BF805460028D3D1504601F0F9
:102F400031F8504601F01AF82946504601F030F8A1
:102F500005460028C6D150462022314601F03CF8F3
:102F600005460028BED1034632462021304601F0F6
:102F7000B9F905460028B5D1D4F8F8303A46002B07
:102F8000C8BF002340463146C8BFC4F8043101F031
:102F9000A7FDA7E76FF03F056E46A3E76FF03B057F
:102FA000ACE700BFBC100020B810002070B590B096
:102FB00000287AD03E4C0D46402236210646204657
:102FC00001F0B3FD40225C21A01801F0AEFD2B1DE5
:102FD000A34203D904F144039D4252D32B682268D3
:102FE000534023602B68226C534023646B686268F3
:102FF000534063606B68626C53406364AB68A26863
:103000005340A360AB68A26C5340A364EB68E268D2
:103010005340E360EB68E26C5340E3642B69226940
:1030200053402361226D2B695340236562696B69AC
:10303000534063616B69626D53406365AB69A2691C
:103040005340A361AB69A26D5340A365EB69E2698C
:103050005340E361EB69E26D5340E3650021304684
:1030600000F0A6FF044628B940223046104900F07F
:10307000B3FF044640216846FFF742FE204610B0E9
:1030800070BD631E04F13F01013D1F3415F8010FAF
:1030900013F8012F42401A7011F8012F2878A3422B
:1030A00082EA00020A70F1D1D8E76FF07304E5E715
:1030B000CC21002010B54FF49A720021044601F093
:1030C00034FD42F21072044BC4F8202104F59670CE
:1030D0001B68BDE810401847C01000202DE9F04FD4
:1030E00004468846914695B0002900F0A780002A42
:1030F0000CBF0126022600238DF80C30002C00F0B6
:103100009F80DFF844A104AF0AF1400B0021204664
:1031100000F04EFF034648B1384620210193FFF7E7
:10312000EFFD019B184615B0BDE8F08F40225146D7
:10313000204600F051FF03460028EDD104F1F405CC
:1031400020222946204600F047FF03460028E3D10D
:103150000122204603A900F03FFF03460028DBD1EF
:10316000022E62D020460CA900F060FF0346002822
:10317000D2D10146204600F01BFF03460028CBD1E8
:1031800040225946204600F027FF03460028C3D1BD
:10319000202220460CA900F01FFF03460028BBD1C7
:1031A0003946204600F042FF03460028B4D1394694
:1031B0002046FFF7FBFE03460028ADD1202229461A
:1031C000204600F009FF03460028A5D120460CA99F
:1031D00000F02CFF034600289ED10146204600F057
:1031E000E7FE0346002897D140225946204600F0CA
:1031F000F3FE034600288FD1202220460CA900F0C0
:10320000EBFE0346002887D12946204600F00EFF3A
:103210000346002880D19DF80C200132D2B2B24280
:103220008DF80C20FFF472AF76E74A4641462046FF
:1032300000F0D2FE0346002894D06DE701265AE73D
:103240006FF0730304AF67E7CC2100202DE9F04154
:103250000446884615461F46D0F81801E0B013B161
:1032600000EB40004008B5F5807F3ED82844B0F51B
:10327000C07F3AD84FF4C0720021684601F055FC77
:103280006946D4F82431D4F81821D4F82801984795
:1032900070BBD4F8186157B1D4E9493072080DEB0E
:1032A0000601984720BBD4F8183106EB5306B8F155
:1032B000000F00D08DB9324669462046FFF70EFF59
:1032C000054610B90123C4F8143131466846FFF7AA
:1032D00017FD284660B0BDE8F0810DEB06004146C1
:1032E0002A462E4401F0FCFBE5E76FF00405F0E709
:1032F0006FF00805EDE700BF2DE9F047044604F143
:10330000F4050F4691461E46DDF8208000F036FE9B
:1033100029462046FFF74AFE08B1BDE8F087284657
:103320002022012101F001FCD4F81831C4F82471E5
:10333000C4F8289113B92023C4F818314246314605
:103340002046BDE8F0470123FFF780BFB2F5806F4C
:1033500000F295802DE9F04F89B09A46129BB3F5A3
:10336000807F00F29080D0F82431164604460F4644
:103370004BB3D0F81C31012B05D0D0F81421D0F874
:1033800020319A421FDD514600232046129AFFF752
:103390005DFF014698B900231293002E5ED0DFF83E
:1033A000EC9009F1400B0021204600F001FE202E98
:1033B0003546014628BF202504F1F40890B108469F
:1033C00009B0BDE8F08FBAF1000FE6D0129B002BD8
:1033D000E1D051461A462046FFF780FE01460028FC
:1033E000DBD0ECE749464022204600F0F5FD0146DF
:1033F0000028E4D141462022204600F0EDFD0146A0
:103400000028DCD16946204600F010FE0146002865
:10341000D5D1204600F0CCFD01460028CFD1594639
:103420004022204600F0D8FD01460028C7D1694659
:103430002022204600F0D0FD01460028BFD14146A1
:10344000204600F0F3FD01460028B8D138462A4650
:10345000414601F045FB761B2F44A4D1514620463E
:10346000129AFFF73BFE01460028A8D10846D4F87F
:1034700014310133C4F8143109B0BDE8F08F6FF096
:103480000201084670476FF0040198E7CC21002044
:10349000002130B58DB0282202A8019101F045FB32
:1034A00002A800F047FF044610B120460DB030BD21
:1034B000174D4FF0FF31286800F042F9044620B163
:1034C000144800F0D3F9012C18D0002000F068F95E
:1034D000D0B9114A02A901A800F0C4FC0446012099
:1034E00000F05EF960B9286800F032F90028DCD0FD
:1034F0000A4800F0BBF920460DB030BD0524F2E7C4
:10350000074800F0B3F9EEE7064800F0AFF9E0E74E
:10351000A4100020944D01004C220020EC4D01002D
:10352000CC4D0100AC4D010030B583B000F05CF82B
:1035300028B100F0ABF80324204603B030BD00F002
:1035400077F8D8B900F02CF9E0B9224CD4F8283932
:103550001B0EF02B0AD1D4F8242A1F4B9A4231D0EB
:1035600000F044F8072400F091F8E5E7062400F0A5
:103570003DF800F08BF8204603B030BD042420460F
:1035800003B030BD00F032F800F080F8FFF780FFA4
:10359000044698B9114D2B68002BCDD10246014647
:1035A000FFF752FB50B968220D4901ABFFF77CFBD6
:1035B00020B920460B4B2B6003B030BD05242046BC
:1035C00003B030BD012000F0EBF80028DAD1C4F8D8
:1035D0000C0ADBE7001084500000E0206C2400207F
:1035E000702400205AEA5A5A002070470020704781
:1035F000430504D54FF0FF32034BC3F80821024BBB
:10360000C3F8080A704700BF00108450014BC3F88C
:10361000040A70470010845008B100F06BB84FF4F2
:103620007500704708B100F04FB84FF4750070474F
:1036300010B5114800F070F800B110BD0F4800F04F
:103640006BF80028F9D10E4C204600F065F80028F0
:10365000F3D10C4B0C481C6000F05EF801460028CA
:10366000EBD100F02DF8044608B1204610BD00F063
:1036700079F82046FAE700BFB4100020B01000200F
:10368000AC100020A4100020A810002008B50848A5
:1036900000F04CF8074800F049F8074800F046F8F9
:1036A000064800F043F8BDE8084000F00BB800BF42
:1036B000B4100020B0100020AC100020A810002092
:1036C00000207047704700BF024610B4084CD4F881
:1036D000003A1342FBD021B1D4F804310B60C4F896
:1036E0000831034B0020C3F8082A5DF8044B7047EB
:1036F00000108450044AD2F8003A1842FBD0C2F8B5
:10370000080A0020704700BF0010845001F00BBB76
:103710000A46002101F009BA08B5034B02681B688C
:1037200010689847002008BDE010002008B5034B42
:1037300002685B6810689847002008BDE010002010
:10374000024B02689B681068184700BFE010002019
:1037500008B5034B0268DB6810689847002008BD75
:10376000E010002070B5094C094D2069AB689847FE
:1037700018B1084B08485B6898470021074AEB6876
:1037800011602069BDE87040184700BFCC100020D0
:10379000E0100020C4100020044E0100D8240020B6
:1037A000F8B51A4D1A4E0446B26828699047E8B930
:1037B000184F3B684CB1A3B1012B19D0013B3B60C2
:1037C0002869F36898470020F8BD43B90121124ADF
:1037D000C2F800151149D1F81029002AFBD1013394
:1037E0003B60F368286998470020F8BD0C48F8BD95
:1037F0000A4AD2F81039002BFBD1074A6FF07E40FD
:10380000C2F80035FFF702FF3B68D7E7CC10002075
:10381000E0100020D82400200000845000108450C4
:10382000E98FFFFF014B1B68184700BFE010002025
:10383000014B9B68184700BFE0100020014BDB687C
:10384000184700BFE0100020BFF34F8F0549064B1B
:10385000CA6802F4E0621343CB60BFF34F8F00BF2E
:10386000FDE700BF00ED00E00400FA0530B44FF0C2
:10387000FE320025074B084C08494968C3F800246C
:10388000C3F80424C3F80824C3F80C24C4F8005572
:1038900030BC08470010845000008450C410002041
:1038A00010B5044650B1636813F0685F05D0064A4E
:1038B000934202D000236260236010BD034B044892
:1038C0005B689847EFE700BF2C5F5CA9C41000203D
:1038D000244E0100C8B143680D4A934213D013F03F
:1038E000685F0ED0012350E8002F194640E8001C05
:1038F0009CF0000FF7D1012AF5D0BFF35F8F0020B5
:10390000704704487047044870476FF4E0407047C0
:103910002C5F5CA9E98FFFFFEA8FFFFF034680B1B0
:10392000426809498A420AD012F0685F05D0BFF3A5
:103930005F8F002210461A607047044870470448A1
:1039400070476FF4E04070472C5F5CA9E98FFFFF80
:10395000EA8FFFFF10B5044620B10023034A23601D
:10396000626010BD0248FFF781FFF6E73A00003AB7
:103970004C4E01002DE9F047002878D00C46002974
:1039800075D01D46002B72D007461AB101220023C4
:103990002A6003602B68002B64D02946204600F083
:1039A000B7FD804600285FD12146286800F096FDCB
:1039B0008046002858D12B68082B6CD0042B6DD082
:1039C000A3F10209B9FA89F94FEA59190121354ED3
:1039D000C6F8C411C6F84011C6F8C411636AC6F827
:1039E0003031D6F830219342F6D14FF0000A4FF033
:1039F000FF30C6F82CA1FFF7FBFD6FF01B0350460C
:103A0000C6F80031FFF702FEC6F80C91D6F8040A9A
:103A100040F48060FFF7FAFD0A23C6F83831089BAE
:103A2000012B29D02369204AA2FB03231B09626AC8
:103A3000404602FB03F303EB43031A4ADB039B09F3
:103A4000C2F8D8310123C2F82C313B682A6823F030
:103A50007F4343EA02633B602A6843EA02233B60F8
:103A6000BDE8F087DFF844804046BDE8F087DFF826
:103A700040804046BDE8F0874FF47F03D3F80C2C1C
:103A8000013206D0D3F80C3C074AA2FB03231B09E2
:103A9000CDE71623CBE74FF0030997E74FF0020974
:103AA00094E700BF00108450ABAAAAAA310CF10021
:103AB000350CF10058B34B1EB3F5047F27D230B557
:103AC0004FF0000ECD00744671464B0901F01F0CFB
:103AD00050F82330BCF11F0F23FA0CF306D003F08B
:103AE000010319B901211C468E46EEE79C4201F103
:103AF000010106D01C464FF0010EA942E5D100207D
:103B000030BD0EF1010E9645F7D1024830BD014897
:103B1000704700BF360CF100C0B32DE9F0434C1ED6
:103B2000B4F5047F1DD2E3B1DAB100252E46A846D4
:103B30002C46CF0003F1FF394FEA541C04F01F0E4E
:103B400050F82C10BEF11F0F21FA0EFC0CD00CF017
:103B5000010C4CB90126E04634463546ECE7964266
:103B600016D90C48BDE8F083AB420BD0C44508BF62
:103B70000136A945F3D001350134BC42DCD1002027
:103B8000BDE8F0830125E0462E46F5E70148704781
:103B90001D46F1E7370CF1002DE9F04F91B0834657
:103BA000DDE91B460D46002E6ED10F691C60002317
:103BB0001A990B60002A00F02F819D4B6A6AD3F896
:103BC0003811D3F830319A4269D10A2967D19BF86C
:103BD0000330089304F10803079304230593954BDE
:103BE000934CA3FB07239B0803EB4303A7EB43037F
:103BF000039306971A9B069E1E60002E00F0EA8033
:103C000000F096FC00230993BBF1000F00F0D58073
:103C100098464FF0010ADDF81C90002D00F0CD8091
:103C2000089B002B3DD0284608A900F071FC002815
:103C300039D0814B984220D0089B082B00F0E480BB
:103C400000225B000893294608AB58460092FFF714
:103C500091FE7A4B984200F0D38070B9DBF80020D7
:103C6000130A03F47F03134323F07F43CBF80030A0
:103C7000059B013B0593BDD10020039000F058FC4B
:103C8000039811B0BDE8F08F4FF47F01D1F80C0C10
:103C900001300CBF4FF40477D1F80C7C86E76848FC
:103CA000EBE76648C5E72946089800F017FC0028AE
:103CB000BFD1089B082B00F0A980042B00F0A9803D
:103CC000A3F10203B3FA83F35B090493C4F8C4A11C
:103CD000C4F840A1C4F8C4A16B6AC4F83031D4F868
:103CE00030219342F6D100234FF0FF30C4F82C313D
:103CF000FFF77EFC002318466FF01B03C4F8003169
:103D0000FFF784FC049B4B4FC4F80C31D4F8040A31
:103D100040F48060FFF77AFC0A23C4F838312B693D
:103D200009A8A7FB03236A6A1B0902FB03F303EB41
:103D30004303DB039B09C4F8D831C4F82CA1DBF89A
:103D40000030089923F07F420B0243EA01631343DA
:103D5000CBF8003000F0B2FB099B03F01A030343D9
:103D60007FF46AAFA7FB0637D4F81431B8EB970F8E
:103D70000A93D4F818310B93D4F81C310C93D4F86F
:103D800020310D93D4F824310E93D4F828310F93B9
:103D900001D1039B9BB9484618220AA9183EFFF798
:103DA000B5FC09F1180908F101089EB100F0C0FB4B
:103DB00000230993002D7FF433AF224839E74846AA
:103DC0001A46F61A0AA9994408F10108FFF79EFC61
:103DD000002EEBD1069F079E6A6939463046FFF7F1
:103DE00069FEAA6940B94FF4806339463046FFF74F
:103DF00093FE00283FF440AF00231A9A136018E79F
:103E00002B6A002B3FF439AF0F4836E703230493A6
:103E10005CE70223049359E701222946584600969D
:103E200008ABFFF7A7FD00283FF4D4AE25E700BF9D
:103E300000108450ABAAAAAA020CF100310CF100C8
:103E4000300CF100350CF100320CF10030B4DDE93A
:103E5000023402940024049DCDE9035430BCFFF7E2
:103E60009BBE00BF30B51546012487B005AB00935B
:103E70000022CDE9015404ABFFF78EFE07B030BD40
:103E8000F0B587B0002966D01E46002B63D01446DB
:103E9000002A60D0314F0D4638684FF0FF31FFF7F0
:103EA0004FFC00284DD10020FFF77AFC002844D1B8
:103EB0002B4800F03FFAD8B101204FF0FF35FFF753
:103EC0006FFC002835D14FF408712648FEF70EFF2D
:103ED00004212548FEF70AFF21482821FEF706FFA6
:103EE0003868FFF735FC00282FD1284607B0F0BD11
:103EF0001C4A0346029205AA019204AA039000926A
:103F0000174902461848FFF7A1FF03460028D3D1FE
:103F100028461D46059B22469C4228BF1A46049906
:103F200032600831FFF7F2FB0120FFF739FC00286F
:103F3000C9D00E48FFF79AFCC5E70D48FFF796FC7D
:103F4000B6E70C48FFF792FCADE70B48FFF78EFC95
:103F5000284607B0F0BD4FF0FF35C6E7A41000209B
:103F6000F024002018250020EC240020CC4D010076
:103F7000AC4D0100944D0100704E010010B5044697
:103F800028B12046BDE81040F421FFF7C1BB04482A
:103F9000FFF76CFC2046BDE81040F421FFF7B8BBEA
:103FA000884E010010B1F421FEF7A0BE704700BF9B
:103FB00008B521B1012908D06FF0360008BD0121F4
:103FC00000F058F80028F7D108BD022100F052F89F
:103FD0000028F9D0F0E700BF30B505468818B0F5E5
:103FE000801F0B461446A1B001D8802A0CD9B3F526
:103FF000801F17D922461946284600F07DF804464E
:1040000084B9204621B030BD6846FFF77FFB2246C9
:104010006946284600F070F8802104466846FFF79C
:1040200077FBEDE76FF03604EBE700BF70B5E8B162
:104030000E46D9B1044600F031F80546B0B9236800
:10404000012B0BD0022B01D0284670BD1C2230461C
:1040500004F10801FFF75AFB284670BD20223046C4
:1040600004F10801FFF752FB284670BD6FF03605DA
:10407000EAE700BF78B138B50D46F0210446FFF7F6
:1040800047FB402320462560E36500F091FA0038A5
:1040900018BF012038BD0120704700BFF0B5056E84
:1040A000A5B0044604AEE5B90023012701933046CC
:1040B0006760294602AA009300F046FA10B1012079
:1040C00025B0F0BD2A46204602A900F099FA002842
:1040D000F5D1204600F0AAFB0028F0D1206625B0DB
:1040E000F0BD802D2A46304628BF802204F16401AD
:1040F000FFF70CFB256ED7E7002800F0AE802DE916
:10410000F04F1446A5B0002A3DD00F46002949D0F3
:10411000B2F5803F0546006E20D34FF6FF7805F1DB
:10412000640AEB6D1A1AB2FBF3F103FB1122002AA9
:1041300065D18342B9464FF6FF7672D0B6FBF3FBEA
:1041400003FB0BFBBBF1000F30D1002E45D1A4F5D2
:104150007F44FF3CB4F5803F4744E2D2EA6D161A33
:10416000B6FBF2F302FB1366A64228BF2646002EDA
:1041700075D1824200F08D80B4FBF2F602FB06F6A8
:104180002EB9002C79D1002025B0BDE8F08F002396
:1041900031463846CDE9003302AA00F0D5F90028AF
:1041A00000F09580012025B0BDE8F08F002359462E
:1041B0004846CDE9003302AA00F0C6F90028F1D143
:1041C0005A46284602A900F01BFA0028EAD1A6EBBD
:1041D0000B06286ED944002EB9D019304946324614
:1041E00005EB8000FFF792FAA4F57F44286EFF3CB0
:1041F0003044B4F5803F4744286692D2AEE742454A
:1042000028BF4246164639465044FFF77FFA286ECB
:10421000EB6D3044834207EB06092866A8EB0606DF
:104220008CD1802B28BF802351461A4604A8FFF763
:104230006DFA0023E96D02AACDE9003304A800F06D
:1042400083F90028AED12846EA6D02A900F0D8F91A
:104250000028A7D1EB6D286670E70120704705F1B3
:104260006403394632461844FFF750FA286EEA6D67
:104270003044A41B374428667BE72B6E2246193353
:1042800005EB83003946FFF741FA2B6E23442B667A
:1042900079E7802A28BF802205F1640104A8FFF78E
:1042A00035FA0023E96D04A8CDE9003302AA00F035
:1042B0004BF900287FF476AF2846EA6D02A900F09A
:1042C0009FF900287FF46EAFEA6D286654E7324606
:1042D000284602A900F094F900287FF463AF374420
:1042E000A41B4EE7F8B51C460546114816460F4676
:1042F000FFF744FE21460E48FFF75AFE044620B160
:104300000B48FFF74FFE2046F8BD3A4629460848BD
:10431000FFF762FE04460028F2D131460448FFF759
:1043200085FE04460248FFF73DFE2046F8BD00BF6B
:10433000382700201C2370B582B001A905460193DF
:1043400000F032F8044638B9019B1C2B07D0144CFE
:104350001C212846FFF7DCF9204602B070BDD5E9E4
:104360000112131E18BF0123003918BF01210126B5
:1043700028689B00EA6843EA4103002818BF43F01D
:104380000103EE612AB9C5E90834002BE4D1054CDC
:10439000DEE7204643F00803C5E9083402B070BDEB
:1043A000370CF0000E0CF0000346002866D0002900
:1043B00064D00A681C2A61D14FF47F023B49D2F8CD
:1043C000100C88425CD0D2F8101C013158D0D2F8C1
:1043D000101C4FF47F021960D2F8140C3449884243
:1043E00060D0D2F8141C01315CD0D2F8141C4FF408
:1043F0007F025960D2F8181C11F5947F4FD0D2F883
:10440000181C01314BD0D2F8181C4FF47F02996070
:10441000D2F81C0C274988423ED0D2F81C1C01312E
:104420003AD0D2F81C1C4FF47F02D960D2F8001C9D
:1044300070312FD0D2F8001C01312BD0D2F8001CE3
:104440004FF47F021961D2F8041CAF3120D0D2F8AA
:10445000041C01311CD0D2F8041C4FF47F025961B6
:10446000D2F8080C144988420DD0D2F8081C01314A
:1044700009D0D2F8082C00209A61704701207047BB
:1044800040F6FC01A5E740F2373200209A61704700
:104490005121E2E79021D3E742F60411C3E740F649
:1044A000D861B2E742F2D001A1E700BFFCF8FFFFFC
:1044B000D020FFFF0429FFFF37F3FFFF014608B5B7
:1044C0004FF48060FFF7AEF80022034BC3F8C82119
:1044D000C3F82C2108BD00BF001084500138072804
:1044E00005D8DFE800F0100E040A040404060748AB
:1044F0007047CB6800204B6270478B6800204B628E
:1045000070474B68F6E70B68F4E700BF310CF10029
:104510000B6802E0082B0B6006D8026A13424FEAD0
:104520004303F7D00020704700487047310CF1007A
:104530000022044B4FF48060C3F82C21C3F8C4213F
:10454000FFF756B800108450F0B5002483B0B0F1E6
:10455000005F8DF8074025D38C468444BCF1804F22
:1045600004461FD817461D4601220DF1070300F02F
:1045700097F90646B0B99DF80730099A3C603B713F
:1045800092B14DB10246089928460DF1070300F09B
:1045900087F938B99DF807303046099A15601371CC
:1045A00003B0F0BD4FF47506304603B0F0BD00BF58
:1045B000D8B108B50368012B04D0022B0FD043B14A
:1045C0000B4808BD20220B490830FFF79FF8002058
:1045D00008BD142208490830FFF798F8F7E72022B1
:1045E00006490830FFF792F8F1E74FF4730070477F
:1045F0000100F300984E0100D84E0100B84E0100B2
:104600002DE9F843002900F0F9800446002800F065
:10461000F98003680F469046002B00F0C380013BF1
:10462000012B00F2D7804FF0FF3178484FF002099C
:10463000FFF786F8002840F0BF800020FFF7B0F8B1
:104640000646002840F0C280714AD2F81C39002B7F
:10465000FBD16F4DD5F8203C002BFBD14FF0FF3044
:10466000FEF7C6FFD5F8040A20F04000FEF7CEFFA3
:1046700001230722C5F81838C5F80029C5F8C43742
:10468000A36CC5F8CC37E36CC5F8D037C5F8C09734
:1046900023685BB1013B012B18D8636AC5F85C360F
:1046A000236AC5F85836E369C5F85436A269584BF1
:1046B000C3F850266269C3F84C262269C3F848261D
:1046C000E268C3F84426A268C3F84026504AD2F8EC
:1046D0001039002BFBD1B8F1000F5FD06368402088
:1046E000012B08BFC2F884363A68494BC3F8282C1E
:1046F000C3F82C8CFEF790FF0646454AD2F81039D5
:10470000002BFBD1424AD2F8203C002BFBD123687E
:104710005BB1013B012B18D8D2F85C366362D2F84A
:1047200058362362D2F85436E361394BD3F8502619
:10473000A261D3F84C266261D3F848262261D3F8EF
:104740004426E260D3F84036A36000230121304ABA
:10475000D2F8CC07A064D2F8D007E064C2F8C4173E
:10476000C2F88436C2F8C837D2F81039002BFBD112
:10477000C2F81838002E3BD1254BD3F8040A40F07C
:104780004000FEF743FF0120FFF70AF860BB1F4817
:10479000FEF7DEFF10BB3046BDE8F8830423C2F805
:1047A000C837AAE74FF0FF3118484FF00109FEF76C
:1047B000C7FF00283FF441AF1648FFF757F8002025
:1047C000FEF7EEFF064600283FF43EAF1248FFF723
:1047D0004DF839E7114E3046BDE8F8831048FFF731
:1047E00045F83046BDE8F8830E48FFF73FF8CEE7BE
:1047F000102104F10800FEF78BFFBDE70A4E30469A
:10480000BDE8F8834FF47306C5E700BFB41000207D
:1048100000108450944D0100AC4D01000100F300E4
:10482000EC4D0100CC4D01000300F300A0B30346A2
:1048300070B4D0E90240D3E9041226BA05BA0CBA22
:1048400010BAC3E90440D3E90612986A09BAC3E969
:10485000026512BA996100BAD3E9084125BA0CBAC7
:10486000C3E90725D3E90B12C3E9094009BAD86B9C
:1048700012BAD962D3E90D4125BAC3E90C250CBAA5
:1048800000BAD3E9101209BA12BAC3E90E4019648A
:1048900000205A6470BC70474FF47300704700BF2B
:1048A00000201870704700BF431810B501D21F2AAE
:1048B00001D9002010BD013902F014030144102B6E
:1048C00080EA01043CD009DC8BB1042BF1D11F2C10
:1048D00040E840F315D941E840F10EE0142BE8D14F
:1048E0001F2C40E8C0F30CD941E8C0F105E01F2CB3
:1048F00040E800F305D941E800F11C460B468C4224
:10490000D7D122F01402013A0A2AD2D801A151F8D3
:1049100022F000BF634901005D4901004F490100D9
:10492000B3480100B3480100B3480100B348010097
:104930006949010063490100574901004F490100DD
:104940001F2C40E880F3DCD941E880F1D5E713F46F
:10495000001FAFD1ADE713F4801FFAE75B02A9D5C2
:10496000A7E713F4002FF4E713F4802FF1E700BF5B
:1049700008B5074B044613B10021AFF30080054B87
:104980001868836A03B19847204600F029F800BFF1
:1049900000000000EC4E010070B50D4D00260D4CDE
:1049A000641BA410A64209D10B4D00260B4C00F04D
:1049B000D5F9641BA410A64205D170BD55F8043B7F
:1049C00001369847EEE755F8043B01369847F2E781
:1049D0004808010048080100480801004C0801008F
:1049E000FEE700BFB7EE000AF7EE000AB7EE001AC6
:1049F000F7EE001AB7EE002AF7EE002AB7EE003AFB
:104A0000F7EE003AB7EE004AF7EE004AB7EE005A6A
:104A1000F7EE005AB7EE006AF7EE006AB7EE007ADA
:104A2000F7EE007AF1EE10CA40F29F01CFF20001DA
:104A30003CEA010CE1EE10CA002383F300887047C2
:104A4000FDF71ABBEFF30880EFF309812DE9F00FB2
:104A50006B467246FCF730F908B0FFF7F1FFFEE74E
:104A6000FDF70ABBEFF30880EFF309812DE9F00FA2
:104A70006B467246FCF720F908B0FFF7F1FFFEE73E
:104A8000FDF7FABAEFF30880EFF309812DE9F00F93
:104A90006B467246FCF710F908B0FFF7F1FFFEE72E
:104AA000FDF7EABAEFF30880EFF309812DE9F00F83
:104AB0006B467246FCF700F908B0FFF7F1FFFEE71E
:104AC000FDF7DABAEFF30880EFF309812DE9F00F73
:104AD0006B467246FCF7F0F808B0FFF7F1FFFEE70F
:104AE00070B504463AB141EA040313F003030CD154
:104AF000D518032D0FD822F003031C4419440023BA
:104B000002F0030293420CD170BD11F8013B013A4F
:104B100004F8013BE6E7CD1A2E68E51A2E60043B47
:104B2000E6E75D5CE5540133ECE7F0B5044662B9B5
:104B300022F00303234402F003021A44934214D1E7
:104B4000F0BD04F8011B013AF1E7A307F9D11546BE
:104B50000B0443EA01630B4343EA01231619032DB7
:104B6000E6D9771B3B60043DF9E703F8011BE5E755
:104B700008B5EFF30583C3F308030BB1FDF77CFA27
:104B8000BDE80840FDF746BB10B50446EFF30583CA
:104B9000C3F308030BB1FDF76FFA2046BDE81040E0
:104BA000FDF73BBB2DE9F04104460D4616461F4676
:104BB000EFF30583C3F308030BB1FDF75DFA3B4642
:104BC000324629462046BDE8F041FCF79DBE2DE95E
:104BD000F04104460D4616461F46EFF30583C3F326
:104BE00008030BB1FDF748FA3B46324629462046FA
:104BF000BDE8F041FCF7C2BE08B5EFF30583C3F38F
:104C000008030BB1FDF738FABDE80840FDF7D5BA47
:104C100000207047704710B5044608B1FDF74CFFFF
:104C20002046BDE81040FDF737BF10B50446406A86
:104C300010B1A16AFFF7EFFF0020C4E9090010BD21
:104C400038B50546FFF7F1FF2B7F0446012B0ED048
:104C5000023B012B0ED82B6A012B18BF6FF0960474
:104C60002C2200212846FFF760FF204638BD2B6A22
:104C7000002BF2E76FF09604F2E7002070477047D0
:104C80000020704713B5002001AB1446FEF70CF866
:104C900030B9019BA34218BF6FF0930002B010BD62
:104CA0006FF09200FAE7002070470346002030B50D
:104CB000013A00D230BD1D780C78A54202D008B967
:104CC000281BF5E701330131F2E72DE9E04F2746D4
:104CD000A046A146A246A346A4462DED108B4FF058
:104CE000000545EC185B45EC195A45EC1A5A45ECA1
:104CF0001B5A45EC1C5A45EC1D5A45EC1E5A45EC16
:104D00001F5AF1EE105A4FF66076C0F6FF76354026
:104D1000E1EE105A84F3008825462646A447BDECF0
:104D2000108BBDE8E08F884210B501EB020402D978
:104D30008442234607D8431EA14208D011F8012B14
:104D400003F8012FF8E7024401468A4200D110BD62
:104D500013F8014D02F8014DF7E70000F8B500BF68
:104D6000F8BC08BC9E467047F8B500BFF8BC08BC4C
:104D70009E4670477AFFFFFFFF8FFFFFFF8FFFFF09
:104D8000FE8FFFFFFE8FFFFFFD8FFFFFFC8FFFFFFA
:104D9000FC8FFFFF4661696C20746F206163717541
:104DA000697265206D757465780A00004661696CEA
:104DB00020746F20696E63726561736520504D20A9
:104DC000636F756E7465720A000000004661696C5D
:104DD00020746F20646563726561736520504D2097
:104DE000636F756E7465720A000000004661696C3D
:104DF00020746F2072656C65617365206D757465D4
:104E0000780A0000436F756C64206E6F74206C6FBD
:104E1000636B20706F7765722073617665206D75A6
:104E2000746578006D757465785F6672656520637A
:104E3000616C6C65642077697468204E554C4C2019
:104E4000706172616D6574657200000043616E2768
:104E50007420696E697469616C697A65206D757416
:104E600065782C20776173204E554C4C0D0A00005C
:104E70004661696C20746F20756E6C6F636B206D7A
:104E8000757465780A0000000A63747820697320DD
:104E90004E554C4C0A00000067E6096A85AE67BBB8
:104EA00072F36E3C3AF54FA57F520E518C68059B0C
:104EB000ABD9831F19CDE05BD89E05C107D57C36E1
:104EC00017DD703039590EF7310BC0FF11155868D6
:104ED000A78FF964A44FFABE0123456789ABCDEFD4
:104EE000FEDCBA9876543210F0E1D2C310110020E3
:104EF00054464D5F43525950544F0054464D5F50F5
:104F00004C4154464F524D5F53455256494345001C
:104F10000000000000000000000000000000000091
:104F2000FFFFFFFFFFFFFFFFFFFFFFFFFFFFFFFF91
:104F3000FFFFFFFFFFFFFFFFFFFFFFFFFFFFFFFF81
:104F4000FFFFFFFFFFFFFFFFFFFFFFFFFFFFFFFF71
:107C00007FE97FE9FAF76EBD7FE97FE9FAF77CBD8E
:107C10007FE97FE9FAF7AEBD7FE97FE9FAF79CBD1E
:107C20007FE97FE9FAF782BD000000000000000054
:107C30000000000000000000000000000000000044
:107C4000D0110020701100204403010090ED00E0ED
:107C500000A003507FA60350154C0100114C0100F9
:107C60002B4B0100AC100020DC100020D4100020B1
:107C7000D0100020CC1000203D3801003138010028
:107C800025380100000000004938010008110020DB
:107C900000110020F810002000000000F01000206B
:107CA00055390100A1380100D53801001D39010006
:107CB000DC2400203A00003AE02400203A00003A98
:107CC000E42400203A00003AE82400203A00003A78
:107CD00000000000000000000000000000000000A4
:107CE0000000000000000000000000000000000094
:107CF0000000000000000000000000000000000084
:107D00000000000000000000000000000000000073
:108000009830022075650200A50D0400616502002C
:108010006165020061650200616502006165020040
:108020000000000000000000000000009167020056
:108030006165020000000000156702006165020032
:10804000A5690200A5690200A5690200A5690200F0
:10805000A5690200A5690200A5690200A5690200E0
:10806000A5690200A5690200A5690200A5690200D0
:10807000A5690200A5690200A5690200A5690200C0
:10808000A5690200A5690200A5690200A5690200B0
:10809000A5690200A5690200A5690200A5690200A0
:1080A000A5690200A5690200A5690200A569020090
:1080B000A5690200A5690200A5690200A569020080
:1080C000A5690200A5690200A5690200A569020070
:1080D000A5690200A5690200A5690200A569020060
:1080E000A5690200A5690200A5690200A569020050
:1080F000A5690200A5690200A5690200A569020040
:10810000A5690200A5690200A5690200A56902002F
:10811000A5690200A5690200A5690200A56902001F
:10812000A5690200A5690200A5690200A56902000F
:10813000A5690200A5690200A5690200A5690200FF
:10814000A56902000000000000000000000000001F
:10815000000000000000000000000000000000001F
:10816000000000000000000000000000000000000F
:1081700000000000000000000000000000000000FF
:1081800000000000000000000000000000000000EF
:1081900000000000000000000000000000000000DF
:1081A00000000000000000000000000000000000CF
:1081B00000000000000000000000000000000000BF
:1081C00000000000000000000000000000000000AF
:1081D000000000000000000000000000000000009F
:1081E000000000000000000000000000000000008F
:1081F000000000000000000000000000000000007F
:10820000DEE61E284CBBCE8F025B00003C00000067
:1082100000BB03000100000000800100008001009D
:10822000FFFF0291000000000000000000000000BD
:10823000000000000000000000000000FFFFFFFF42
:1082400081F0004102E000BF83F0004330B54FEA07
:1082500041044FEA430594EA050F08BF90EA020F74
:108260001FBF54EA000C55EA020C7FEA645C7FEA07
:10827000655C00F0E2804FEA5454D4EB5555B8BF2A
:108280006D420CDD2C4480EA020281EA030382EA9B
:10829000000083EA010180EA020281EA0303362D2D
:1082A00088BF30BD11F0004F4FEA01314FF4801C00
:1082B0004CEA113102D0404261EB410113F0004F12
:1082C0004FEA03334CEA133302D0524263EB4303C9
:1082D00094EA050F00F0A780A4F10104D5F1200E67
:1082E0000DDB02FA0EFC22FA05F2801841F10001C2
:1082F00003FA0EF2801843FA05F359410EE0A5F196
:1083000020050EF1200E012A03FA0EFC28BF4CF0C6
:10831000020C43FA05F3C01851EBE37101F000457C
:1083200007D54FF0000EDCF1000C7EEB00006EEB89
:108330000101B1F5801F1BD3B1F5001F0CD3490813
:108340005FEA30004FEA3C0C04F101044FEA44526A
:1083500012F5800F80F09A80BCF1004F08BF5FEAF1
:10836000500C50F1000041EB045141EA050130BDD1
:108370005FEA4C0C404141EB0101013C28BFB1F5E3
:10838000801FE9D291F0000F04BF01460020B1FA2E
:1083900081F308BF2033A3F10B03B3F120020CDA01
:1083A0000C3208DD02F1140CC2F10C0201FA0CF0DF
:1083B00021FA02F10CE002F11402D8BFC2F1200C44
:1083C00001FA02F120FA0CFCDCBF41EA0C019040FA
:1083D000E41AA2BF01EB0451294330BD6FEA040443
:1083E0001F3C1CDA0C340EDC04F11404C4F120022E
:1083F00020FA04F001FA02F340EA030021FA04F340
:1084000045EA030130BDC4F10C04C4F1200220FA96
:1084100002F001FA04F340EA0300294630BD21FAD4
:1084200004F0294630BD94F0000F83F4801306BF9A
:1084300081F480110134013D4EE77FEA645C18BF8E
:108440007FEA655C29D094EA050F08BF90EA020F25
:1084500005D054EA000C04BF1946104630BD91EA1D
:10846000030F1EBF0021002030BD5FEA545C05D120
:108470004000494128BF41F0004130BD14F580045F
:108480003CBF01F5801130BD01F0004545F0FE41D3
:1084900041F470014FF0000030BD7FEA645C1ABF08
:1084A000194610467FEA655C1CBF0B46024650EA3F
:1084B000013406BF52EA033591EA030F41F400216B
:1084C00030BD00BF90F0000F04BF0021704730B5F1
:1084D0004FF4806404F132044FF000054FF00001C6
:1084E00050E700BF90F0000F04BF0021704730B587
:1084F0004FF4806404F1320410F0004548BF40425C
:108500004FF000013EE700BF42004FEAE2014FEAB0
:1085100031014FEA02701FBF12F07F4393F07F4F8B
:1085200081F06051704732F07F4208BF704793F08E
:108530007F4F04BF41F40021704730B54FF46074A1
:1085400001F0004521F000411CE700BF50EA0102A4
:1085500008BF704730B54FF000050AE050EA01024D
:1085600008BF704730B511F0004502D5404261EBBD
:1085700041014FF4806404F132045FEA915C3FF4FE
:10858000D8AE4FF003025FEADC0C18BF03325FEA9B
:10859000DC0C18BF033202EBDC02C2F1200300FA4C
:1085A00003FC20FA02F001FA03FE40EA0E0021FA71
:1085B00002F11444BDE600BF70B54FF0FF0C4CF45F
:1085C000E06C1CEA11541DBF1CEA135594EA0C0F11
:1085D00095EA0C0F00F0DEF82C4481EA030621EA4C
:1085E0004C5123EA4C5350EA013518BF52EA033587
:1085F00041F4801143F4801338D0A0FB02CE4FF039
:108600000005E1FB02E506F00042E0FB03E54FF068
:108610000006E1FB03569CF0000F18BF4EF0010E60
:10862000A4F1FF04B6F5007F64F5407404D25FEA5C
:108630004E0E6D4146EB060642EAC62141EA55510F
:108640004FEAC52040EA5E504FEACE2EB4F1FD0C51
:1086500088BFBCF5E06F1ED8BEF1004F08BF5FEACF
:10866000500E50F1000041EB045170BD06F0004681
:1086700046EA010140EA020081EA0301B4EB5C042E
:10868000C2BFD4EB0C0541EA045170BD41F4801126
:108690004FF0000E013C00F3AB8014F1360FDEBF4B
:1086A000002001F0004170BDC4F10004203C35DA27
:1086B0000C341BDC04F11404C4F1200500FA05F3AA
:1086C00020FA04F001FA05F240EA020001F000424B
:1086D00021F0004110EBD37021FA04F642EB0601C1
:1086E0005EEA430E08BF20EAD37070BDC4F10C04EB
:1086F000C4F1200500FA04F320FA05F001FA04F2AF
:1087000040EA020001F0004110EBD37041F100019A
:108710005EEA430E08BF20EAD37070BDC4F12005A5
:1087200000FA05F24EEA020E20FA04F301FA05F20D
:1087300043EA020321FA04F001F0004121FA04F2B5
:1087400020EA020000EBD3705EEA430E08BF20EA85
:10875000D37070BD94F0000F0FD101F000464000BF
:1087600041EB010111F4801F08BF013CF7D041EA41
:10877000060195F0000F18BF704703F00046520045
:1087800043EB030313F4801F08BF013DF7D043EA16
:108790000603704794EA0C0F0CEA135518BF95EACC
:1087A0000C0F0CD050EA410618BF52EA4306D1D153
:1087B00081EA030101F000414FF0000070BD50EA72
:1087C000410606BF1046194652EA430619D094EAFC
:1087D0000C0F02D150EA013613D195EA0C0F05D1E6
:1087E00052EA03361CBF104619460AD181EA03013A
:1087F00001F0004141F0FE4141F470014FF00000F2
:1088000070BD41F0FE4141F4780170BD70B54FF08C
:10881000FF0C4CF4E06C1CEA11541DBF1CEA13550C
:1088200094EA0C0F95EA0C0F00F0A7F8A4EB0504EE
:1088300081EA030E52EA03354FEA013100F08880E5
:108840004FEA03334FF0805545EA131343EA1263AE
:108850004FEA022245EA111545EA10654FEA002663
:108860000EF000419D4208BF964244F1FD0404F51C
:10887000407402D25B084FEA3202B61A65EB030578
:108880005B084FEA32024FF480104FF4002CB6EB35
:10889000020E75EB030E22BFB61A754640EA0C00B5
:1088A0005B084FEA3202B6EB020E75EB030E22BFF5
:1088B000B61A754640EA5C005B084FEA3202B6EB36
:1088C000020E75EB030E22BFB61A754640EA9C00F5
:1088D0005B084FEA3202B6EB020E75EB030E22BFC5
:1088E000B61A754640EADC0055EA060E18D04FEA83
:1088F000051545EA16754FEA06164FEAC30343EA23
:1089000052734FEAC2025FEA1C1CC0D111F4801FEF
:108910000BD141EA00014FF000004FF0004CB6E7E8
:1089200011F4801F04BF01430020B4F1FD0C88BF87
:10893000BCF5E06F3FF6AFAEB5EB030C04BFB6EB92
:10894000020C5FEA500C50F1000041EB045170BD85
:108950000EF0004E4EEA113114EB5C04C2BFD4EBB2
:108960000C0541EA045170BD41F480114FF0000E36
:10897000013C90E645EA060E8DE60CEA135594EAB2
:108980000C0F08BF95EA0C0F3FF43BAF94EA0C0FB5
:108990000AD150EA01347FF434AF95EA0C0F7FF42A
:1089A00025AF104619462CE795EA0C0F06D152EA7E
:1089B00003353FF4FDAE1046194622E750EA410662
:1089C00018BF52EA43067FF4C5AE50EA41047FF473
:1089D0000DAF52EA43057FF4EBAE12E74FF0FF3CD8
:1089E00006E000BF4FF0010C02E000BF4FF0010CA9
:1089F0004DF804CD4FEA410C7FEA6C5C4FEA430C22
:108A000018BF7FEA6C5C1BD001B050EA410C0CBF70
:108A100052EA430C91EA030F02BF90EA020F0020D2
:108A2000704710F1000F91EA030F58BF994208BF39
:108A300090422CBFD8176FEAE37040F001007047F6
:108A40004FEA410C7FEA6C5C02D150EA013C07D14D
:108A50004FEA430C7FEA6C5CD6D152EA033CD3D098
:108A60005DF8040B704700BF8446104662468C4692
:108A70001946634600E000BF01B5FFF7B7FF0028C5
